:020000040000FA
:06000000020B7102025E1A
:03002B0002093B8C
:030043000207C9E8
:0300530002019314
:03006B000207A3E6
:100083000201F20100F0FF0700080000FFFF00007B
:10009300070400000F0001FF0502640A2FAC092FBB
:1000A300AC09C0C1C2C3C4C5C6C7C8C9CACBCCCDBD
:1000B300CECF5A6967426565416C6C69616E636551
:1000C30030390100FFFFF2E0A161000000000001F0
:1000D3003888750C7B0C870C810C0020FD00020610
:1000E300FFFF1E0800D918461D000900D918521D2C
:1000F300000A00D9185E1D00010804010301010371
:100103006F87037587095EC003010102EF87013220
:10011300880AE0A103010102EF870132880104028A
:1001230000004119000000E8030000FFFFB91901B6
:1001330003E803000064006400B801A0BB0D00A045
:10014300BB0D000202020704010101051E02051E88
:10015300020A0A01010809080103B80B02803E01E3
:1001630002FEFFE8030A050001FFFF0A011401E094
:10017300020000000105030101FF0F10FEFFD62A54
:1001830000000000AA2900000000FF000000FF009B
:10019300C0E074F1120475A2AFE433F509D2AF8560
:1001A300A708AFA1EF5508FE74105E6006120E4952
:1001B30075A1EF74085E6008120E4F75A1F78024D5
:1001C300EFA2E092F0E508A2E082F0501790619868
:1001D300E0F89009C3E0C398A2D265D0335002E897
:1001E300F075A1FEE509A2E092AF7F020204D4C03C
:1001F300E074F2120475A2AFE433FED2AF9061A4AF
:10020300E0F8759B00E59158540860087591F71262
:100213000E9D8023E59158541060087591EF120EDE
:10022300A38014E591A2E092F0E8A2E082F05007E7
:10023300E0C2E0F0120FED9061A3E0F8E5E9585455
:1002430004600E120FC375E9FB906193E0A2E640D0
:10025300F2EEA2E092AF7F010204D4C0E074F21286
:100263000475A2AFE433FED2AF9061A5E0F8E5BF19
:10027300585404600675BFFB12100580D4C3E4987C
:10028300F8E499F91202C18026C3E49AFAE49BFBCD
:10029300E920E7E91202C1E498F8E499F922C3E4FA
:1002A30098F8E499F91202C1E498F8E499F9C3E4DF
:1002B3009AFAE49BFB22EB20E7CFE920E7E0B900C1
:1002C30010BB0008E88AF084F8AAF022E4FBC8FA1D
:1002D30022EB70227B10C833C8C933C9335007C31C
:1002E3009AC3DBF280069A50012ADBEAC833F4C8CA
:1002F300C933F4C9FA2275F008E4C833C8C933C94D
:1003030033C99AC99B5004C92AC93BD5F0ECFBC831
:1003130033F4C8E4C9FA22080808EAC0E0EBC0E0F5
:1003230086F0E7A4FA180986F0E7A42AFA180986E2
:10033300F0E7A42AFA180986F0E7A42AFA1986F046
:10034300E7A4FBE5F02AFA190886F0E7A42BFBE5FE
:10035300F03AFA190886F0E7A42BFBE5F03AFA180D
:10036300180986F0E7A4C5F02BFBE43AFA1908E76D
:10037300C5F0C6A426F6E5F03BFBE43AFA1886F08E
:10038300E7A4F6E5F00826F6E43B08F6E43A08F6B7
:10039300D0E0FBD0E0FA22E4CFC0E0E4CEC0E0E45A
:1003A300CDC0E0E4CCC0E075F020E626F608E633E5
:1003B300F608E633F608E633F6181818EC33FCEDC6
:1003C30033FDEE33FEEF33FFC3EC9709ED9709EEF0
:1003D3009709EF97191919400FFFEC97FC09ED974F
:1003E300FD09EE97FE191906D5F0BFECF709EDF7F5
:1003F30009EEF709EFF7191919D0E0FCD0E0FDD0A9
:10040300E0FED0E0FF222510C582C0E0E51134FFF5
:10041300C583C0E0E510C3958224F810AF08858337
:10042300118582108008858311858210D2AFCEF0AA
:10043300A3E520F0A37808E608F0A3DEFAEFF0A323
:10044300E58124FAF8E608F0A3E608F0A3E608F04D
:10045300A30808E608F0A3E608F0A315811581D0E8
:10046300E0FED0E0F8158115811581E8C0E0EEC00B
:10047300E022C0D02510C582C0E0E51134FFC5835A
:10048300C0E0E510C3958224F310AF08858311857E
:1004930082108008858311858210D2AFC8F0A3E94A
:1004A300F0A3EAF0A3EBF0A37908E709F0A3D8FAE5
:1004B300ECF0A3EDF0A3EEF0A3EFF0A3D0E0F0A3F4
:1004C300D0E0F0A3D0E0F0A3E520F0A3E5F0F0A3A3
:1004D30022851183851082E0C0E0A3E0F9A3E0FA4E
:1004E300A3E0FBA37808E0F608A3DFFAE0FCA3E0AF
:1004F300FDA3E0FEA3E0FFA3E0C0E0A3E0C0E0A310
:10050300E0F5D0A3E0F520A3E0A3F5F010AF088554
:1005130083118582108008858311858210D2AFD024
:1005230082D083D0E0F8D0E032120BEBB9000302A3
:10053300056BE490050178D079188002F0A3D8FC0C
:10054300D9FA7AD07B1C900086780E79028015E464
:1005530093A3AD82AE838A828B83F0A3AA82AB83FB
:100563008D828E83D8E9D9E77582F07583DE7406B0
:100573001208CC7582A575832774001208CC00007D
:100583002275F0108E128F138582178583168510BE
:1005930082851183E0CEA3E0CF851782851683EB96
:1005A300C9EAC8EDCBECCAC3E833C8E933C9EA33B7
:1005B300CAEB33CBC3EA9EF515EB9FF514B3500496
:1005C300AB14AA15EC33CCED33CDD5F0DAAE12AFC4
:1005D3001322D083D082ECC0E0EDC0E0E493A3FC0F
:1005E300E493A3FDED4C600D1206ADEC24FFFCED8E
:1005F30034FFFD80EFE493A3FCE493A3FDED4C6093
:100603000D12074EEC24FFFCED34FFFD80EFD0E02C
:10061300FDD0E0FCE493A3C0E0E493C0E0228511A5
:1006230083851082E0A3FEE0A3F5207808E0A3F61B
:1006330008DFFAE0A3FFE0A3C0E0E0A3C0E0E0A38B
:10064300C0E0E0A3C0E0E0A3C0E010AF08858210E3
:100653008583118008858210858311D2AFD083D022
:10066300820208D2D083D082E9C0E0E493A3C38698
:10067300F0C5F095F0F908E493A386F0C5F095F082
:10068300700BE493A3C3994005E9048002A3E475C6
:10069300F002A42582F582E5F03583F583D0E0F9F5
:1006A300E493A3C0E0E493C0E022C0E0C3E49396E4
:1006B300087401939618400FE49366700808740158
:1006C30093661870007019A3A3C3E493960874018A
:1006D300939618A3A3400DD0E0D0E0D0E00206111A
:1006E300A3A3A3A3A3A3D0E022740480087403806C
:1006F3000474028000CCC0E0EDC0E0E510C39CCCE4
:10070300AD1150011D10AF068C108D1180068C1099
:100713008D11D2AF120830D0E0FDD0E0FC2274027C
:100723008000CCC0E0EDC0E0E510C39CCCAD11501F
:10073300011D10AF068C108D1180068C108D11D207
:10074300AF12080ED0E0FDD0E0FC22C0E0C0F0887C
:10075300F0E4936670080874019366187000A8F0BB
:10076300A3A3700BD0F0D0E0D0E0D0E0020611A339
:10077300A3D0F0D0E022D083D082CCC0E0E493A316
:1007830060061208511470FAE493A360061209CEAE
:100793001470FAD0E0FCE493A3C0E0E493C0E02239
:1007A300C0E074F2120475A2AFE433FED2AFE58960
:1007B300A2E15003120D6B758900C2C5EEA2E0924F
:1007C300AF7F010204D4C0E074F2120475A2AFE457
:1007D30033FED2AFC2C0E5D1A2E45003120DB9EE8D
:1007E300A2E092AF7F010204D4A2E792D65002F4B2
:1007F3000430F70663F0FF05F0B3400384800384FD
:10080300F40430D60563F0FF05F022CAC0E0E49398
:10081300A3C582CCC582C583CDC583F0A3C582CCD5
:10082300C582C583CDC583DAE5D0E0CA22CAC0E05C
:10083300E0A3C582CCC582C583CDC583F0A3C582A1
:10084300CCC582C583CDC583DAE6D0E0CA22C0E039
:10085300E493A3D39C5010E493A3C39C400AD0E039
:10086300D0E0D0E0020796A3A3A3D0E0227009084A
:100873000808226016181818C6C333C608C633C63C
:1008830008C633C608C633C6D5E0EA22C008C3E0AB
:1008930096F50808A3E096420808A3E096420808E4
:1008A300A3E09645087001D3D00822C5822510C560
:1008B30082C583351110AF07F5118582108007F5C6
:1008C30011858210D2AFC58322C09FF59FE473D0F8
:1008D3009F22D083D082C09FE493C0E0740193C071
:1008E300E0740293F59F222510F58210AF08F510EE
:1008F300400C15118008F51040021511D2AF851177
:1009030083227404800A74038006740280027401D3
:10091300C0E0F4041208EAD0E0120BAE2200C0D00B
:10092300251010AF08F510500C05118008F5105074
:10093300020511D2AFD0D022C0E0C0D0E8C0E0A8F9
:10094300A8D2AFC2C7E8A2E792AFD0E0F8D0D0D028
:10095300E032BB0102E722C082C08389828A83BB63
:100963000003E08002E493D083D08222601608085B
:1009730008C6C313C618C613C618C613C618C613AB
:10098300C6D5E0EA222510F8E43511F9222510FA3C
:10099300E43511FB222510FCE43511FD22C3E0C62A
:1009A30096F608A3E0C696F608A3E0C696F608A353
:1009B300E0C696F622251010AF08F510400C15116D
:1009C3008008F51040021511D2AF22C0E0E493A3D2
:1009D3006C7009D0E0D0E0D0E0020796A3A3D0E08A
:1009E30022E76670100809E766700A0809E766706F
:1009F300040809E76622E066701008A3E066700A3F
:100A030008A3E066700408A3E06622C3E09608A387
:100A1300E09608A3E09608A3E096A2D265D033221D
:100A2300C3E493960874019396087402939608742A
:100A330003939622C3E096F008A3E096F008A3E0A0
:100A430096F008A3E096F022C3E697F60809E69726
:100A5300F60809E697F60809E697F622E046F6084F
:100A6300A3E046F608A3E046F608A3E046F622E62E
:100A730027F60809E637F60809E637F60809E637E0
:100A8300F622E026F608A3E036F608A3E036F608D9
:100A9300A3E036F622E056F608A3E056F608A3E0F4
:100AA30056F608A3E056F622E493F608740193F68B
:100AB30008740293F608740393F622E026F008A361
:100AC300E036F008A3E036F008A3E036F022700425
:100AD30022600D18C6C333C608C633C6D5E0F41862
:100AE30022E647F60809E647F60809E647F6080945
:100AF300E647F622E056F008A3E056F008A3E056D6
:100B0300F008A3E056F022E657F60809E657F60880
:100B130009E657F60809E657F622E046F008A3E08F
:100B230046F008A3E046F008A3E046F022E4C396AB
:100B3300F608E496F608E496F608E496F622C6F478
:100B4300C608C6F4C608C6F4C608C6F4C622C3E07F
:100B53009608A3E09608A3E09608A3E09622C3E7CD
:100B6300960809E7960809E7960809E7962275D0DB
:100B73000075813F7510017511050002052C600C8D
:100B830008C6C313C618C613C6D5E0F422E6F00898
:100B9300A3E6F008A3E6F008A3E6F022E0F608A334
:100BA300E0F608A3E0F608A3E0F622CAC0E0E6F008
:100BB300A308DAFAD0E0FA22EAF0A3EBF0A3ECF010
:100BC300A3EDF022E0FAA3E0FBA3E0FCA3E0FD2207
:100BD300E0F8A3E0F9A3E0FAA3E0FB22E8F0A3E93D
:100BE300F0A3EAF0A3EBF022E5C754F84401F5C7FC
:100BF3007901222510F582E43511F58322C2AF7500
:100C0300D69F020000221208D59CE7051208D5F2F0
:100C1300E7051208D565E8051208D5A9E805120805
:100C2300D501E9051208D523E9051208D5B3E9056D
:100C33001208D540EA051208D58CEA051208D5B882
:100C4300EA051208D5F9EA051208D592EC0512084F
:100C5300D570ED051208D550EE051208D58DE002CA
:100C63001208D5C0E0021208D5FDE0021208D5C073
:100C7300E2021208D5C5E5021208D5F8E50212080A
:100C8300D5EEE8021208D5C4EB021208D55EEC02D9
:100C93001208D57AEF021208D549F0021208D5C31B
:100CA300F1021208D545F2021208D569F3021208BF
:100CB300D5CAF5021208D553F6021208D55DF8021B
:100CC3001208D591FA021208D5CBFB021208D5D42B
:100CD300FB021208D5E5FB021208D52EFC0212080E
:100CE300D59AAB051208D59AB0051208D5FEB00502
:100CF3001208D51FB2051208D520B6051208D55122
:100D0300BA051208D587BC051208D5CBBC05120855
:100D1300D5EBBE051208D5D6EC061208D5E7EC06CE
:100D23001208D5F1FF021208D5EBFF011208D5AA6C
:100D3300E9061208D5BAE9061208D5D2E90612085F
:100D4300D53AEA061208D557E6061208D5DBE606B9
:100D53001208D543E7061208D501FF031208D51D73
:100D6300FF031208D574FF031208D5ACFF03120862
:100D7300D5EEC0061208D5FCC0061208D575C1060B
:100D83001208D54EC2061208D50CC5061208D5DACC
:100D9300EA061208D512EB061208D595B206120818
:100DA300D501B3061208D5B9B3061208D5A6B40601
:100DB3001208D51BB6061208D582B6061208D5D678
:100DC300B6061208D5DFB6061208D5EFB606120826
:100DD300D567B7061208D57DB7061208D587B706BB
:100DE3001208D5C2AC061208D5EEAC061208D5EA35
:100DF300AF061208D52AB0061208D566B006120847
:100E0300D57AB0061208D593B0061208D5B0B1064C
:100E13001208D56DB2061208D581B2061208D5C5DF
:100E2300E3061208D5E9E3061208D502E406120820
:100E3300D540E4061208D570E4061208D59DE406F1
:100E43001208D503E5061208D506E5061208D510E3
:100E5300E5061208D51DE5061208D5BBD70612080C
:100E6300D5DBD7061208D51AD8061208D538D80606
:100E73001208D553D8061208D5B9D8061208D5C515
:100E8300D8061208D522D9061208D531D906120878
:100E9300D555D9061208D516DA061208D523DA066F
:100EA3001208D534DA061208D5ECEB061208D5047D
:100EB300EC061208D530EC061208D594BC061208CD
:100EC300D5F0BD061208D5FEBD061208D511BE0623
:100ED3001208D526BE061208D53BBE061208D54E0B
:100EE300BE061208D5CABE061208D52FBF061208C1
:100EF300D5C5BF061208D59EC0061208D5AEC006DA
:100F03001208D5BDC0061208D511E9061208D53559
:100F1300E9061208D55DE9061208D585E906120827
:100F2300D562DA061208D589DA061208D5A7DA06D9
:100F33001208D50DDB061208D5E8D4061208D50130
:100F4300D5061208D50DD5061208D521D5061208E7
:100F5300D53FD5061208D549D5061208D553D5066F
:100F63001208D566D5061208D5ECD5061208D56148
:100F7300D6061208D590D6061208D5DED606120874
:100F8300D52DD7061208D548D7061208D552D7064D
:100F93001208D563D7061208D5A6D7061208D5B20C
:100FA3007F001208D5578B061208D5838B061208CB
:100FB300D5A08B061208D5B38B061208D5CE8B06A7
:100FC3001208D5288C061208D5568C061208D56748
:100FD30090061208D5C591061208D5F79106120896
:100FE300D55A92061208D5C693061208D5EE930673
:100FF3001208D50394061208D51394061208D55384
:1010030094061208D59594061208D5A594061208DD
:10101300D527E5061208D541E5061208D569E50688
:101023001208D582E5061208D5A6E5061208D5C42E
:10103300E5061208D5DBE5061208D509E60612080F
:10104300D524E6061208D533EC061208D55FD1067F
:101053001208D56FD1061208D574D2061208D5A688
:10106300D2061208D5D6D2061208D5F9D20612082E
:10107300D510D3061208D54AD3061208D5AFD30626
:101083001208D5F1D3061208D538D4061208D5654F
:10109300D4061208D590D4061208D5E8FF02120828
:1010A300D5EBFF021208D5EEFF021208D561E20666
:1010B3001208D581E2061208D595E3061208D598E1
:1010C300E3061208D55CE8061208D592E806120872
:1010D300D5AEE8061208D5F0E8061208D500E906F1
:1010E3001208D5139E061208D51D9E061208D55167
:1010F3009E061208D59A9E061208D51B9F06120853
:10110300D53A9F061208D5539F061208D5F99F06B4
:101113001208D502A0061208D553A0061208D57CE2
:10112300A0061208D589A0061208D5F4A006120855
:10113300D57CA1061208D5C4A1061208D5FEA106C6
:101143001208D56CA2061208D595A2061208D50E70
:10115300A3061208D566A3061208D5A3A306120890
:10116300D5D8A3061208D5EAA3061208D5FCA30610
:101173001208D51BA4061208D524A4061208D5D834
:10118300A4061208D520A5061208D55AA5061208EA
:10119300D5FAE0061208D5B2DC061208D5E8DC065B
:1011A3001208D530DD061208D589DE061208D5638C
:1011B30096051208D59497051208D5CB9705120802
:1011C300D57799051208D5A899051208D53C9C0531
:1011D3001208D57C9C051208D50F9E051208D5AEC2
:1011E3009E051208D5069F051208D58C9F05120887
:1011F300D5C69F051208D508A0051208D592A105EA
:101203001208D531A3051208D58CA5051208D5BA45
:10121300A5051208D5E3A5051208D5ECA505120806
:10122300D542A6051208D5DDA6051208D5AFAA0535
:101233001208D53DAB051208D5D7FF031208D5ED2B
:10124300FF031208D5A6FF041208D599C906120890
:10125300D5AFC9061208D553CA061208D592CA06D5
:101263001208D5AFCA061208D5E0CA061208D52D52
:10127300CB061208D561CB061208D59CCB06120803
:10128300D5A3CD061208D55CE7061208D5BBE70641
:101293001208D5F9E7061208D53AE8061208D50070
:1012A30080041208D50C80041208D5668204120843
:1012B300D57082041208D50A83041208D546830424
:1012C3001208D50C84041208D57184041208D5FDC4
:1012D30084041208D53E85041208D5BC850412087F
:1012E300D5B287041208D5C389041208D5DA8A0453
:1012F3001208D5608B041208D5DB8C041208D522A2
:101303008E041208D57B8F041208D50594041208A5
:10131300D5EF94041208D57395041208D598950453
:101323001208D5BD95041208D54896041208D5664F
:1013330096041208D58496041208D5EA9604120876
:10134300D50E97041208D53B97041208D557980475
:101353001208D54299041208D5D49A041208D57AF2
:101363009B041208D5C19B041208D53B9C041208A8
:10137300D5BE9C041208D5239D041208D5809D0474
:101383001208D5349E041208D59F9E041208D5DB9B
:101393009E041208D5449F041208D5B2A004120873
:1013A300D5BEA2041208D58FA3041208D5A4A304A2
:1013B3001208D5E1A3041208D54AA4041208D57271
:1013C300A4041208D5F1A4041208D596A5041208A2
:1013D300D5B8A7041208D57AAA041208D5A3AB047A
:1013E3001208D5D9AF041208D5A0B0041208D5311C
:1013F300B2041208D5DAB3041208D586A50612087A
:10140300D503A6061208D524A6061208D581A70679
:101413001208D5A6A9061208D5E8EF041208D57A52
:10142300F0041208D5F1F0041208D5AFF404120841
:10143300D565F6041208D5CBF8041208D56AFA0468
:101443001208D529FD041208D553FD041208D583CB
:10145300FD041208D5EDFD041208D579FE04120827
:10146300D58AFE041208D591FE041208D52EFF0476
:101473001208D56BFF041208D57CD2051208D59B40
:10148300D3051208D59AD5051208D5C3D805120875
:10149300D5DDD9051208D502DA051208D5D2DF0544
:1014A3001208D553E0051208D579EC061208D57E4B
:1014B300D5041208D5ADD5041208D527D6041208D1
:1014C300D58AD7041208D57DD8041208D5F7D904D4
:1014D3001208D51CDA041208D56EDA041208D500F6
:1014E300DB041208D54CDB041208D55FDB041208B9
:1014F300D5C1DB041208D5FEDB041208D5E8DC04F1
:101503001208D543DD041208D5A3DE041208D589D9
:10151300DF041208D5CEE0041208D5B3E1041208A3
:10152300D53AE2041208D57CE2041208D59BE20402
:101533001208D5E6E2041208D506E3041208D5C35F
:10154300E3041208D5E1E4041208D556E5041208B1
:10155300D59EE5041208D5A0E6041208D550E90487
:101563001208D576E9041208D5DDE9041208D5027C
:10157300EA041208D579EA041208D551EB041208DB
:10158300D58FEB041208D510EC041208D5FEEC0439
:101593001208D501ED041208D50BED041208D51578
:1015A300ED041208D531ED041208D59AED041208A2
:1015B300D5D3ED041208D5EFED041208D516EE04C9
:1015C3001208D53AEE041208D575EE041208D5E8D0
:1015D300EE041208D51CEF041208D526EF041208F6
:1015E300D561EF041208D596EF041208D5B5EF04C0
:1015F3001208D59DEB061208D5B5EB061208D5FDEA
:101603007F001208D59CF8011208D5EBF8011208E7
:10161300D5A9FA011208D561FC011208D59FFC0176
:101623001208D590FD011208D5CCFE011208D5EEA3
:10163300FE011208D538FF011208D5BBFF011208BD
:10164300D516D6031208D535D6031208D5C7D60347
:101653001208D510D7031208D56CD7031208D5F397
:10166300D7031208D54FD8031208D552D80312084E
:10167300D599D8031208D515D9031208D59FD903D4
:101683001208D5A2D9031208D520DA031208D567A8
:10169300DA031208D546DF031208D5C6E0031208A1
:1016A300D503E1031208D5AEE4031208D5E7E50339
:1016B3001208D5B9E6031208D567E7031208D5ACBB
:1016C300E7031208D525EA031208D5E0EC03120854
:1016D300D5E1ED031208D5AAF0031208D516F103DC
:1016E3001208D519F2031208D552F5031208D56270
:1016F300F5031208D5C5F6031208D516F703120829
:10170300D50FF8031208D575F9031208D5CEF903DE
:101713001208D55BFA031208D588FB031208D5FF1C
:10172300FC031208D535FD031208D54FFE0312083A
:10173300D51F6A001208D5C46A001208D5386B0099
:101743001208D5536B001208D5FF6B001208D54D54
:101753006C001208D58F6C001208D5026D001208B8
:10176300D5176E001208D55571001208D573720093
:101773001208D5F472001208D50375001208D5B506
:1017830075001208D53876001208D52177001208A3
:10179300D5C577001208D52C78001208D5567A00E3
:1017A3001208D5AB7B001208D5D27C001208D55F96
:1017B3007D001208D56C7E001208D5D6B504120838
:1017C300D53EB6041208D586B6041208D5C2B604AF
:1017D3001208D53AB7041208D593B7041208D5CE28
:1017E300B7041208D524B8041208D58CB90412081A
:1017F300D5B3B9041208D5C6BA041208D5CCBB04B4
:101803001208D527BC041208D52EBD041208D556DC
:10181300BD041208D5A2BE041208D5B3BE04120833
:10182300D5CBBE041208D5DFBF041208D5E6C00429
:101833001208D5EFC0041208D506C1041208D5401A
:10184300C1041208D55FC1041208D576C104120879
:10185300D565C2041208D566C3041208D58EC30425
:101863001208D598C3041208D507C4041208D5F288
:10187300C4041208D563C5041208D5E2C5041208CE
:10188300D519C6041208D5ADC6041208D586C804F6
:101893001208D586C9041208D5E2C9041208D55A1C
:1018A300CB041208D5EFCC041208D556CF04120886
:1018B300D530D1041208D5DAD1041208D552D20496
:1018C3001208D56ED2041208D579D3041208D56C48
:1018D300D4041208D5DBD4041208D594FC021208F0
:1018E300D544FE021208D50CFF021208D574FF027C
:1018F3001208D5B0CD061208D5CECD061208D512E2
:10190300CE061208D538CE061208D55FCE061208C9
:10191300D5CD9D061208D519CF061208D55BCF0683
:101923001208D583D0061208D58CD0061208D59597
:10193300D0061208D59ED0061208D5A8D0061208E4
:10194300D59AB7061208D5D8BB061208D5E6BB064A
:101953001208D5EBBB061208D56EDF061208D5AA0E
:10196300EC061208D546EB061208D556EB0612080C
:10197300D561C5061208D544EA061208D56EE605F8
:101983001208D5E1FF051208D50080031208D533EC
:1019930080031208D59A80031208D5268103120802
:1019A300D5CD81031208D51582031208D53A8203D7
:1019B3001208D55382031208D57982031208D5B7CA
:1019C30082031208D50683031208D52F8303120856
:1019D300D58E83031208D56784031208D51D8503AA
:1019E3001208D57B85031208D54186031208D58BCF
:1019F30086031208D5E286031208D54D8703120821
:101A0300D58B87031208D5E187031208D5FD870319
:101A13001208D52888031208D5378A031208D57D02
:101A23008B031208D5A98B031208D5DD8B0312088B
:101A3300D5FE8B031208D50D8C031208D5188C0321
:101A43001208D5C88C031208D5378D031208D5E4C4
:101A53008D031208D5208E031208D5DE8E031208DB
:101A6300D5EB8F031208D53890031208D5C790031E
:101A73001208D52191031208D56691031208D5F5F2
:101A830093031208D54F95031208D59B98031208A8
:101A9300D57999031208D5509A031208D5799A0378
:101AA3001208D5EA9A031208D5809B031208D56F52
:101AB3009C031208D5949C031208D5F79D031208C2
:101AC300D5159E031208D5289E031208D5D49E036C
:101AD3001208D5E49E031208D5DA9F031208D556DF
:101AE300A0031208D58FA0031208D59DA1031208E5
:101AF300D5D9A1031208D5B4A3031208D595A7031A
:101B03001208D59FA7031208D5B3A7031208D5BDA2
:101B1300A7031208D5C7A7031208D5D1A703120834
:101B2300D5EAA7031208D5F4A7031208D564A803BE
:101B33001208D56FA8031208D597A8031208D5A2D7
:101B4300A8031208D5F0A8031208D5FAA8031208AF
:101B5300D505A9031208D529A9031208D54DA90350
:101B63001208D5AAA9031208D5F0A9031208D50CA7
:101B7300AA031208D593AA031208D5CAAA03120806
:101B8300D509AB031208D556AB031208D5D8AB035E
:101B93001208D584AC031208D560AE031208D5CE63
:101BA300AE031208D5FAAF031208D520B00312080A
:101BB300D579B1031208D5D1B4031208D50AB703F6
:101BC3001208D5E8B8031208D581B9031208D5A6BF
:101BD300BB031208D55ABC031208D593BC031208E1
:101BE300D5F9BC031208D503BD031208D52DBF03D5
:101BF3001208D538C0031208D580C0031208D534A3
:101C0300C1031208D5D7C2031208D55EC403120854
:101C1300D57EC4031208D5D1C4031208D5D1C50398
:101C23001208D5F9C5031208D55CC6031208D53FBF
:101C3300C7031208D5B1C7031208D5C3C8031208D6
:101C4300D547C9031208D545CA031208D5DBCC030F
:101C53001208D5FACC031208D545CE031208D513C2
:101C6300D0031208D567D0031208D51FD103120879
:101C7300D5CCD1031208D525D2031208D5EAD20355
:101C83001208D580D3031208D5E7D3031208D52948
:101C9300D4031208D55AD4031208D5BAD5031208AF
:101CA300D50080021208D53280021208D56B80025B
:101CB3001208D55682021208D59882021208D57CE2
:101CC30083021208D5D483021208D517850212089D
:101CD300D56385021208D58F88021208D5038C02BA
:101CE3001208D54B8D021208D5E18D021208D5EDED
:101CF3008D021208D52D8E021208D5C28F0212084A
:101D0300D5B690021208D5E090021208D537910299
:101D13001208D59091021208D50192021208D53605
:101D230094021208D5CD95021208D5A19602120885
:101D3300D5E897021208D5409A021208D5119D02E0
:101D43001208D5209D021208D5A49D021208D55968
:101D53009E021208D59C9E021208D5FA9E02120812
:101D6300D5169F021208D5489F021208D5879F02F5
:101D73001208D56DA0021208D51CA1021208D5A223
:101D8300A3021208D5D8A4021208D5BFA5021208CF
:101D9300D53FA6021208D54CAA021208D58AAA0278
:101DA3001208D5F1AA021208D524AB021208D5B73E
:101DB300AB021208D5EAAB021208D585AC021208B1
:101DC300D5D3AC021208D5A6AD021208D56DAE026A
:101DD3001208D50BAF021208D515B2021208D52985
:101DE300B3021208D5CFB6021208D5D1B702120832
:101DF300D5D4B7021208D503B8021208D502BA0225
:101E03001208D5DBBA021208D500BB021208D57F2F
:101E1300BC021208D5FEBC021208D5F7BD02120897
:101E2300D5ADBE021208D5BEC0021208D529C10223
:101E33001208D571C1021208D5CCC1021208D5A46B
:101E4300C5021208D599C6021208D593C702120813
:101E5300D564C8021208D568C9021208D57CC90224
:101E63001208D590C9021208D5C6C9021208D5F6C0
:101E7300C9021208D5B4CB021208D544CC02120809
:101E8300D5C8CC021208D5B9CE021208D5E9CE02C4
:101E93001208D5A8CF021208D545D0021208D5F0F2
:101EA300D1021208D5DBD2021208D51AD3021208C6
:101EB300D58CD3021208D5D1D4021208D584D50209
:101EC3001208D5B8D5021208D5D0D5021208D57399
:101ED300D6021208D561D9021208D52CDB021208EA
:101EE300D550DB021208D56EDB021208D542DC02A4
:101EF3001208D56FE0021208D506FC051208D54674
:101F0300FC051208D512FE051208D521FE0512089C
:101F1300D50080051208D5C484051208D519850596
:101F23001208D55787051208D5FB88051208D58BEB
:101F330089051208D5E78B051208D5EE8D05120821
:101F4300D5458E051208D53990051208D56B900535
:101F53001208D5A390051208D5C990051208D527F4
:101F630091051208D54991051208D550910512081B
:101F7300D56891051208D52C92051208D52393052F
:101F83001208D53B88011208D57388011208D58C35
:101F93008D011208D5D28D011208D5248F011208A4
:101FA300D5968F011208D50591011208D5F9930131
:101FB3001208D51D95011208D53B9F011208D5C4FF
:101FC3009F011208D521A3011208D530A4011208DC
:101FD300D58BA4011208D5D9A5011208D5C3A60132
:101FE3001208D56EA9011208D5F4AA011208D581E9
:101FF300AB011208D584AB011208D5AFAB011208AF
:10200300D55AAC011208D54AAD011208D503AE0169
:102013001208D521AE011208D536AE011208D55FDC
:10202300AE011208D58CAE011208D5CCB00112084E
:10203300D599B1011208D5DEB1011208D555B20107
:102043001208D503B3011208D535B3011208D57BA5
:10205300B3011208D5AEB3011208D5F3B3011208C8
:10206300D544B4011208D549B4011208D59DB40171
:102073001208D506B5011208D5CFB5011208D51A35
:10208300B6011208D57FB6011208D5DBB6011208D6
:10209300D579B7011208D5E5BA011208D500BC01FC
:1020A3001208D58CBD011208D5ADC0011208D54F59
:1020B300C1011208D560C4011208D51BC50112085D
:1020C300D563C5011208D512C7011208D526C70169
:1020D3001208D530C7011208D53AC7011208D546F0
:1020E300C7011208D56EC7011208D552C9011208DB
:1020F300D5ABC9011208D5B5C9011208D5BFC901AD
:102103001208D534CA011208D57FCA011208D58036
:10211300CB011208D5D7CB011208D5E1CC011208A7
:10212300D52ACD011208D5DACD011208D5BDCE01CD
:102133001208D590CF011208D5E2D0011208D505B7
:10214300D2011208D5FDD2011208D515D301120808
:10215300D54CD3011208D556D3011208D561D3014A
:102163001208D57FD3011208D5C7D3011208D5258C
:10217300D4011208D54CD4011208D55ED40112083B
:10218300D5F9D4011208D52ED5011208D520D601D0
:102193001208D562D6011208D546D7011208D56DAB
:1021A300D7011208D5DAD7011208D552D80112087F
:1021B300D5D6D9011208D503DB011208D5D8DB0126
:1021C3001208D59BDC011208D542DD011208D58720
:1021D300DE011208D545DF011208D5B1DF0112086F
:1021E300D56DE0011208D5BEE0011208D518E10152
:1021F3001208D5E9E1011208D50CE2011208D5CD88
:10220300E2011208D5EFE2011208D550E3011208EA
:10221300D598E5011208D59CE6011208D553E701CC
:102223001208D574E9011208D5BEE9011208D509CF
:10223300EA011208D564EA011208D5D1EA011208AD
:10224300D5FFEA011208D523EB011208D558EB019B
:102253001208D585EB011208D5CBEB011208D51F67
:10226300EC011208D573EC011208D596ED011208A2
:10227300D536EF011208D581EF011208D5AAEF0177
:102283001208D53DF0011208D5B5F0011208D5C3E7
:10229300F0011208D5E7F0011208D53EF10112084A
:1022A300D559F1011208D516F2011208D542F201EF
:1022B3001208D585F2011208D5E8F2011208D5D823
:1022C300F4011208D505F5011208D5F7F501120836
:1022D300D504F7011208D5BDF7011208D500800611
:1022E3001208D53880061208D55980061208D59DE4
:1022F30080061208D50181061208D50B8106120843
:10230300D51B81061208D55281061208D54A8506C7
:102313001208D55887061208D54589061208D5DC58
:1023230089061208D57E8A061208D5C42E00120823
:10233300D56D2F001208D54430001208D54C31005A
:102343001208D56C31001208D58432001208D53E2C
:1023530034001208D5B134001208D54E35001208E6
:10236300D56536001208D5D236001208D50D3700D0
:102373001208D56237001208D59D37001208D5EA36
:1023830037001208D57A38001208D5073900120829
:10239300D5DC39001208D5B53A001208D5433B0005
:1023A3001208D5633B001208D5903B001208D5C133
:1023B3003B001208D5943C001208D5A43C00120837
:1023C300D5F33C001208D5003D001208D5093D00A5
:1023D3001208D5793D001208D5D93D001208D5243D
:1023E3003E001208D53F3E001208D5663E00120893
:1023F300D5833E001208D58F3E001208D53A40001F
:102403001208D55340001208D5DC40001208D5EF5E
:1024130040001208D50E41001208D5A94100120848
:10242300D51943001208D5C044001208D54F450002
:102433001208D55245001208D5C245001208D5E04E
:1024430045001208D58546001208D5C1460012087A
:10245300D5C446001208D58A47001208D5ED4700B7
:102463001208D52648001208D59B48001208D5B992
:1024730048001208D50749001208D5DC49001208A4
:10248300D52A4A001208D5784A001208D5054B0010
:102493001208D53A4B001208D56F4B001208D57DB0
:1024A3004B001208D5DC4B001208D5544C0012081F
:1024B300D5954C001208D5E54C001208D5104D00F7
:1024C3001208D52A4D001208D5444D001208D51F15
:1024D3004E001208D5294E001208D56A4E00120884
:1024E300D5C24E001208D5D64E001208D50C5000A6
:1024F3001208D52150001208D5AF50001208D51785
:1025030051001208D5CA51001208D5D5510012083E
:10251300D52553001208D54153001208D58D530019
:102523001208D5FC53001208D53554001208D54FB4
:1025330054001208D5AF54001208D54E55001208A6
:10254300D59955001208D55B58001208D5115900CA
:102553001208D5A159001208D5E95B001208D5016C
:102563005C001208D5045C001208D5105C00120848
:10257300D5245C001208D52C5C001208D55F5C00E2
:102583001208D5525D001208D5DD5D001208D57022
:102593005E001208D5E95E001208D5AD5F0012088F
:1025A300D5CF5F001208D56860001208D5C560005A
:1025B3001208D5C860001208D54261001208D58EF2
:1025C30062001208D59963001208D524640012082A
:1025D300D52965001208D5E965001208D51A6600E9
:1025E3001208D54066001208D54966001208D5774F
:1025F30066001208D50F67001208D5C467001208D9
:10260300D53568001208D5DC68001208D563690067
:102613001208D5A269001208D5E569001208D53B56
:10262300E7051208D5999D061208D5469D0612089E
:10263300D5C59B061208D51C9B061208D5BF9A0662
:102643001208D5AB9A061208D50E9A061208D515AC
:1026530099061208D54198061208D5319606120834
:10266300D52695061208D5D594061208D561D2054C
:102673001208D554D2051208D54AD2051208D5CD71
:10268300D1051208D587D1051208D525D105120821
:10269300D55FCE051208D546CC051208D513CC0557
:1026A3001208D5A5CB051208D565CB051208D54D63
:1026B300CB051208D541CB051208D50ECB05120860
:1026C300D592C8051208D5CBE5051208D58FC805E4
:1026D3001208D57FE5051208D5F0E4051208D5AB3D
:1026E300E4051208D58FE4051208D520E205120887
:1026F300D5F2E1051208D571C8051208D53EC80503
:102703001208D568C6051208D5BFE1051208D5BE63
:10271300C5051208D5CFC4051208D50DC305120887
:10272300D569C1051208D5D1C0051208D56EEA06D0
:102733001208D586C0051208D543E1051208D5EF66
:10274300BF051208D5BBFB051208D566FB051208A9
:10275300D52EFB051208D501FB051208D5D9FA05BC
:102763001208D564FA051208D544FA051208D51DD6
:10277300FA051208D5E8F6051208D585F4051208FE
:10278300D5DAF0051208D565F0051208D51DF00558
:102793001208D524EF051208D5D1EF051208D57715
:1027A300CE0600000080FBE4738F000100B91D8793
:1027B3000001006C1A350004007E1D250002008212
:1027C3001D26000200841D27000200861D2800012B
:1027D30000901D29000100911D84000400451A8604
:1027E300000100DE1C2A000100921D2B0001009352
:1027F3001D2C000100991D2D000800521A2E000106
:10280300009A1D2F0001009B1D300001009C1D310B
:102813000001009D1D320001005A1A330001005BC4
:102823001A340001009E1D360001005C1A380001B5
:10283300009F1D39000100981D83000200B61D632F
:10284300000100671A64000100941D6500010095F2
:102853001D6D000100681A710008004A1A66000124
:1028630000B51D43000100A61D44000200A71D453D
:10287300000100A91D46000200AA1D470008005FD1
:102883001A48000100AC1D4B000100AD1D040001FE
:1028930000B81DA1000100BC1D37000100BB1D884D
:1028A300000100BA1D3C0001005D1A3D000100A0BB
:1028B3001D49000200AE1D67000100691A4D0002A8
:1028C30000B01D4E000100B21D4F000200B31D3EBB
:1028D300000100A51D51000100A11D52000100A22D
:1028E3001D53000100A41D540001005E1A000000E6
:1028F300000000000136360101000102010001035E
:102903000100010401060605020000070100340866
:1029130001000F090401010D0100FF0E080000175B
:10292300020000190100FF1A0100011B0100FE1C37
:102933000100081D0200001F010001200100012108
:102943000200002301000F240200002601000127DA
:10295300010008280200FF2A0100072B0102402C76
:102963000100002D0100012E0100012F0100FF30A5
:10297300010B1D310800003A0100083B01000F3C28
:102983000100013D0100FF3E040000420400004637
:102993000400004A0400004E0400005204000056E4
:1029A3000400005A04000001037103010301030141
:1029B30003010301032203020301031003000300C5
:1029C3000300030003000300030003420300032486
:1029D3000306030003000304031203250323032553
:1029E300032303040304030003000300034403005D
:1029F3000300032303000365032100350381030060
:102A0300030503000300030003000325032303035B
:102A1300027102300160021102700201020202021D
:102A2300028002100261023A0041006302730272E3
:102A33000262024302000213023800000200020491
:102A43000212020002000200020002040204023722
:102A53000037003C02440200023900000200026514
:102A63000200023502810200020502820283020093
:102A730002030471040204600411047004020402DA
:102A830004010402041004610400041404630473C5
:102A930004720462044304000413040604000400E3
:102AA3000404041204000400040004000451046438
:102AB30000000400040004440400040004000400B3
:102AC30004650400043504810464000504000483E0
:102AD3000400040300710030016000110070003134
:102AE3000220035004800010006100000014006302
:102AF3000073007200620043000000130006000030
:102B030000000004001200000000000000000004A8
:102B1300000400370037003C0244000000000000BE
:102B23000000006500000035008100000005000082
:102B33000083000000010171010101010111010184
:102B4300013101010101018001100161013B001408
:102B53000063017301720162014301000113010665
:102B6300013D0135000401120100010001000100D3
:102B73000104010401330133013C014401320136F4
:102B8300000001000165010001350081010001051C
:102B930001820183010001210010002081E51C2135
:102BA30000110043810000210012002083E61C2154
:102BB3000013002083E71C210014002083E81C215C
:102BC30000150043813B05210016001A81E91C21F1
:102BD3000017001A81EC1C2100200018833D0521F9
:102BE300002100F183EF1C21002200F183FF1C214F
:102BF30000FDFF21810F1D36000100060000000FBC
:102C03000000000000000000000000000003FFFFC0
:102C130000000403FFFF0000FFFF0FF4010005C4E1
:102C2300040320000100000B00000000000000006E
:102C330003010F000000000000000000000000007E
:102C43000000000000000000000000000000000081
:102C530000000000008F13CB139513BD129B13D1FB
:102C6300139B13DD13A113BD129B13D1130000009B
:102C73000000000000000000000000000000000051
:102C830000A713BD12AD13E313B313BD120000006D
:102C9300000000000000000000B913F513BF13BDCE
:102CA30012B913F513BF13BD12AD13E313C513BD4F
:102CB300121300BF161F00C5161F80CB160000613C
:102CC300170100611702006B16028065160300717D
:102CD300160400771604807D160500831606008F00
:102CE300163100A1163300A7163400AD163600B313
:102CF30016FFFF00000A00000002000000040000AD
:102D03000008000000100000002000000040000048
:102D13000080000000000100000002000000040029
:102D23000000080000001000000020000000400028
:102D33000001BF1F06EF1F08E91F0BFB1F10531CE9
:102D430002C51F05DD1F07CB1F0CA71F0DB31F6493
:102D5300671AFF000007ECFDFDFDECDCDCCCBCAC2E
:102D6300AC9C9C8C7C7C6C6C5C5C5C4C4C3C3C2CD0
:102D73002C1C1C03EAF5E5D5D5C5B5A59595858528
:102D83007575656555554545353525251515050075
:102D9300160F00000B150B020002220F3300000E6A
:102DA3000F5A6967426565416C6C69616E63653092
:102DB30039C0C1C2C3C4C5C6C7C8C9CACBCCCDCE2E
:102DC300CF000102030405060708090A0B0C0D0EC8
:102DD3000F303016181920231A1C1E3030301718E4
:102DE3001921301B1D1F30003C40423A3F3F392F11
:102DF3004730000119161816161823030000034D57
:102E03004C4651181A2505020C0E020B040B0A0737
:102E130008000F02040201010101090200BE040AB5
:102E2300E80300000E000000E8030C0003000000AC
:102E33007F0005030004091E100A0C03081E030C7F
:102E4300280004040209033C0C05080408FFE4F00D
:102E5300A3F0A3F0A322122E51F022125BDF240869
:102E63001242FC22122E6B22E0F508E4F509F50A62
:102E7300F50B22E824FBF582E934FFF58322F58381
:102E8300122E8722E0F508A3E0F5092212260D741D
:102E9300041209207F080206217401F09009DBE087
:102EA300640F2274091209207F04020621A3A3E000
:102EB30024F5C39413229009FB125E597A147B0004
:102EC30022C082C083901BAF748BF0A37423F0A342
:102ED300749DF0A37423F0901BB37473F0A3742355
:102EE300F0A3746DF0A37423F0A374A9F0A3742367
:102EF300F0A374AFF0A37423F0A374A3F0A374231B
:102F0300F0A3745BF0A37423F0901BBF747FF0A352
:102F13007423F0A37485F0A37423F0A37479F0A34E
:102F23007423F0A374B5F0A37423F0901BD0124E56
:102F3300BC600612530B1211A9901BCD124781746A
:102F430008F0A3E4F0A3F0901C79F0901BD2F07C7E
:102F53000BFDF97AD37B1B1210FB7C0B7D007900F0
:102F63007ADE7B1B1210FB0245D974F71204097435
:102F7300F71209B8EAFEEBFF124537740512303237
:102F83007403F012300712300E2430FCE43FFD8C42
:102F9300828D83E08882898312301B60081238682F
:102FA30074FFF0A3F0EE242EE43F1C1CFD8C828DF5
:102FB30083A3E0C0E08A828B8312453ED0E01230C7
:102FC3001B88828983124DED2403125988121299AA
:102FD3007408120BF67403F09009F01206F47402ED
:102FE3001209987903EEFAEFFB12254174021209D4
:102FF30020E9F5087007EEFAEFFB122427A90874FD
:1030030009023874EE2402FAE43F22FB8A828B839E
:1030130012302A1249D6EE22124E1912302A1249C0
:10302300D68C828D83E0221248918A828B8322F090
:10303300A3E4F012303A22EE240DF582E43FF58347
:103043002274F0120409EAFEEBFF8C0C8D0D890B40
:103053001230071248887410120BF6E0F508A3E04B
:1030630088828983F0E824FFF582E9123432E50887
:10307300F0E824FEF582E9123432E50BF09009F50D
:10308300E0C0E0E824FDF582E9123432D0E0F090AC
:1030930009F4E0C0E0E824FCF582E9123432D0E020
:1030A300F07412120BF6122E83122E76E509F0E855
:1030B30024FAF8E934FFF988828983E508F0EE24DD
:1030C30004FCE43FFD88088A828B83E0F50E8C8242
:1030D3008D83E0250EC39508124E191249D2850C33
:1030E30082850D83A3A3A3A3A3A3A3A3E064037077
:1030F30008124882F0A3E480031234371230357487
:1031030009F07508D375091B750A007808120909B7
:103113001234201210E974031209207508FF75098F
:10312300FF780812090DAC0CAD0D7903EEFAEFFB35
:103133001225417402120920E9F5087007EEFAEF2F
:10314300FB122427A908022E97C082C083901BEF8D
:10315300E0C39408400474078001E08A828B83F003
:1031630033333354F8F90245D974F01204098A0849
:103173008B09890A8C0E8D0F750C00A2AFE433F511
:103183000BC2AF901BE98045123268503D12327773
:1031930064037036E50824F9F508E50934FFF509F9
:1031A3008E828F83A3A3E02405FCA3E03400FDAA51
:1031B30008AB09121299E50824FFF508E50934FF65
:1031C300F5097410250CF50C150A1236451268D64C
:1031D300E50A6004EE4F70B0E50BA2E092AFA2AF38
:1031E300E433F50BC2AF901BE98038124DE4123F74
:1031F300DE850882850983124E1912326EA3A3E07D
:10320300C0E0E50824FFF582E509123432D0E0F08E
:10321300E50824FEF508E50934FFF509050C150A50
:1032230012364512349F6021123277640270F11214
:103233003268EE40B612466BA2E550E4850E8285F5
:103243000F837401F0E50A70D7E50BA2E092AF8516
:103253000882850983E50CF0E50824FFFAE50934C3
:10326300FFFB022E97123654A2E62212327222126A
:103273004E0EA3228E828F83A3A31245421255457D
:103283002274F012040974F31209B87403120BF6D2
:10329300E9F07402120BF6EAF08B0B8510828511AC
:1032A30083E4F00412099012233DE9F89009DAE06F
:1032B300292437F508FA7B001211138A0C8B0DAE03
:1032C3000CAF0DEE4F7003023417EE2402F50EE43B
:1032D3003FF50FA808EE28F8E43FF9850E82850F25
:1032E300831251BC9009DAE0F9FAC3E49AFA95E043
:1032F300FB850E82850F83E02AF50CA3E03BF50DD9
:103303009009D8122E83750A007808120909E9FC7E
:103313007D00AA0CAB0D1210E97403120920AC1046
:10332300AD117401120BF6E0F9E50C24FFFAE50D7B
:1033330034FFFB1223438A828B83E4F0E50BC454EE
:10334300F0F9901C7AE0C4333354C0F89009D4E008
:10335300A2E0E43313134849440FC0E0EA24FFF525
:1033630082EB123432D0E0F0EA24FEF50CEB34FFAA
:10337300F50D7403120BF6E0F87402120BF6E0C4B9
:1033830054F048850C82850D83F0A80C850E828548
:103393000F83125BA82AC3988E828F83A3A3A3A350
:1033A300F0850E82850F83E8F0A3E50DF012343724
:1033B300123035E4F0740C120BF6E4F07508DE7588
:1033C300091B78081209091234201210E974031238
:1033D3000920851082851183E06009EE240E1246D0
:1033E3006D4408F0122529E9F9E4F508F509780890
:1033F30012090D7406120998EEFAEFFB12254174B7
:1034030002120920E97006EEFAEFFB800BEEFAEFE9
:10341300FB1211197A007B00740D022E947C0B7D34
:1034230000EE241BFAE43FFB22EE24FFF582EF3487
:10343300FFF58322125901E4F0A32274F212040966
:103443008A0C8B0DA2AFE433F50AC2AF7508007581
:103453000900901BE9802C12365F5024850C82856D
:103463000D83A3A312590B8E828F83A3A312530E32
:1034730012252FE9600A123650C2E6F08E088F0932
:1034830012364512349F70CFE508450960061235A0
:1034930038D2E6F0E50AA2E092AF800DE0FEA3E0A9
:1034A300FFEE4F2274021209207F0602062174F0F8
:1034B3001204098A0E8B0F8C0C8D0D750A00A2AFB6
:1034C300E433F50BC2AF7E007F00901BE98010AEA2
:1034D30008AF0912353012466BD2E7F01244581286
:1034E300446E6034123538A2E750F18508828509AD
:1034F30083A3A31206F4AC0CAD0DAA0EAB0F1225D9
:10350300357402120920E960D3EE4F60C21239000C
:103513007006123543D2E4F0E50BA2E092AFEE4F12
:103523006006122421750A01A90A022E9712365445
:10353300D2E4F0EE22E50812582B3509F583E02298
:103543008E828F83A3A3124542E02274F2120409F0
:1035530074FE1209B8750C00750D00851082851173
:1035630083E4F0A3F0A2AF33F50AC2AF901BE912D4
:1035730068D68035EE24FBF582EF34FF122E817876
:103583000C12090DEEFCEFFD7AE97B1B1211497455
:1035930002120920EEFCEFFDAA10AB11121137AE97
:1035A30008AF09901BEFE014F0EE4F602B12365F6B
:1035B300501DEE240BF8E43FF988828983E024FF51
:1035C300F0A3E034FFF088828983124EBC60A58E9D
:1035D3000C8F0D1236458097E50AA2E092AF901B3F
:1035E300EFE060319009DBE0640F6006901C79E046
:1035F30070237AC77B1B1226199087DF1206EC7A99
:10360300C77B1B12260D7404120920800874F01264
:103613004A72122415AA10AB1112113D8A088B09A4
:10362300AE08AF09EE4F601312234F123650A2E2D9
:103633008E828F83A350D674E980D40234A78E0A76
:103643008F0BEE24FBF582EF34FFF5832212365401
:1036530022EE2411F582E43FF583E022123654A2D0
:10366300E72274F7120409EAFEEBFF12234F124517
:103673003B1227AAE964019009F7700AE02401F8D4
:10368300A3E0340080031244BBF9124C461249D222
:10369300901BEFE070219009DBE0640F70197AC78B
:1036A3007B1B1226199087DF1206EC7AC77B1B124D
:1036B300260D7404120920A8A8C2AF901BEFE004E2
:1036C300F0E8A2E78004E508A2E092AF024B35746C
:1036D300F7120409EAFEEBFF123707F012234FEE4D
:1036E300FCEFFD7AE97B1B121143A8A8C2AF901B24
:1036F300EF1240319009DBE0640F70057908122462
:10370300E1024B35123654C2E42274F712040974F1
:10371300EA1209B8EAFEEBFF9009D4E0603C851099
:10372300828511837401F0120BF6E41237DF120B5A
:10373300F6AA82AB83121299123543C0E0740A12BF
:103743000BF6D0E0125BC4740B120BF6AA82AB83A8
:10375300122559AA10AB1112194174160238747448
:10376300F7120409EAFEEBFF122331E9F974DC696D
:10377300601E74DD69601974E469601474F3696030
:103783000F74DE69600A74DF69600574DB697007B2
:10379300EEFAEFFB1224E7024B3574F712040974B7
:1037A300EB1209B8EAFEEBFF8510828511837406DC
:1037B3001237DF120BF6AA82AB83121299EE24089A
:1037C300FCE43FFD740A120BF6AA82AB831225595F
:1037D300AA10AB111219417415023874F0EE2413B8
:1037E300FCE43FFD74022274F712040974F7120912
:1037F300B8EAFEEBFFEE243012466D60651240D44A
:10380300AA10AB111212997408120BF67403F090FC
:1038130009F01206F41238681206F4900A03E0F96C
:103823007404120998EEFAEFFB1223377404120999
:1038330020E9F974DC69602374DD69601E74E4694E
:10384300601974F369601474DE69600F74DF696072
:103853000A74E869600574DB697007EEFAEFFB121E
:1038630024E7023002EE242EF582E43FF58322742E
:1038730003120920024B3574F21204098A0C8B0DD2
:10388300750A00750B007508E7A2AFE433F509C2AA
:10389300AF901BE9800312364112349F6036123613
:1038A3005F50F312390070EEEE243212466DF88A3F
:1038B300828B83A3A3E06870DD780A12090DEEFC06
:1038C300EFFD7AE97B1B1211497402120920901B48
:1038D300EFE014F0E509A2E092AFEE4F6013EEFAC9
:1038E300EFFB12234F79F0EEFAEFFB1224E7750892
:1038F30000A908AA0CAB0D1224E70234AC12303A2B
:10390300E064012274F412040974F71209B8EAFEA0
:10391300EBFF8E828F83A3E064F370030239B18ED1
:10392300828F83A3E064DF70030239B18E828F83B9
:10393300A3E064E860788E828F83A3E064DB606E2B
:10394300122391E9F508705EEE240E12466D60565F
:103953001239BB1223D3EA4B604C7408120BF612D4
:1039630039C51206F47508FF7509FF780812090DA9
:103973008E828F83A3A3A3A3A3A3A3A3E0F97404B9
:103983001209981223377404120920E9F50874F315
:103993006508601274DF6508600C74E865086006EA
:1039A30074DB6508700F8E828F83A3E508F0EEFA4F
:1039B300EFFB12239D022EA6EE240FFAE43FFB79C0
:1039C3000922740212531D74FFF0A31239D222127A
:1039D30039D622124DF6A3A32274F1120409EAFE8A
:1039E300EBFF7508008E828F83A3A3A3A3A3A31267
:1039F3002EB040037508E88E828F83A3A3A3A3A3ED
:103A0300A3A3A3A3A3E0C3941040057508E8801300
:103A13008E828F83A3A3A3A3A3A3A3A3A3A3E064DF
:103A23000F600B901C56E0540870037508E8EE24F1
:103A33000B12466DF88E828F83A3A3A3A3A3A3A324
:103A4300A3A3A3E0C398500DEE240B12466D640F9D
:103A530060037508E89009F4E0F47003A3E0F470E0
:103A6300037508EC7A237B001211A38A0A8B0BA837
:103A73000AA90B901BD0123AAF60298E828F83A3C1
:103A8300A3A982AA83890C8A0D750E00780C1209EA
:103A9300097C237D00901BD0E0FA1210E974031215
:103AA3000920800375081AA9080258F41249D6E8B8
:103AB300492274F5120409EAFEEBFF8E828F83A379
:103AC300A3A3A3A3A3A3A3E09009DB12627C9009A1
:103AD300F61262629009D6126281901C7AF0F91292
:103AE3000F4B901C7AE06018EE2404FAE43FFB7954
:103AF30050120F33EE2406FAE43FFB79E1120F3341
:103B0300901C79122E9C6004740180027400901B37
:103B1300D21262681209097C0B7D007AD37B1B12D7
:103B230010E97403120920EE2418F508E43FF5099F
:103B330078081209097C0B7D007ADE7B1B0247E0C3
:103B430074F7120409EAFEEBFF8E828F83A3E07001
:103B53000612530B122397124A6C1224F3024B35AD
:103B630074F7120409EAFEEBFF901BD0124EBC60FF
:103B73000D12530B901BD0E4F0A3F01211A98E8207
:103B83008F837408124A72121941024B3574F6126C
:103B93000409901C79E06013901BD2E0700D123B76
:103BA300B1122349EA4B6003122427025EE4900911
:103BB300D6E0FB9009F6E0FA9009DBE0F92274F411
:103BC30012040974E71209B8EAFEEBFF750B018EC4
:103BD300828F83A3A3A3A3A3A3A3E0A2E25068EECF
:103BE300242BF582E43F125909124AFD122355E9A9
:103BF3007055908761E064017005750B0080481271
:103C03003C8D1209097C0B7D00741112099012106E
:103C1300E97403120920122529E9FA740E1209889E
:103C230088088909780812090D7508307509007824
:103C33000812090D123C7F1206F4125B92790112ED
:103C4300254774061209208510828511837410128A
:103C530037DF120BF6AA82AB8312128D123C7F124E
:103C63005E55740B120BF61249D2740D120BF6E566
:103C73000B1248201219417419022EA8123C8322F8
:103C8300EE242BF582E43FF58322EE2408126270C2
:103C930022C082C083901C7AE0600312259B0245F8
:103CA300D9C082C083901C7174AFF0A3741BF0A3BE
:103CB30074B3F0A3741BF0A374BFF0A3741BF09050
:103CC3001DD37474F0A3742AF0901C5B742BF0A3BF
:103CD3007423F0901BF47461F0A37423F0901BF62B
:103CE3007467F0A37423F0901C56E0440202410A67
:103CF300C082C083EAFCEBFD7903024E64C082C03C
:103D0300837908026062C082C08374FE1209B8908E
:103D13001BFC740FF0A37424F0901BFE7409F0A332
:103D23007424F0800D7AE97B1B12113D12481612A0
:103D33002517901BE9124EBC70EB901BEB124EBC87
:103D4300600F7AEB7B1B12113D1248161225178068
:103D5300E9901BE9E4F0A3F0901BEFF0A3F0A3F0CC
:103D6300901C0A744BF0A37424F074028002741143
:103D73001209200245D974F6120409E9FF74EA29ED
:103D8300F582E4342DF583E493FEFA7B00121113DC
:103D9300EA4B6013EA2E1246B6E8F0A3E9125BE49D
:103DA300A3A3A3E4F0802C7A027B00121113EA4B45
:103DB300601D74DF2FF582E4342DF583E4938A824A
:103DC3008B83F0A3741AF0901C51E0F912111F7A3F
:103DD300007B00025EE4E9FC740629F8EAA2E050E5
:103DE3001EE875F00A84E5F0F96014740A28C39993
:103DF300F8E9C394054004740A28F8740B28F8EC16
:103E0300C394134004791480027906E829790024C5
:103E130009F85001097A0A7B001202B9E8F902088D
:103E2300D2C082C083901C56E05402600A12194724
:103E3300E960047901800279000245D9C082C08318
:103E4300901C56E054026016901BEFE0700C124E6B
:103E5300B9600BE0C812446550047901800279000F
:103E63000245D9C082C08390875EE0F8901BF1E0E1
:103E7300C398500512111380047A007B000245D9C0
:103E8300C082C08312251779000245D9C082C0833E
:103E930074FE1209B8851082851183EAF0A3EB1230
:103EA300400DA3A3A3A3A3E0600A14605D24FE60F6
:103EB30060023F6C9009DBE0640F60181224EDE9A7
:103EC300701285108285118312530E901BF81245D0
:103ED3003E1227AA900A03E0C0E085108285118371
:103EE300124DC6D0E012400D7414125845FCA3E0E5
:103EF300FD7AEB7B1B121137A8A8C2AF901BF112FE
:103F0300403179201224E1023D6D123FD1741580B6
:103F1300D9123FD1A3A3A3A3E0604E123FD1123520
:103F230047C0E0851082851183125BB7123FEBD047
:103F3300E01258452402F8A3E03400F9888289830B
:103F4300E02401FAA3E03400FB88828983EAF0A32A
:103F5300EB125845124305851082851183601312B5
:103F63003FDE6005123FF44048AA10AB111225173B
:103F73008095123FDE60F2123FF45021124001FAA5
:103F8300851082851183A3E0C824061242D0F874F9
:103F930015124FFE342EF583E4936A601485108264
:103FA300851183123FDE640870BF124001640870FC
:103FB300B812400114124015240AC0E0851082850E
:103FC300118312453ED0E012401504023EED8510E8
:103FD30082851183A3E0F583888222123FE22212B5
:103FE30044BBC8123FEBE0222406F582E438F58394
:103FF30022851082851183123FE2C3940A22851021
:1040030082851183123272A3E02212401FF5838846
:10401300822212401FC824061242FC22F08510821D
:104023008511831244BB22A8A8C2AF901BF0E00401
:10403300F0E8A2E792AF22C082C083901C00124E28
:10404300BC6008123FD81227AA800279000245D922
:1040530074F7120409EAFEEBFF12303A74011246B8
:10406300751258F9123016243512466DC0E0EE244D
:1040730013F582E43FF583D0E0F0EE243612466D6B
:10408300C0E0EE2414F582E43FF583D0E0F0EE24A3
:104093003812466DC0E0EE2418F582E43FF583D074
:1040A300E0F0EE242FF582E43FF5831206F412408C
:1040B300D4EE243112466DF91225417402120920FF
:1040C300E9F5087007EEFAEFFB122427A908024B63
:1040D30035EE2426FCE43FFD22C082C0831224ED8A
:1040E300E960047920800279010245D9C082C08346
:1040F300EA2411124100D2E0800DEA240DF582E496
:104103003BF583E022F0A3F00245D9C082C08312BD
:1041130040FD6401701112419C400C8A828B83A381
:10412300E0F91224E7806FEA2410124100A2E6505E
:10413300128A828B83A3E0F9901BFA12453E122761
:10414300AA80531240FD6401700D12419C50088AED
:10415300828B83743080368A828B83A3E0641B8ACC
:10416300828B83700474228024A3E0700D1240FDBF
:10417300F874D4124FFE342D800B1240FDF874DF17
:10418300124FFE342DF583E4938A828B83F0901CC7
:1041930051E0F912111F0245D9EA2410F582E43BDC
:1041A300F583E0A2E32274F7120409E9FE124EB983
:1041B30070030242CBEE6011741B6E7013E0C812E1
:1041C30042CE640570030242991242D4E402429D36
:1041D30074E96E70611242F4700B12194DE96005B7
:1041E30012430F606179EE120EB5901BF21242F189
:1041F300901BF2603A124312901BF2700B1242F1C1
:1042030014F012106B0242CB124304C2E71244A112
:104213001242CE6403700B125BB424111242D0D24B
:10422300E2F079ED120EB51242E41227AA8075125C
:1042330042D774E9806474E16E703E12194DE960EF
:104243005512430F70509009FDE0C0E0125BB42497
:1042530012F582E438F583D0E0F09009ECE0C0E099
:10426300901BF21242E01242E0D0E0F09009ECE041
:1042730004F07901121053804F741C6E7018901B58
:10428300F212530E901C0212453E1227AA901BF203
:10429300E4F0A3F080321242D4EEF0901BF21253FA
:1042A3000E122415124482E054806010900A03E039
:1042B300F9120F6F900A02E0F9120F63901BF2E4F8
:1042C300F0A3F079101224E1024B35240D1242FCC5
:1042D30022901BF21242DB22124546A322124E0AFF
:1042E30022901BF2125312901BF612454222E0F861
:1042F300A3E0C824121242FC22F582E438F583E0DD
:1043030022E0F8A3E0C824101242FC22901BF21210
:104313004489E054042274F4120409750A00750BED
:1043230000A2AFE433FEC2AF124EB9600302440EE3
:1043330012453B1227AAE94410F8901BE98009852E
:10434300080A85090B12445812446E700302440E86
:10435300123538586870E8780A12090DAC08AD09AF
:104363007AE97B1B1211497402120920901BF2E5B2
:1043730008F0A3E5091244A1124465500302441551
:10438300901BF0E014F0EEA2E092AF901BF2E02459
:104393000EF8A3E03400F9E8FEE9FF8E828F831262
:1043A300530E901BF2124007F91223D9E9901BED2B
:1043B300F0A3125DD6E054806018125BB42413128C
:1043C30042D0F9120F6F125BB424141242D0F912C7
:1043D3000F63124482A3E05401605F901BED124E01
:1043E300BC60451244986040124498F87900901BD1
:1043F300ED12530E1202C1E8C0E0124476D0E0126F
:1044030044A6C3941340117402800FEEA2E092AF4E
:104413008037901BEF0243867400C0E0901BF3E0EB
:10442300C812444FD0E0800D12447674011244A1A7
:1044330012444F7401F07903800C901BF212430471
:10444300A2E1B3E433F9121053022EAB241AF5821E
:10445300E438F58322E50824FBF582E50934FFF50A
:10446300832212582B1242FFA2E722122E87E5085D
:10447300450922125BDC2419F582E438F583229086
:104483001BF2124489221244BBC8124491221258CF
:104493005538F58322125BDC24181242FC221244A5
:1044A300B3C8221244B3F5838882A3A3A3A3E02253
:1044B300F0901BF21244BB22E0F8A3E02274F7123F
:1044C3000409EAFEEBFF12251112466AA2E3400A31
:1044D300123900700590875C800390875DE0F9EEE8
:1044E300FCEFFD7AE97B1B12114FE96037EEFAEF1F
:1044F300FB901BFC12453E1227AAEE240E12466DBA
:104503005404701112402A124537A3E0540170215C
:10451300122421801CEEFAEFFB901BF412453E128D
:1045230027AA800D8E828F83A374F1124A721224FC
:1045330015024B3512590122901BFE1245422212DD
:10454300454622E0F8A3E0F5838882220245D2742F
:10455300F7120409EAFEEBFF7900901C56E05402BF
:10456300700CEE243312466D5404600279E8901CFB
:1045730056E05460700CEE243312466D5402600210
:1045830079E88E828F83A3A3A3A3E0F8908762E0E8
:10459300C398500279E8EE243112466D700CEE2474
:1045A3002E12466D700479F5800BE9700512240311
:1045B300E9F9E96007EEFAEFFB1224E7024B35C095
:1045C30082C0838A828B83740DF01219418007C0E5
:1045D30082C083122421D083D0820208D274F412C1
:1045E3000409EAFEEBFF8E828F83E4F0A312467583
:1045F300540490875C7012E0F8901BF0E0C398407D
:104603001279F11224E7022EABE0F8901BEFE0C31E
:104613009850EE12467BA3E054016039EE24371222
:10462300466DC39405403CEE243312466D54057029
:10463300327A047B1C122619EE2437F582E43FF507
:1046430083122E6778081209057A047B1C12260D43
:104653007404120920EEFAEFFB901C51E0F91211D9
:104663001F80A379E8809CEE2410F582E43FF58354
:10467300E022F012467BE022EE2433F582E43FF59C
:10468300832274F6120409E9FE2451FAE43400FB90
:10469300121113EA4B6015EE8A828B83A3A3A3A3A3
:1046A300F0EA24511246B61249D280047A007B0004
:1046B300025EE4F8E43BF98A828B83A3A3220245DA
:1046C300D2C082C083901C0D7475F0A37424F0A330
:1046D30074A5F0A37424F0A3747BF0A37424F0A353
:1046E3007481F0A37424F0A3749FF0A37424F0A343
:1046F3007493F0A37424F0A3748DF0A37424F0A333
:1047030074ABF0A37424F0A374B1F0A37424F0A3E6
:1047130074B7F0A37424F0A374C3F0A37424F0A3B8
:104723007487F0A37424F0A3746FF0A37424F0A32C
:104733007469F0A37424F0901C297499F0A3742471
:10474300F0A374BDF0A37424F0A374D1F0A3742573
:10475300F0A374C9F0A37424F0A374CFF0A374245A
:10476300F0901C4DE4F0901C50F0901C39124781DE
:104773007402F0901C42124781740102410A74E1F1
:10478300F0A37424F0A32274F512040974F112093E
:10479300B88510828511837402F07401120BF6E957
:1047A300F060047AFF7BFF7402120BF612695D75E9
:1047B300084575091C750A0078081209097C0B7DE8
:1047C300007407120BF6AA82AB831210E97403126A
:1047D3000920AA10AB11121941740F80051210E9B8
:1047E30074031209207F0302062174F7120409746B
:1047F300FD1209B8851082851183740AF0740112C1
:104803000BF6E9F07402120BF6EA12482012194172
:10481300023872851082851183EAF0A3EBF0AA10A7
:10482300AB112274F612040974F71209B8EAFEEB0D
:10483300FF12488212303274021249C3AA10AB111C
:1048430012128DEE24311259701248888A828B839A
:10485300E8F0A3E912467512599512090D74021274
:10486300099879831A1AEFFB122541740212092061
:10487300E9F5087007EEFAEFFB122427025EDD125A
:104883005901740122FB8A828B8312489122E0240E
:10489300FFF8A3E034FFF92274F01204091264183C
:1048A300120B9F7808790C12031A78081209057AFB
:1048B3003C7B1C022E8F74F412040974C61209B8CF
:1048C3009009DBE0640F6010851082851183742EDC
:1048D3001248201224F380277A337B1C12261912E4
:1048E3002EB91202C188088909E4F50AF50B780884
:1048F3001209057A337B1C12260D740412092074E5
:104903003A022EA874F5120409EAFEEBFF8E828F99
:1049130083A3E0F860030249ACEE243012466D64D1
:10492300026007E06403600278E8EE2426F582E47F
:104933003FF583122EB2400478E88070E8706AEE87
:104943002426FAE43FFB79E1120F33EE2431FAE433
:104953003FFB7950120F33EE243012466D64027020
:1049630014EE2428F582E43FF583125E559009EA9C
:104973001249D280129009EA74FEF0A3041249C3CB
:104983007AE17B09121299EE241B123C9012090959
:104993007C0B7D007A457B1C1210E97403120920FD
:1049A300EEFAEFFB122463E9F8E86011E88E828FD8
:1049B30083A3125DD77417124A721224F30247E8D5
:1049C300F0EE2428FCE43FFD22125E59901CCE1227
:1049D30049D622E8F0A3E9F02274F612040974F729
:1049E3001209B8901C50E0703B7401F0F912101DCD
:1049F300AA10AB1112252375084575091C780812F6
:104A0300090D750801750900780812090D9009F060
:104A13001206F474061209987A037905122547746D
:104A230006120920025EDF74F7120409EAFEEBFFA7
:104A330079011210238E828F83E064207004A374A3
:104A4300EBF0901C50E0A2E25003C2E2F0E0A2E1DE
:104A53005008124C8812245D800C8E828F83742A36
:104A6300124A721224F3024B358E828F83742CF018
:104A7300EEFAEFFB2274F412040974FE1209B8EA89
:104A8300FEEBFF79011210237A337B1C1226197A6D
:104A93003C7B1C122619124DD2851082851183127C
:104AA3004E00E0F50B7011AA10AB117953120F33BE
:104AB300124AFD794A120F33123C8D1209097C0BFD
:104AC3007D007A457B1C1210E974031209208510BE
:104AD3008285118312530EA90B122457901C50E0A8
:104AE300A2E1500C7A008E828F83A3E0F912245D39
:104AF300901C50E4F07402022EA8EE2413FAE43F53
:104B0300FB2274F7120409EAFEEBFF8E828F83A364
:104B130074EBF0901C50E0A2E150077A0079EB129D
:104B2300245DEEFAEFFB1224938007EEFAEFFB12FB
:104B3300258F7F0102062174F7120409EAFEEBFFB9
:104B430079011210237A337B1C1226197A3C7B1CC1
:104B5300122619901C4DE4F0901C50F07AFF7BFF55
:104B63008E828F83A3E0F912245780C674F7120450
:104B730009EAFEEBFF12248D80B174F7120409EAEF
:104B8300FEEBFF79011210238E828F83A3A3A3A3CD
:104B9300E060047400800274EB124BCF5003C2E256
:104BA300F0E0A2E15008124CD112245D8014A2E07F
:104BB30050108E828F83742AF0A374EB124A721200
:104BC30024F3EEFAEFFB122439024B358E828F83E6
:104BD300A3F0901C50E0A2E22274F6120409EAFE4C
:104BE300EBFF901C50E0D2E1F0790112101D8E8290
:104BF3008F83A3E0703C122529E9FAEE240DF50812
:104C0300E43FF509780812090D7508017509007864
:104C13000812090D124C461206F4EE2402FCE43F7E
:104C2300FD79051225477406120920E98E828F83C8
:104C3300A3F08E828F83A3E060067A00F912245DCD
:104C4300025EE4124C4A22EE240BF582E43FF58324
:104C53002274F7120409EAFEEBFF79011210238E86
:104C6300828F83E064207004A374EBF0901C50E007
:104C7300A2E25003C2E2F0E0A2E15006124C881215
:104C8300245D024B35C2E1F07A008E828F83A3E06C
:104C9300F92274F7120409EAFEEBFF7901121023DB
:104CA3007A337B1C1226198E828F83A3A3A3A3E0DE
:104CB30060047400800274EB124BCF5003C2E2F025
:104CC300E0A2E15006124CD112245D024BC5C2E1B1
:104CD3001239D2A3E0A2E4E433FA8E828F83A3E0F5
:104CE300F92274F7120409EAFEEBFF79011210238B
:104CF3008E828F83A374EB124BD45003C2E2F0E095
:104D0300A2E15006124C8812245D024B3574F7124F
:104D13000409EAFEEBFF7A337B1C122619EEFAEF45
:104D2300FB1224B7024B2E74F7120409EAFEEBFFC1
:104D33007A337B1C122619EEFAEFFB1224B7024BCF
:104D43003574F712040974EF1209B8EAFEEBFF1287
:104D53005B927AE17B09121287E960628510828592
:104D630011837409F07401120BF674EFF0124DD233
:104D7300F87402120BF6E8124E00A3A3E0C0E0742D
:104D830004120BF6D0E0124DED640870158E828F7D
:104D930083A3A3124DC6E0C0E07405120BF6D0E066
:104DA30080067405120BF6E4125BC47406120BF64C
:104DB300AA82AB83122559AA10AB1112194174119F
:104DC300023874125BDF2407F582E438F58322EEA0
:104DD300124DE4125E5988828983E0FCA3E0F9EC6A
:104DE3002212597EFB8A828B8322124DF122124DAD
:104DF300F6E022F08E828F83A3A3A3A322F0A3E97C
:104E0300124E19124E0A22124E0E22E0F8A3E0F5BA
:104E1300838882A3A322F08A828B8322C082C083E9
:104E230012259B0245D9C082C083901C6D740DF07E
:104E3300A3741CF0A37429F0A3741CF0901DCD740B
:104E430038F0A3742BF0A37412F0A3742AF0901C0F
:104E5300597451F0A37424F0901C56E044010241AC
:104E63000A1224FF0245D974F612040974FE1209CA
:104E7300B8901C52124EBC60077A527B1C12251745
:104E8300901C58E4F09018B6124EBC60248007AA18
:104E930010AB11122517901C51E0F912112B8A083F
:104EA3008B09A808A909851082851183123AAF706E
:104EB300DE7402025EE1901BF2125E59E84922742D
:104EC300F7120409E9FA7B00901C51E0F91211551D
:104ED300024B3574F712040974F01209B8EAFCEBBB
:104EE300FDE9FE8C828D83E0F8740B124FFE342EA5
:104EF300F583E493C0E07401120BF6D0E0F0640B89
:104F0300700DEE8C828D83A3F012257D024FF9E0A4
:104F13007003024FF9640C6003024FEA741A6E7057
:104F23000B7404120BF6E4F0A3024FE97404120BA2
:104F3300F6ECF0A3EDF0EC2432F582E43DF583E0EA
:104F4300C0E07403120BF6D0E0126137120BD37476
:104F530006120BF6120BDF8C828D83125E4C740AE1
:104F6300120BF6E8F0A3E9125003E0541060098530
:104F73001082851183E48017EC2412F582E43DF559
:104F830083E0F89009FDE0C398851082851183F0D2
:104F9300E0C0E0740C120BF6D0E0F0EC2415F582BF
:104FA300E43DF583E0C0E0740D120BF6D0E0F0ECC5
:104FB3002416F582E43DF583E0C0E0740E120BF68F
:104FC300D0E0F0EC2417F582E43DF583E0C0E07413
:104FD3000F120BF6D0E0125003A3E05401600874E3
:104FE30001120BF67411F07402120BF6EEF0740159
:104FF300120990121941741002387428F582E422C0
:10500300F0EC1258553DF58322C082C083901C58A2
:10501300E0640370047901800279000245D974F7D2
:10502300120409901C58E012509C74CB28F582742A
:105033001D39F583125587C2E7F01250A3A3E493F9
:10504300FE25E0FCE433FD74CB2CF582741D3D1288
:105053005909EC4D6005EE901C58F08A828B83E071
:1050630025E0FCE433FDE82CF582E93DF583E49388
:10507300FCC4540F25E0F87467124FFE341CF5830B
:10508300124EBC700512256B800CEC540F1250A30A
:1050930012453E1227AA024B3525E0F8E433F922E4
:1050A30025E0FCE82CF582E439F5832274F212043E
:1050B3000974FE1209B8890B8A088B0912519DFAEB
:1050C3007B001211138A0C8B0DAE0CAF0DEE4F60EB
:1050D3002E8E828F83E50BF0A3E4F0F50A78081295
:1050E30009091251AA123008FB1210E974031209BC
:1050F30020EEFAEFFB901C51E0F912111F8012858C
:105103001082851183E50BF0791AAA10AB111224D2
:10511300E70234A774F012040974FE1209B8890B6C
:105123008A0E8B0F12519DF508FA7B001211138A18
:105133000C8B0DAE0CAF0DEE4F60468E828F83E568
:105143000BF0A3E4F0A808EE28F8E43FF98E828F71
:1051530083A3A31251BC850E08850F09F50A7808AD
:105163001209091251AA1234251210E97403120903
:1051730020EEFAEFFB901C51E0F912111F79008029
:1051830014851082851183E50BF0791AAA10AB11EF
:105193001224E7791A7402022E94740029F582E42A
:1051A300342EF583E49322A80B74F5124FFE342DAD
:1051B300F583E493FC7D00EE221249D68E828F8321
:1051C300A3A3A3A3E4F022C082C083E9901C5102ED
:1051D300410A74F612040974FE1209B8EAFEEBFFE1
:1051E300EE542070308039A8A8C2AF901BF1E014B0
:1051F3001240338A828B831252FE901C5412695DD3
:105203001224F3851082851183E0641560077A54B4
:105213007B1C1225177AEB7B1B12113DEA4B70C7DF
:10522300EF54807012801C901C5412695D1224F399
:105233007A547B1C122517901C51E0F912112BEAAA
:105243004B70E4EE5410600E851082851183742D2B
:105253001248201224F3EEA2E0500E85108285112D
:105263008374241248201224F3EE5402600E851036
:105273008285118374251248201224F3EE540460AE
:105283000E85108285118374261248201224F3EEB2
:105293005408600E851082851183742812482012E9
:1052A30024F3EE544060107401120BF61253187479
:1052B3002C1248201224F3EE548060107401120B58
:1052C300F6125318742F1248201224F3901C521212
:1052D3004EBC6020A8A8C2AF901C5212530E901C63
:1052E30052E4F0A312403312695C1224F37A547B24
:1052F3001C1225177A007B00024EB412530222E0DF
:10530300851082851183F022901BD012531222E064
:10531300FAA3E0FB22E412531D22F08510828511CB
:105323008322C082C083901C54125E55EA687002C7
:10533300EB697007901C54E4F0A3F00245D974F7AD
:10534300120409EAFEEBFFEE4F7003120D23A2AF26
:10535300E433F508C2AF8E828F83124EBC6028E817
:1053630024FBFAE934FFFB901C5412590BE86C70D0
:1053730002E96D7007901C54E4F0A3F08E828F83D2
:10538300E4F0A3F01211A90236C9C082C083901CB5
:105393007B745FF0A37425F0A37471F0A37425F0FC
:1053A300A37477F0A37425F0A37433F0A37424F0EB
:1053B300A3747DF0A37425F0A3742DF0A37424F0DB
:1053C300A37439F0A37424F0901C8974ADF0A37412
:1053D30025F0A37483F0A37425F0A37489F0A37458
:1053E30025F0A37495F0A37425F0A3748FF0A37430
:1053F30025F0901C7AE402410AC082C0839009EA36
:10540300E064FE7003A3E0F470097CE17D091212ED
:105413008D801C8A828B83A3A3A3A3A3A3A3A374BA
:1054230002F09009EA125E558A828B831249D202F6
:1054330045D9C082C0839009F4C3E094FEA3E094ED
:10544300FF40047903800279020245D9C082C083F8
:105453001255908C828D8312554568703974026899
:10546300701C8A828B8312549EE06870298A828B17
:1054730083A312549EA3E068701C7901801A7403FD
:10548300687013EC2405FC50010DEA2405FA500161
:105493000B121293800279000245D9A3A3A3A3A3FD
:1054A300E0F88C828D83A3A3A3A3A32274F6120432
:1054B300097E00740A120BF6E0125539FF8A828BBB
:1054C30083A3A3A3A3A3A3A3A3E06F706474026F36
:1054D300704E8A828B83C082C08388828983A3A310
:1054E300A3A3A3E0F50888828983A3A3A3A3A3A30B
:1054F300E0FBAA08D083D082E06A7003A3E06B705C
:105503003088828983A3A3A3E0FA88828983A3A333
:10551300A3A3E0F9EA6C7002E96D70157E018011B6
:1055230074036F700CE82405FCE439FD121293E94F
:10553300FEEEF9025EE4F8A3E0F98882898312554E
:105543004522A3E01313543F540322C082C0838A2D
:10555300828B83A3A3A3A3A3A3A3A3E064027016D4
:105563009009EA125587687003A3E0697004790112
:10557300800F7900800BEAFCEBFD7AE17B091212C4
:10558300870245D9125E598A828B83E0228A828BF5
:1055930083125545F82274F012040974FC1209B8F9
:1055A300E9851082851183F07402120BF6ECF0A3E7
:1055B300EDF08A0A8B0B7508007402120BF6122E9B
:1055C3005EC0E07401120BF6D0E0125845A2E7501A
:1055D30008750EFF750FFF800A9009F0E0F50EA322
:1055E300E0F50F851082851183E0C2E712584A5413
:1055F30020600712581774088004125817E41258D1
:105603004A54046007125822748080051258227489
:105613001012584A54106006125801E4800B900986
:10562300FDE0C0E0125801D0E012584AA2E0500356
:105633007508205408600674104508F5088A828BA3
:1056430083A3A3E024FFFEA3E034FFFFEA12580C78
:10565300C39402E0400F640B6009E0148E828F83D1
:1056630012583B74034508F508750900900A10E0C9
:10567300640170118A828B83A3A3A3A3E0C39467FD
:105683004003750910851082851183E0F50C750DB3
:1056930000740E780C120AD1E50D4509F509E06492
:1056A3000270199009F512612CF09009F4E0C0E042
:1056B30012342CD0E0F0EE24FEFE801CE064037074
:1056C3001DEE24F9FEEF34FFFF7C047D0AEEFAEFB2
:1056D300FB121299EE24FF1EEF34FFFF8003E060FC
:1056E3002F7401120BF6E060187414120BF6E065C8
:1056F3000E7004A3E0650F700874404508F5088038
:105703000F8E828F83E50FF012342CE50E12583181
:105713007401120BF6E0F50C750D00740A780C1287
:105723000AD1E50D4509F509E064027023740212FC
:105733000BF6125FA08E828F83F07402120BF612A7
:105743003549C0E012342CD0E0F0EE24FEFE802078
:10575300E064037021EE24F9FEEF34FFFF740212BC
:105763000BF612590BEEFAEFFB121299EE24FF1E01
:10577300EF34FFFF8003E060197414120BF612611B
:105783002BF07414120BF6E0C0E012342CD0E012AC
:105793005831EEF8EFF9E824FF1EE934FFFFE50A7C
:1057A30012580C70059009E080039009ECE0FA04AC
:1057B300F0EA88828983125DD7E50912583B8E820D
:1057C3008F83E508F0E50A2404F8E4350BF9E50ACC
:1057D3002402FAE4350BFBEEFC8A828B83E0F508A6
:1057E30088828983E02508C39C124E19EEF0A3EF4B
:1057F300F0850A82850B83A3E4F0F9022E92EA2452
:1058030012F582E4350BF58322240DF582E4350B82
:10581300F583E022EA2410F582E4350BF58322EACE
:1058230012582B350BF583222411F582E422F0EE76
:1058330024FEFEEF34FFFF22F0EE24FF1EEF34FFC1
:10584300FF2212531DE022F0EA125855350BF5835F
:10585300E022240EF582E42274F112040974FE128C
:1058630009B8851082851183ECF0A3EDF0890B8ACA
:105873000E750A1A7415120BF61267B41223D38A23
:105883000C8B0DAE0CAF0DEE4F605F7413120BF665
:10589300E01258F9E8F0A3E9123035E50BF0750A88
:1058A3000078081209091234201210E9740312094E
:1058B300207411120BF61206F47402120BF612592D
:1058C3000BA90EEEFAEFFB1225417402120920E92F
:1058D300F50A7016E50B24F96003147006123650AE
:1058E300D2E5F0EEFAEFFB122427A90A740212099B
:1058F300207F07020621F8A3E0F912590122EE12D4
:1059030058553FF58322F583E0FCA3E0FD2274F6AE
:1059130012040974F71209B8EAFEEBFF7801EE24CA
:105923003212466D60027805124537E81230327440
:105933000412598812128DEE242F12597012300E50
:10594300243112466D12599512090D7402120998E9
:1059530079031A1AEFFB1225417402120920E9F5A3
:10596300087007EEFAEFFB122427025EDDF582E4EE
:105973003FF583122E87EE12597E222402F8E43F6C
:10598300F9E8FAE922F0EE2426FCE43FFDAA10AB85
:10599300112288828983124DF104F078082274F26F
:1059A3001204098A088B09ECFEEDFF8A828B83744B
:1059B30005F0EE243212466D8A828B83A3A3F0EAAC
:1059C3002403F50AE43509F50B850A82F583E0F52E
:1059D3000CA3E0F50DEE2425F582E43FF583120BCD
:1059E300D3E50C12582B350DF583120BDF125B92A6
:1059F300AA0CAB0D12128D850A82850B83125FA54B
:105A0300FAA3E0FB88828983A3A3A3126957EE2438
:105A13002F12466DC0E0125B9AD0E0125BD12415C1
:105A2300F582E438F583E4125BD1124491E4125B0E
:105A3300C4850A82850B83E02416FAA3E03400FBB5
:105A43001225598E828F83A3A3A3A3A3A3A3E0C08C
:105A5300E0850A82850B83125BB7240DF582E43857
:105A6300F583D0E0125BBBFAA3E0FB850A82850BCA
:105A730083125E55E8240BFCE439FD8A828B83E0B4
:105A83008C828D83F0A3E4125BE4E0F50B8C828DB2
:105A930083A3E0450B125BE4A3E0FCEA2403FA5082
:105AA300010BECA2E7E433C0E0E8240FF582E4390C
:105AB300F583D0E0F074075C60047801800278001D
:105AC30075F00374075CA428F8EA28FAE43BFBE5C5
:105AD300082405F8E43509F98A828B83E0888289F2
:105AE30083125BE4AA82AB838508828509831269EA
:105AF3005788828983E0F50A25E0540EFCE50AC441
:105B0300540FF50A750B007403780A120AD1E50ADB
:105B13005438F8EC28F8EA28F8E43BF9850882853C
:105B23000983A3A3A3A3A3A3A3A3A3E8F0A3E912B5
:105B33004DEDFA8E828F83A3A3E02AFAA3E034000B
