:020000040000FA
:10000000021305022003FFFFFFFFFF02200BFFFF8B
:10001000FFFFFF020E67FFFFFFFFFF02201BFFFF36
:10002000FFFFFF022023FFFFFFFFFF02202BFFFF48
:10003000FFFFFF022033FFFFFFFFFF020EAAFFFFBB
:10004000FFFFFF022043FFFFFFFFFF02204BFFFFE8
:10005000FFFFFF022053FFFFFFFFFF02205BFFFFB8
:10006000FFFFFF022063FFFFFFFFFF02206BFFFF88
:10007000FFFFFF022073FFFFFFFFFF02207BFFFF58
:10008000FFFFFF022083FFFFFFFFFF02208BFFFF28
:10009000FFFF70DFFFFF040000000002000000C847
:1000A0000300030369A5020269A501000000000026
:1000B00004003273000074F812104C900393E06057
:1000C0001590030274FEF0900304744DF0A37405C0
:1000D000F07A0112068C7F0102116974F712104C3C
:1000E00074FF1212717E00801F851882851983E0CB
:1000F00064FE70069003877401F085188285198369
:10010000E0F8900384E068F07C017D00AA18AB1948
:10011000120E228B09EA450970030201F385188249
:10012000851983E064EF70027E07E0C0E0900387EA
:10013000E0FA900385E0F8EA28F8E43400F9740264
:1001400028F582740339F583D0E0F0900387E060EE
:100150009814600E14602C14603C14605214606893
:100160008098900384E4F0851882851983E09003D9
:1001700086F0C394809003874004E40200F974027F
:100180000200F9851882851983E0900382F09003BC
:100190008774030200F9851882851983E090038330
:1001A000F0900386E0601990038774040200F990D0
:1001B0000385E004F0F8900386E06860030200FA2B
:1001C00090038774050200F9900385E4F09003879B
:1001D000F0900384E0F8851882851983E068600355
:1001E0000200FA900382E0644D60030200FA1203F9
:1001F000288002EEF9740112123D7F020211697427
:10020000F712104C74FB121271EAFEEBFF75080432
:1002100075090078081212D574021212EE7A907BDA
:10022000007904120ECB740212123D12067E1213D4
:100230003FE0687003A3E069701285188285198316
:10024000E0F47003A3E0F4600302030874041212E4
:10025000E61206E48A088B09A808A9097402121399
:100260003FE8F0A3E9F0740412133FE0600879015D
:100270001200B6020321851882851983E068700395
:10028000A3E0697076851882851983E0F47003A372
:10029000E0F47019740212133F7410F0A37420F08C
:1002A0008518828519837410F0A37420F0750801F5
:1002B00075090078081212D574021212EE7A247BA6
:1002C00008120F4F740212123D75080478081212BA
:1002D000D574021212EE7A907B007904120ECB7460
:1002E0000212123D12067E12133FE0687003A3E073
:1002F000697004790280067904800279031200B6DD
:100300008E828F83741E80058E828F83E4F01206A6
:100310007E12133FE0687003A3E0697004790180E6
:1003200002790074050201F774E912104C74F81296
:100330001271900307E0FA900306E0F9FEEAFCE48C
:10034000CCFDEE2CED3408FF751001750F00750E15
:10035000068E088F097402780812129CC39508FC57
:10036000E49509FD74022CF51474033DF515E514AC
:100370002497F516E5153420F517EE2410F508E45A
:100380003FF509EEF50CEF5401F50D8E128F137445
:100390000978121212F685120A900383E01460574E
:1003A00014700302046F1470030204E61460102436
:1003B000FE70030205A11470030206510206617566
:1003C0000E03794E120C619003071206747402F04A
:1003D000A374401206727408120672F0A3F0741827
:1003E000C3940704F510AA10A90F12068CA90E7465
:1003F0000812123D02083E750E04794E120C61EE91
:10040000450D7005A90A120FB5C3EE9425EF9408A7
:10041000503FC3E5089424E50994084034E51424CA
:1004200096F8E5153420F988828983E0701E8516D8
:1004300082851783E070159003887401F0888289A3
:100440008374A5F08516828517838004900388E461
:10045000F075081075090078081212D57C087D0324
:10046000EEFAEFFB120F4F740212123D0203E67513
:100470000E05C3E50A947995E04006750F01020365
:10048000E675104075110078101212D57C097D03B5
:100490007402780C12129CAA0CAB0DA90A120ECB96
:1004A000740212123D900307E0A3F0900306E0A34C
:1004B000F0751043C3EE9425EF940840030203E661
:1004C000C3E5089424E509940850030203E6900369
:1004D00088E070030203E6A816A91788828983E4DE
:1004E000F0A3F00203E675080475090078081212FB
:1004F000D574021212EE7A907B007904120ECB743E
:100500000212123D740212133FE0F8A3E0F98518BD
:1005100082851983E0687003A3E0698518828519D4
:1005200083700BE0F47003A3E0F470578009E0F4EB
:100530007003A3E0F4700D8518828519837410F0A0
:10054000A37420F012067E12133FE8F0A3E9F075C1
:10055000080178081212D574021212EE7A247B0870
:10056000120F4F740212123D75080478081212D54A
:1005700074021212EE7A907B007904120ECB740290
:1005800012123D12067E12133FE0687003A3E06969
:100590007006750E010203E6750E02750F07020361
:1005A000E6900391E06007640260030203E6EAFF5D
:1005B0007A01790012068CE060030206458003127E
:1005C0000D22120D2CE970F7740412133F12066607
:1005D000740412133F780812132385080C85090D43
:1005E000850A0E850B0F9005A2780C1212C27404B6
:1005F00012133F780C121314E5084509450A450B00
:1006000070CE8EC2E5C554E04FF5C5740412133F99
:10061000120666740412133F780812132385080C1F
:1006200085090D850A0E850B0F9005A2780C121214
:10063000C2740412133F780C121314E508450945DF
:100640000A450B70CE7A01790012068C79080203F4
:10065000EFE9900393F070030203E6750E090203BD
:10066000E679060203EFE4F0A37426F0A3E4F0A316
:10067000F022F0A3E4F0A3F0A3F0A3F0A3228518E6
:1006800082851983E0F8A3E0F974022274F812104D
:100690004CEAFE900305E0D2E7F0E9A3F0EE900308
:1006A00003F08E0874042AFE7C028004E062080CC9
:1006B000ECFA3395E0FB74022AF58274033BF58370
:1006C000EEF8C3EA98EB9400A2D265D03340DDE5A2
:1006D00008F074012A0C3395E0FD7A027B03120EB8
:1006E000520200D674E912104C7582007583FE1216
:1006F00012048A168B177514007515008A828B8375
:10070000E4F0900391E07006D2AAD2AF80046402B4
:10071000700579001200B6750C00750D20750E007D
:10072000750F00900391E0600464027015120D22B1
:100730001200DBE9F87409686003020814790012FA
:1007400000B675080075090278081212D5740212F5
:1007500012EE850C08850D09AA08E5095407FB85EA
:100760000E0A850F0B740B7808121258A908120E86
:10077000CB740212123D7E007F009005AAC0828ECB
:1007800010EFF5113395E0F512F513850C08850D82
:1007900009850E0A850F0B780879101212AF9005A3
:1007A000A678081212C2758305D08278081211E566
:1007B000501D851882851983E5822EF582E5833FD9
:1007C000F583E0F9AA14AB151208438A148B150EB1
:1007D000EE70010FC3EF940240A09005AE780C12AA
:1007E00012C29005B2780C1211E54003020723797A
:1007F00000AA14AB1512084379001208438B159018
:100800000391E07004C2AFC2AAEA451570277AA529
:100810007BA58021E870030207427406687003021A
:1008200007427407687003020742851682851783A2
:100830007401F080BA7582007583021212047F1071
:10084000021169C008C0097C088A088B09740F78F6
:10085000081212F6E508F8EA25E0FAEB33FBE9A204
:10086000E7500474014AFAE8A2E0500874216AFAD9
:1008700074106BFBE9C333F91CEC70CDD009D008C0
:100880002274F812104C78007900802274942EF5AE
:1008900082E43403F583E08A828B83F0900414129F
:1008A0000A014005900414E4F008E870010990047E
:1008B00014E0FEA3E06E6007C3E89CE99D40CDE82C
:1008C000FAE9FB7F0102116974F712104C90049849
:1008D000E0F509A3E0F508F8E509C398F895E0F913
:1008E000E508C39509E8500B120AE3701178007906
:1008F00000801B247F500109C39CE99D50EF7A00C2
:100900007B008041E004F0D2E908E8700109C3E807
:100910009CE99D502C8A828B83E0C0E0900499E092
:10092000FE74182EF582E43404F583D0E0120AD365
:1009300090049AE4F0900499E0C3947F40C6E48068
:10094000C5E8FAE9FB7F02021169C082C083C2E9EF
:10095000900498E0F8A3E0686017741828F582E422
:100960003404F583E0F5C1900498120AFA4002E4D9
:10097000F0020D4074F812104C7800790090051DBB
:10098000E07055A3E0705175F900C28FC284A28354
:1009900040FCA28F4004A28350F8AEF9C28FA2831C
:1009A0005004D2848032EEC0E0E0FE1209F6D0E0BE
:1009B000F090051E120AFA40D9E4F080D51209F62B
:1009C000E08A828B83F090051D120A014005900594
:1009D0001DE4F008E870010990051DE0FEA3E06E3B
:1009E0006007C3E89CE99D40D4E8497006E4F090B4
:1009F000051DF00208BF749D2EF582E43404F583D2
:100A000022E004120AD7C394802274F812104C908A
:100A100005A0E0FEF890059FE0FFEEC39FE0500DBB
:100A2000C398F895E0F9120AE270188012C398F89A
:100A300095E0F9E8247F500109C39CE99D4004EC4E
:100A40004D70077A007B00020AD08A828B83E0F522
:100A5000F9A3AA82AB83780179008008E004F0084A
:100A6000E8700109C3E89CE99D50278A828B83E0E6
:100A7000C0E09005A0E0FE741F2EF582E43405F579
:100A800083D0E0120AD39005A0E0C3947F40CDE468
:100A900080CCC28FA28340FCC284A28F4004A28378
:100AA00050F890059F120AEDE0F5F9C28F90059F6E
:100AB000E0FAA3E06A90059F7005120AED80051226
:100AC0000AFA4002E4F0A28350D0D284E8FAE9FBAB
:100AD0000208C3120AD722F08A828B83A3AA82ABB0
:100AE0008322E824FF18E934FFF9E84922E0FA7488
:100AF0001F2AF582E43405F58322E004F0C39480D4
:100B00002274FB121271C2009005CA7808121323D6
:100B10009005CA7401F0A3F0A37469F0A374A5F062
:100B20009005B678081212877004D20080159005DF
:100B3000BA78081212876008E59D54186410700393
:100B4000022000120C87A2005003020C04AA18AB6A
:100B5000191201FFE97003020C04851882851983BC
:100B6000E0C3943C500CE0F8743CC398FA95E0FB69
:100B700080047A007B00120D45E97003020C04909A
:100B80000391E06401700C75F800C2AB539AF7D280
:100B9000EA805E79071200B68003120D22120D2C36
:100BA000E970F7740112133FE4F0A37426F0A3E494
:100BB000F0A3F0740112133F780812132385080C78
:100BC00085090D850A0E850B0F9005A2780C12126F
:100BD000C2740112133F780C121314E5084509453D
:100BE0000A450B70CE758600C2AAC28B539AFBC20F
:100BF000E990000174CDF0022000C2AF75C9AB7559
:100C0000C95B80FE750800750900750A00750B0048
:100C1000900391E0701BD2AAD2AF79051200B6E022
:100C20007003120D221200DBE9F874096870098064
:100C3000E9794E120C6180ED74016870E2E0701782
:100C4000120D229005BE78081212C29005C27808D3
:100C50001211E550EBC2AAC2AF75C9AB75C95B8072
:100C6000FEC082C08378109005A1E0C3995015752D
:100C7000B60FE5B4A2E750FAE5BBC39940F118E816
:100C800070EDE9F0020D40C082C08353BEFBE59DCC
:100C9000A2E650FA0078F8790100120AE270FA75BB
:100CA000C6807480659E70FA43BE049062707408BA
:100CB000F0794A120C6190000174F5F07403F5D5D7
:100CC00075D489A2A0E433900391F0A2E05029D218
:100CD0008453F3F753F3EF53FDF743FD10538FF7AE
:100CE00053F7DF43FC2043F10253F5DF75F820434F
:100CF000F4F0D2FED2AB802853FF3F85FFFF53F1C3
:100D0000FE43F30C53F2F375868075C48090049B08
:100D1000E4F0A3F075C2D875C50B75C402438640D4
:100D2000801E800312094AA2E940F922C082C083D2
:100D3000900498E0F8A3E0686004790180027900EB
:100D4000D083D0822274F112104C74FF1212717E83
:100D500000900391E06401706CC28490039274016E
:100D6000F07508388E098E0A8E0B7C017D00AA185A
:100D7000AB19120E228B0DEA450D6018851882857D
:100D80001983E06410602DE064EF70088E088E090E
:100D90008E0A8E0B85080C85090D850A0E850B0FB2
:100DA0009005A278081212C2E50C450D450E450FBC
:100DB00070347E01900391E064017056D2849003F8
:100DC00092E4F08051D2AAD2AF8A088B09E4F50AE6
:100DD000F50B9005C6780C1213237808790C120FC6
:100DE000CC79061200B6900391E06003020D6A12FE
:100DF0000D221200DBE9F874096870077906120009
:100E0000B680917407686084E8608974066870A48D
:100E10008082C2AFC2AAEEF9740112123D7F0802AD
:100E20001169C082C083900391E07005120881802F
:100E30001E900392E06015A28F500BE5F98A828B19
:100E400083F07A0180027A007B0080031209740229
:100E50000D40C082C083900391E070051208C880E5
:100E600003120A0A020D40C0E074F21210B29000A0
:100E700001E064CD7005122013802AE064F570242F
:100E8000E5C1C28BC0E0900415E0F8749428F582A7
:100E9000E43403F583D0E0F0900415120AFA40051B
:100EA000E4F08001007F01021111C0E074F2121021
:100EB000B2900001E064CD700512203B800BE0642D
:100EC000F5700512094A80010080DA74F612104CA0
:100ED000890A740F550AF508750900740B78081211
:100EE000129CEA2400F8EB3480F9E82400E9350983
:100EF000F985C709A2AFE433F508C2AFE50AC454C7
:100F00000FFAE5C754F84AF5C7740A12133FE0FA1E
:100F1000A3E0FB801C88828983E08C828D83F0882B
:100F2000828983A3A882A9838C828D83A3AC82AD9E
:100F300083EAFEEBFFEE24FF1AEF34FFFBEE4F7067
:100F4000D48509C7E508A2E092AF7F030211697456
:100F5000F712104CED900389F0ECA3F0A37462F04B
:100F6000A37473F0A3E0541FF0740912133FE0F56B
:100F700008A3E0F509E508333354FC90038EF074C0
:100F80000678081212F6E50890038DF090038F742E
:100F900012F0A37442F075D1FE75D601EA90627129
:100FA000F0EBA3F0906270E0D2E1F0E0A2E740FB4A
:100FB0007F02021169C082C083E9C333906272F07C
:100FC000906270E0D2E0F0D083D08222080808EA74
:100FD000C0E0EBC0E086F0E7A4FA180986F0E7A4C9
:100FE0002AFA180986F0E7A42AFA180986F0E7A475
:100FF0002AFA1986F0E7A4FBE5F02AFA190886F028
:10100000E7A42BFBE5F03AFA190886F0E7A42BFBDE
:10101000E5F03AFA18180986F0E7A4C5F02BFBE4CE
:101020003AFA1908E7C5F0C6A426F6E5F03BFBE45A
:101030003AFA1886F0E7A4F6E5F00826F6E43B084D
:10104000F6E43A08F6D0E0FBD0E0FA222518C58293
:10105000C0E0E51934FFC583C0E0E518C3958224DC
:10106000F910AF0885831985821880088583198552
:101070008218D2AFCEF0A3E520F0A37808E608F0FE
:10108000A3DEFAEFF0A3E58124FBF8E608F0A3E67F
:1010900008F0A30808E608F0A3E608F0A3158115F8
:1010A00081D0E0FED0E0F815811581E8C0E0EEC007
:1010B000E022C0D02518C582C0E0E51934FFC58301
:1010C000C0E0E518C3958224F310AF088583198525
:1010D00082188008858319858218D2AFC8F0A3E9E9
:1010E000F0A3EAF0A3EBF0A37908E709F0A3D8FA9C
:1010F000ECF0A3EDF0A3EEF0A3EFF0A3D0E0F0A3AB
:10110000D0E0F0A3D0E0F0A3E520F0A3E5F0F0A359
:1011100022851983851882E0C0E0A3E0F9A3E0FAF4
:10112000A3E0FBA37808E0F608A3DFFAE0FCA3E065
:10113000FDA3E0FEA3E0FFA3E0C0E0A3E0C0E0A3C6
:10114000E0F5D0A3E0F520A3E0A3F5F010AF08850B
:1011500083198582188008858319858218D2AFD0BB
:1011600082D083D0E0F8D0E032851983851882E000
:10117000A3FEE0A3F5207808E0A3F608DFFAE0A3D9
:10118000FFE0A3C0E0E0A3C0E0E0A3C0E0E0A3C0B4
:10119000E010AF088582188583198008858218853C
:1011A0008319D2AFD083D08222E490030278A17950
:1011B000038002F0A3D8FCD9FA7AA27B0590008EB6
:1011C000782979018015E493A3AD82AE838A828B5E
:1011D00083F0A3AA82AB838D828E83D8E9D9E712EC
:1011E0000B01121349C008C3E096F50808A3E09666
:1011F000420808A3E096420808A3E096450870015B
:10120000D3D00822C5822518C582C583351910AFF1
:1012100007F5198582188007F519858218D2AFC5A0
:1012200083222518F58210AF08F518400C15198097
:1012300008F51840021519D2AF8519832200C0D0D5
:10124000251810AF08F518500C05198008F518502E
:10125000020519D2AFD0D0226016080808C6C31301
:10126000C618C613C618C613C618C613C6D5E0EAF4
:1012700022251810AF08F518400C15198008F5182C
:1012800040021519D2AF22E066701008A3E0667024
:101290000A08A3E066700408A3E0662270042260D6
:1012A0000D18C6C333C608C633C6D5E0F41822E607
:1012B00027F60809E637F60809E637F60809E6379B
:1012C000F622E026F608A3E036F608A3E036F60894
:1012D000A3E036F62274028000C0E0F40412122269
:1012E000D0E0121332222518FAE43519FB22251812
:1012F000FCE43519FD22600C08C6C313C618C613DA
:10130000C6D5E0F42275D00075813F7518027519B5
:10131000030211A9E6F008A3E6F008A3E6F008A38B
:10132000E6F022E0F608A3E0F608A3E0F608A3E062
:10133000F622CAC0E0E6F0A308DAFAD0E0FA2225E5
:1013400018F582E43519F5832200000080FBFFFFC9
:10135000FFFFFFFFFFFFFFFFFFFFFFFFFFFFFFFF9D
:10136000FFFFFFFFFFFFFFFFFFFFFFFFFFFFFFFF8D
:10137000FFFFFFFFFFFFFFFFFFFFFFFFFFFFFFFF7D
:10138000FFFFFFFFFFFFFFFFFFFFFFFFFFFFFFFF6D
:0A1FF600CA05094338860000000008
:020000040003F7
:01FFF000F020
:020000040000FA
:10200000022C7A022219FFFFFFFFFFFFFFFFFFFFF5
:10201000FFFFFFFFFFFFFFFFFFFFFFFFFFFFFFFFD0
:10202000FFFFFFFFFFFFFFFFFFFFFF022A06FFFF8B
:10203000FFFFFFFFFFFFFFFFFFFFFFFFFFFFFFFFB0
:10204000FFFFFF022775FFFFFFFFFFFFFFFFFFFFFF
:10205000FFFFFF022153FFFFFFFFFFFFFFFFFFFF17
:10206000FFFFFFFFFFFFFFFFFFFFFF022920FFFF32
:10207000FFFFFFFFFFFFFFFFFFFFFFFFFFFFFFFF70
:10208000FFFFFF0221AA01FFFFFFFFFFFFFFFFFF8E
:10209000102010200100F8FE0700000100FFFF00E3
:1020A00000030400000F0100000300019651180016
:1020B000020000E331000000005F316132B3312BD8
:1020C000320000893100000000000000000000958F
:1020D0003100000000000000000000A13106FFFFF9
:1020E000FF010400000618000000E8030000FFFFE5
:1020F000D618018813000003E803000064006400A0
:10210000B801A0BB0D00A0BB0D0002020207040134
:102110000101051E02051E020A0A01010809080143
:1021200003B80B02803E0102FEFFE8030A0500012E
:10213000FFFF0A011401E00105030101FF0F10FE7A
:10214000FF504E00000000864D00000000FF000020
:1021500000FF00C0E074F2122595A2AFE433F50849
:10216000D2AFAFA7AEA1EE5F54106006122EDD75A0
:10217000A1EFEE5F54086008122EE375A1F78023EB
:10218000EEA2E092F0EFA2E082F05017906198E0AA
:10219000F890093BE0C398A2D265D0335002E8F032
:1021A00075A1FE751A00E5088066C0E074F212257C
:1021B00095A2AFE433FED2AF9061A4E0F8759B0026
:1021C000E59158540860087591F7122F318023E586
:1021D0009158541060087591EF122F378014E591D3
:1021E000A2E092F0E8A2E082F05007E0C2E0F01234
:1021F000308D9061A3E0F8E5E9585404600E123088
:102200006375E9FB906193E0A2E640F2751A00EE77
:10221000A2E092AF7F010225F4C0E074F21225958E
:10222000A2AFE433FED2AF9061A5E0F8E5BF585409
:1022300004600675BFFB1230A580D1C3E498F8E4B2
:1022400099F912227C8026C3E49AFAE49BFBE920E8
:10225000E7E912227CE498F8E499F922C3E498F8BB
:10226000E499F912227CE498F8E499F9C3E49AFA23
:10227000E49BFB22EB20E7CFE920E7E0B90010BBAD
:102280000008E88AF084F8AAF022E4FBC8FA22EBFE
:1022900070227B10C833C8C933C9335007C39AC3EF
:1022A000DBF280069A50012ADBEAC833F4C8C9334E
:1022B000F4C9FA2275F008E4C833C8C933C933C970
:1022C0009AC99B5004C92AC93BD5F0ECFBC833F42A
:1022D000C8E4C9FA2274F512252F74FA122AED7592
:1022E00008047509007808122A467404122AB77A7D
:1022F000F87B077903122DB77402122A59908107CF
:102300007808122CA87402122CFF7808122B18706F
:10231000497508027509007808122A467402122AC3
:10232000B77AF67B077903122DB77402122A598502
:102330001882851983E0F47003A3E0F4601C85180B
:1023400082851983E0F8A3E0F9888289837402F01A
:10235000A3F0A37469F0A374A5F0C2AF75D69F0271
:1023600000007406122A597F040227B8080808EAF8
:10237000C0E0EBC0E086F0E7A4FA180986F0E7A415
:102380002AFA180986F0E7A42AFA180986F0E7A4C1
:102390002AFA1986F0E7A4FBE5F02AFA190886F074
:1023A000E7A42BFBE5F03AFA190886F0E7A42BFB2B
:1023B000E5F03AFA18180986F0E7A4C5F02BFBE41B
:1023C0003AFA1908E7C5F0C6A426F6E5F03BFBE4A7
:1023D0003AFA1886F0E7A4F6E5F00826F6E43B089A
:1023E000F6E43A08F6D0E0FBD0E0FA22E4CFC0E011
:1023F000E4CEC0E0E4CDC0E0E4CCC0E075F020E67F
:1024000026F608E633F608E633F608E633F618183B
:1024100018EC33FCED33FDEE33FEEF33FFC3EC97E6
:1024200009ED9709EE9709EF97191919400FFFEC7D
:1024300097FC09ED97FD09EE97FE191906D5F0BF37
:10244000ECF709EDF709EEF709EFF7191919D0E0E4
:10245000FCD0E0FDD0E0FED0E0FF222518C582C010
:10246000E0E51934FFC583C0E0E518C3958224F880
:1024700010AF0885831985821880088583198582A5
:1024800018D2AFCEF0A3E520F0A37808E608F0A3B9
:10249000DEFAEFF0A3E58124FAF8E608F0A3E608F7
:1024A000F0A3E608F0A30808E608F0A3E608F0A306
:1024B00015811581D0E0FED0E0F8158115811581D8
:1024C000E8C0E0EEC0E022122CF4B90003022519A6
:1024D000E49004D1780D791A8002F0A3D8FCD9FADF
:1024E000781A9020867A01BA00028007E493A3F656
:1024F00008DAF97ADD7B1D90209478C07901801587
:10250000E493A3AD82AE838A828B83F0A3AA82ABCD
:10251000838D828E83D8E9D9E77582E875839874B4
:10252000071229E875828175834B74001229E8250A
:1025300018C582C0E0E51934FFC583C0E0E518C3C3
:10254000958224F910AF0885831985821880088543
:102550008319858218D2AFCEF0A3E520F0A37808C6
:10256000E608F0A3DEFAEFF0A3E58124FBF8E60825
:10257000F0A3E608F0A30808E608F0A3E608F0A335
:1025800015811581D0E0FED0E0F815811581E8C0F5
:10259000E0EEC0E022C0D02518C582C0E0E51934C5
:1025A000FFC583C0E0E518C3958224F310AF08850A
:1025B00083198582188008858319858218D2AFC84F
:1025C000F0A3E9F0A3EAF0A3EBF0A37908E709F0A0
:1025D000A3D8FAECF0A3EDF0A3EEF0A3EFF0A3D0B4
:1025E000E0F0A3D0E0F0A3D0E0F0A3E520F0A3E575
:1025F000F0F0A322851983851882E0C0E0A3E0F9FA
:10260000A3E0FAA3E0FBA37808E0F608A3DFFAE072
:10261000FCA3E0FDA3E0FEA3E0FFA3E0C0E0A3E095
:10262000C0E0A3E0F5D0A3E0F520A3E0A3F5F0100F
:10263000AF088583198582188008858319858218DB
:10264000D2AFD082D083D0E0F8D0E03275F0108ED7
:10265000218F22858226858325851882851983E02E
:10266000CEA3E0CF852682852583EBC9EAC8EDCBD2
:10267000ECCAC3E833C8E933C9EA33CAEB33CBC386
:10268000EA9EF524EB9FF523B35004AB23AA24EC78
:1026900033CCED33CDD5F0DAAE21AF2222D083D0CA
:1026A00082ECC0E0EDC0E0E493A3FCE493A3FDED75
:1026B0004C600D1227F8EC24FFFCED34FFFD80EF99
:1026C000E493A3FCE493A3FDED4C600D1228CBEC46
:1026D00024FFFCED34FFFD80EFD0E0FDD0E0FCE412
:1026E00093A3C0E0E493C0E022851983851882E0BB
:1026F000A3FEE0A3F5207808E0A3F608DFFAE0A344
:10270000FFE0A3C0E0E0A3C0E0E0A3C0E0E0A3C01E
:10271000E0E0A3C0E010AF08858218858319800827
:10272000858218858319D2AFD083D0820229EED05A
:1027300083D082E9C0E0E493A3C386F0C5F095F0AE
:10274000F908E493A386F0C5F095F0700BE493A329
:10275000C3994005E9048002A3E475F002A4258230
:10276000F582E5F03583F583D0E0F9E493A3C0E08A
:10277000E493C0E022C0E074F2122595A2AFE433E6
:10278000FED2AFC2C0901A88E0700BE5D1A2E4502F
:102790001D122E3B8018E5D1A2E3500675D1F71229
:1027A0002E11E5D1A2E4500675D1EF122E17EEA23C
:1027B000E092AF7F010225F4851983851882E0A39A
:1027C000FEE0A3F5207808E0A3F608DFFAE0A3FF17
:1027D000E0A3C0E0E0A3C0E0E0A3C0E0E0A3C0E06D
:1027E00010AF088582188583198008858218858333
:1027F00019D2AFD083D08222C0E0C3E4939608748C
:1028000001939618400FE49366700808740193666C
:102810001870007019A3A3C3E493960874019396EB
:1028200018A3A3400DD0E0D0E0D0E00226D9A3A3A6
:10283000A3A3A3A3D0E022D083D082C5F0E493A3C6
:10284000C5F0C395F0F5F0E493A3C395F04005E51A
:10285000F0048001E475F002A42582F582E5F035EC
:1028600083F583E493A3C0E0E493C0E02274048082
:102870000474028000CCC0E0EDC0E0E518C39CCC3D
:10288000AD1950011D10AF068C188D1980068C18DB
:102890008D19D2AF12296AD0E0FDD0E0FC2274027B
:1028A0008000CCC0E0EDC0E0E518C39CCCAD195071
:1028B000011D10AF068C188D1980068C188D19D249
:1028C000AF122948D0E0FDD0E0FC22C0E0C0F08883
:1028D000F0E4936670080874019366187000A8F01D
:1028E000A3A3700BD0F0D0E0D0E0D0E00226D9A3B3
:1028F000A3D0F0D0E022D083D082CCC0E0E493A378
:1029000060061229AA1470FAE493A36006122AD76B
:102910001470FAD0E0FCE493A3C0E0E493C0E0229A
:10292000C0E074F2122595758900C2C5901A88E03E
:10293000700E7A007B109009D1E0F912338D80037C
:10294000123C2D7F010225F4CAC0E0E493A3C582A6
:10295000CCC582C583CDC583F0A3C582CCC582C555
:1029600083CDC583DAE5D0E0CA22CAC0E0E0A3C5C2
:1029700082CCC582C583CDC583F0A3C582CCC58278
:10298000C583CDC583DAE6D0E0CA22C008C3E0968D
:10299000F50808A3E096420808A3E096420808A3B9
:1029A000E09645087001D3D00822C0E0E493A3D399
:1029B0009C5010E493A3C39C400AD0E0D0E0D0E048
:1029C000022913A3A3A3D0E02270090808082260FB
:1029D00016181818C6C333C608C633C608C633C689
:1029E00008C633C6D5E0EA22C09FF59FE473D09FA6
:1029F00022D083D082C09FE493C0E0740193C0E0F2
:102A0000740293F59F22C0E0C0D0E8C0E0A8A8D22D
:102A1000AFC2C7751A00E8A2E792AFD0E0F8D0D0F5
:102A2000D0E0322518F58210AF08F518400C1519C2
:102A30008008F51840021519D2AF85198322740455
:102A4000800A74038006740280027401C0E0F404FA
:102A5000122A23D0E0122CB72200C0D0251810AFC4
:102A600008F518500C05198008F51850020519D200
:102A7000AFD0D022BB0102E722C082C08389828A04
:102A800083BB0003E08002E493D083D082226016EF
:102A9000080808C6C313C618C613C618C613C61836
:102AA000C613C6D5E0EA222518F8E43519F922251F
:102AB00018FAE43519FB222518FCE43519FD22C368
:102AC000E0C696F608A3E0C696F608A3E0C696F61A
:102AD00008A3E0C696F622C0E0E493A36C7009D088
:102AE000E0D0E0D0E0022913A3A3D0E02225181003
:102AF000AF08F518400C15198008F5184002151993
:102B0000D2AF22E76670100809E766700A0809E785
:102B10006670040809E76622E066701008A3E066A4
:102B2000700A08A3E066700408A3E06622C3E0967A
:102B300008A3E09608A3E09608A3E096A2D265D089
:102B40003322C3E096F008A3E096F008A3E096F0E5
:102B500008A3E096F022C3E697F60809E697F60880
:102B600009E697F60809E697F622C3E493960874F7
:102B70000193960874029396087403939622E627AD
:102B8000F60809E637F60809E637F60809E637F6E3
:102B900022E026F608A3E036F608A3E036F608A3FE
:102BA000E036F622E493F608740193F60874029373
:102BB000F608740393F622E647F60809E647F60896
:102BC00009E647F60809E647F622E657F60809E659
:102BD00057F60809E657F60809E657F622E056F6D2
:102BE00008A3E056F608A3E056F608A3E056F6223E
:102BF000E056F008A3E056F008A3E056F008A3E082
:102C000056F022E026F008A3E036F008A3E036F004
:102C100008A3E036F022700422600D18C6C333C644
:102C200008C633C6D5E0F41822E4C396F608E49645
:102C3000F608E496F608E496F622C6F4C608C6F44A
:102C4000C608C6F4C608C6F4C622600D08C6A2E7C8
:102C500013C618C613C6D5E0F322C3E7960809E7E2
:102C6000960809E7960809E79622C3E09608A3E0CC
:102C70009608A3E09608A3E0962275D00075813FE0
:102C80007518D1751904000224C7600C08C6C31357
:102C9000C618C613C6D5E0F422E6F008A3E6F0088D
:102CA000A3E6F008A3E6F022E0F608A3E0F608A306
:102CB000E0F608A3E0F622CAC0E0E6F0A308DAFADC
:102CC000D0E0FA22EAF0A3EBF0A3ECF0A3EDF022BF
:102CD000E0FAA3E0FBA3E0FCA3E0FD22E0F8A3E020
:102CE000F9A3E0FAA3E0FB22E8F0A3E9F0A3EAF0FD
:102CF000A3EBF022E5C754F84401F5C7790122257A
:102D000018F582E43519F583221229F129D8051224
:102D100029F16ED8051229F1FED8051229F156D9EC
:102D2000051229F132DA051229F117DB051229F112
:102D30005CDB051229F1BDDB051229F13FDC051230
:102D400029F179DC051229F1D1DC051229F1F3DC36
:102D5000051229F18BDD051229F132DE051229F168
:102D600085DE051229F1B1DE051229F1F2DE051228
:102D700029F19FE0051229F183E1051229F134E2DE
:102D8000051229F18BA1071229F19CA1071229F143
:102D90003AA2071229F1F9FF011229F1EDA5071254
:102DA00029F154A2071229F164A2071229F179A28C
:102DB000071229F10AA3071229F1999F071229F195
:102DC0001DA0071229F185A0071229F1FCFF0112AD
:102DD00029F1DBFF021229F1EBFF021229F1EEFFCC
:102DE000021229F1F1FF021229F1F87F001229F1F4
:102DF000D496071229F1F696071229F16198071265
:102E000029F1E598071229F1C4A5071229F1CDA5EA
:102E1000071229F1D6A5071229F1E4A5071229F115
:102E2000BAC5061229F126C6061229F1EEC6061207
:102E300029F1CFC7061229F1D0C9061229F137CAE4
:102E4000061229F18ACA061229F19BCA061229F133
:102E5000ABCA061229F11DCB061229F133CB06129B
:102E600029F13ECB061229F14CCB061229F15ECB9B
:102E7000061229F171CB061229F19DCB061229F118
:102E800045CE061229F19CCE061229F1D8CE0612A3
:102E900029F1ECCE061229F105CF061229F1F6CF61
:102EA000061229F1D2D0061229F1E6D0061229F134
:102EB00082FE061229F1A6FE061229F1BFFE0612B5
:102EC00029F1FDFE061229F12DFF061229F15AFF04
:102ED000061229F164FF061229F1CAFF061229F130
:102EE000CDFF061229F1D7FF061229F1E4FF0612E1
:102EF00029F14DFD031229F16DFD031229F1ACFDFD
:102F0000031229F1CAFD031229F1E5FD031229F18B
:102F10004BFE031229F157FE031229F1B4FE0312EE
:102F200029F1C3FE031229F1E7FE031229F1A8FFDC
:102F3000031229F1B5FF031229F1C6FF031229F18B
:102F400074FF011229F18CFF011229F1B8FF01125F
:102F500029F163D6061229F1BDD7061229F1CBD784
:102F6000061229F1DED7061229F1F3D7061229F14C
:102F700008D8061229F11BD8061229F197D8061293
:102F800029F1FCD8061229F184D9061229F1FCD9BD
:102F9000061229F1D5DA061229F1E5DA061229F12D
:102FA000F4DA061229F12BA5071229F14FA5071211
:102FB00029F177A5071229F19FA5071229F1438D61
:102FC000071229F16A8D071229F1898D071229F15B
:102FD000ED8D071229F1798A071229F1928A0712D9
:102FE00029F19E8A071229F1B28A071229F1D08AA3
:102FF000071229F1DA8A071229F1E48A071229F166
:10300000F78A071229F1848B071229F1F38B071233
:1030100029F1228C071229F1708C071229F1BF8C3B
:10302000071229F1DA8C071229F1E48C071229F131
:10303000F58C071229F1388D071229F184FF02124D
:1030400029F1CFFF021229F11AA5061229F146A58E
:10305000061229F163A5061229F176A5061229F1B7
:1030600091A5061229F1EBA5061229F119A606125F
:1030700029F11FAA061229F170AB061229F1A2ABA1
:10308000061229F104AC061229F17EAD061229F1CF
:10309000A6AD061229F1BBAD061229F1CBAD061281
:1030A00029F10BAE061229F14DAE061229F15DAEE3
:1030B000061229F12F9C071229F1499C071229F1C8
:1030C000719C071229F18A9C071229F1AE9C071204
:1030D00029F1CC9C071229F1E39C071229F1119DDB
:1030E000071229F12C9D071229F11AA3071229F1C1
:1030F00060A3071229F1CA83071229F1DA830712A4
:1031000029F1E184071229F11585071229F141857A
:10311000071229F16485071229F18285071229F126
:10312000BC85071229F12586071229F16786071247
:1031300029F1AE86071229F1DB86071229F10687ED
:10314000071229F1C2F2061229F124F3061229F11D
:10315000CBF3061229F102F4061229F121E305123C
:1031600029F1D0E3051229F103E6051229F1DAE885
:10317000051229F16CEA051229F1CEEA051229F1AE
:103180004EEE051229F196EF051229F1D57E0012B7
:1031900029F1207F001229F1E48F071229F107920B
:1031A000071229F1BFFC041229F1E3FC041229F1F2
:1031B0005AFE041229F1FAD0061229F1B9D30612E7
:1031C00029F156D4061229F182D4061229F1B0D47D
:1031D000061229F1E5D4061229F10DD5061229F1BE
:1031E0006DD5061229F1208D061229F116910612CD
:1031F00029F11493061229F14294061229F122951D
:10320000061229F1D096061229F18598061229F1A5
:103210005199061229F1A599061229F1599207121E
:1032200029F16392071229F18492071229F1D9F04A
:10323000051229F1F8F5051229F15DF7051229F1BA
:1032400039F9051229F136FA051229F166FB051242
:1032500029F17EFC051229F199FD051229F1008062
:10326000051229F13880051229F1098B051229F17F
:10327000068C051229F1588D051229F1B58E05121B
:1032800029F18E8F051229F15C90051229F14391E5
:10329000051229F13292051229F1DA92051229F16B
:1032A0000A93051229F1BC94051229F132950512F1
:1032B00029F14B95051229F1AC96051229F16A976F
:1032C000051229F10998051229F1B298051229F180
:1032D0002099051229F1BE99051229F1419A05128A
:1032E00029F1799A051229F1909B051229F15E9C2A
:1032F000051229F10F9D051229F15EFE051229F133
:1033000088FE051229F19DFF051229F1A0FF051283
:1033100029F1CEA3071229F121A4071229F163A4F0
:10332000071229F173A4071229F12CBF061229F103
:103330006ABF061229F1D3BF061229F1F2BF0612A5
:1033400029F10BC0061229F1BDC0061229F1C6C031
:10335000061229F117C1061229F14DC1061229F1F1
:1033600064C1061229F1D0C1061229F160C2061209
:1033700029F196C2061229F1DAC2061229F13BC3DD
:10338000061229F16DC3061229F1E0C3061229F1D4
:1033900034C4061229F171C4061229F1A8C4061218
:1033A00029F1BAC4061229F1CCC4061229F104C5C8
:1033B000061229F150C5061229F18EC5061229F10F
:1033C00025DB061229F165DC061229F188DC0612DC
:1033D00029F199DC061229F1B1DE061229F1D1DEBC
:1033E000061229F19994071229F1CD94071229F1B7
:1033F0001595071229F17196071229F154EB021263
:1034000029F192EC021229F1CEEC021229F19DEE83
:10341000021229F1C7EE021229F15EF1021229F11E
:103420009EF1021229F133F3021229F1C8F30212BC
:1034300029F126F4021229F1B9F4021229F1F3F468
:10344000021229F135F5021229F1A8F6021229F12A
:103450002CF8021229F151FA021229F17FFA021214
:1034600029F1ABFA021229F1B4FA021229F10AFB8E
:10347000021229F19AFB021229F19DFE021229F192
:103480001FFF021229F17DA4071229F193A407124C
:1034900029F19DA4071229F1F9A4071229F165EE7B
:1034A000061229F17BEE061229F120EF061229F10E
:1034B0005FEF061229F17CEF061229F1ADEF06123B
:1034C00029F1FAEF061229F12EF0061229F169F01E
:1034D000061229F145F2061229F1B0F2061229F17D
:1034E0005F9D071229F1BE9D071229F1189E071250
:1034F00029F1869E071229F1F89E071229F1369FBD
:10350000071229F1779F071229F10AB7061229F14C
:1035100010B7061229F158B7061229F164B906123C
:1035200029F194B9061229F100BA061229F1BDBA9F
:10353000061229F1FEBA061229F130BB061229F152
:10354000BABB061229F1D1BB061229F1DEBB061265
:1035500029F1E8BB061229F188BD061229F195BEB2
:10356000061229F1F3BE061229F18DAE061229F1D9
:10357000A3AE061229F155AF061229F17FB006124B
:1035800029F174B1061229F111B2061229F14CB2D7
:10359000061229F1BEB2061229F11CB3061229F156
:1035A0002CB3061229F153B3061229F1A5B3061262
:1035B00029F10EB5061229F113B5061229F135B518
:1035C000061229F130DD031229F162DD031229F11F
:1035D000F4DD031229F162DF031229F15AE003122C
:1035E00029F1CFE1031229F1EBE1031229F13AE2CB
:1035F000031229F1CCE2031229F127E3031229F186
:103600003AE3031229F1A4E3031229F113E40312AC
:1036100029F1BCE4031229F1B1E5031229F10CE60A
:10362000031229F192E6031229F1FEE8031229F1AF
:10363000D5E9031229F113EB031229F194EB0312DC
:1036400029F1D8EB031229F1A8EC031229F12FED8F
:10365000031229F171ED031229F190ED031229F102
:10366000DBED031229F1F1ED031229F1B4EE03129F
:1036700029F1DAEF031229F1E5EF031229F13AF00B
:10368000031229F18FF0031229F1E9F0031229F155
:10369000F1F1031229F1A0F4031229F1C6F4031287
:1036A00029F1C7F5031229F1F4F5031229F173F694
:1036B000031229F14BF7031229F182F7031229F1C2
:1036C00005F8031229F11EF9031229F14EF903122C
:1036D00029F161F9031229F164F9031229F16DF955
:1036E000031229F188F9031229F1FBF9031229F1D8
:1036F00034FA031229F150FA031229F17CFA031269
:1037000029F1A3FA031229F1C7FA031229F16AFB7E
:10371000031229F1DDFB031229F120FC031229F128
:103720002AFC031229F161FC031229F17BFC03122C
:1037300029F198FC031229F1C7FC031229F1E6FCD8
:10374000031229F1FEFC031229F110FD031229F1E5
:103750009EA0071229F1AFA0071229F13AA1071282
:1037600029F123E5061229F161E5061229F1FAE5AE
:10377000061229F105E7061229F14DE9061229F191
:1037800082E9061229F148F8011229F197F801128D
:1037900029F155FA011229F128FC011229F166FCE0
:1037A000011229F13CFD011229F145FE011229F116
:1037B00067FE011229F1C3FE011229F144FF011233
:1037C00029F18C51001229F1AE51001229F1565302
:1037D000001229F19F53001229F10F54001229F110
:1037E0008C54001229F1F254001229F1F554001200
:1037F00029F13C55001229F1AD55001229F1585616
:10380000001229F15B56001229F1D356001229F15A
:103810001857001229F1225B001229F1805C001276
:1038200029F1B35C001229F1F95C001229F156600C
:10383000001229F1E960001229F19162001229F1C8
:10384000C163001229F1FC64001229F177650012AE
:1038500029F18B66001229F12767001229F13B67D5
:10386000001229F10468001229F13A69001229F1C5
:103870005A6B001229F18C6D001229F1686E00124A
:1038800029F1E870001229F1BE71001229F1E172EC
:10389000001229F14676001229F15676001229F11C
:1038A000BC77001229F16C78001229F1847900129A
:1038B00029F12F7B001229F1AF7B001229F1FA7C4C
:1038C000001229F1407D001229F11D7E001229F11C
:1038D000C29D051229F15D9E051229F1D09E0512A7
:1038E00029F1EB9E051229F18A9F051229F1D29F39
:1038F000051229F101A1051229F140A1051229F1B2
:10390000B7A1051229F108A2051229F16FA205122B
:1039100029F17AA3051229F19FA6051229F1B5A76D
:10392000051229F132A8051229F12EAA051229F152
:10393000D3AA051229F188AB051229F1EDAB0512C6
:1039400029F15CAC051229F172AD051229F171AEB5
:10395000051229F1ACAE051229F1C3AE051229F109
:1039600082AF051229F1C1AF051229F13CB0051251
:1039700029F1B5B1051229F157B3051229F1B7B4F0
:10398000051229F124B6051229F136B7051229F1DD
:10399000C3B7051229F133B8051229F153B905123D
:1039A00029F1B2BC041229F115BD041229F15DBD43
:1039B000041229F1A1BD041229F112BE041229F149
:1039C0006CBE041229F1A7BE041229F141BF0412F2
:1039D00029F19BBF041229F102C1041229F17BC114
:1039E000041229F1A2C1041229F1B4C2041229F16E
:1039F0009FC3041229F1ECC3041229F1FAC4041282
:103A000029F122C5041229F17EC6041229F18FC6BC
:103A1000041229F1A7C6041229F193C7041229F14F
:103A200082C8041229F185C9041229F1AFC9041210
:103A300029F1C7C9041229F1E2C9041229F121CAE6
:103A4000041229F141CA041229F16ACA041229F1A7
:103A500081CA041229F15BCB041229F1B5CB0412FF
:103A600029F167CE041229F197CF041229F1CDCFA5
:103A7000041229F1D7CF041229F1EECF041229F153
:103A80005FD0041229F14FD1041229F185D104121B
:103A900029F14FD2041229F1FED2041229F12CD3BC
:103AA000041229F16ED4041229F18DD4041229F1E3
:103AB0000CD5041229F148D5041229F186D5041237
:103AC00029F10FD6041229F17ED6041229F15DD70F
:103AD000041229F13BD9041229F110DA041229F158
:103AE00060DA041229F1C8DB041229F1C2DD0412E4
:103AF00029F16EE0041229F141E2041229F107E3F1
:103B0000041229F17BE3041229F19DE3041229F147
:103B1000ACE4041229F1A9E5041229F118E6041213
:103B200029F103EA061229F12EEC061229F1F6EC2E
:103B3000061229F14BED061229F1D1ED061229F1F9
:103B4000CBF6061229F1E9F6061229F12DF7061235
:103B500029F153F7061229F17AF7061229F192F7A3
:103B6000061229F1AAF7061229F154F8061229F1D2
:103B700096F8061229F1ABF8061229F1E5D20512E2
:103B800029F1CDF9061229F1D6F9061229F1DFF94A
:103B9000061229F1E8F9061229F1F2F9061229F1C3
:103BA0006FFA061229F125E0061229F19BE40612AC
:103BB00029F1B7E4061229F1BCE4061229F15A9959
:103BC000071229F10080071229F11680071229F146
:103BD000B481071229F1FF81071229F16B820712C4
:103BE00029F10DD8051229F19983071229F1AB8328
:103BF000071229F1D49A071229F15E87071229F1D9
:103C0000BA87071229F1FA87071229F1F3880712F8
:103C100029F11789071229F12C89071229F1438903
:103C2000071229F17A89071229F18A89071229F1E5
:103C3000A189071229F1C689071229F1568A0712AC
:103C400029F1CDFF051229F10080031229F13380FB
:103C5000031229F19A80031229F12681031229F116
:103C6000CD81031229F11582031229F13A82031240
:103C700029F15382031229F17982031229F19B82DF
:103C8000031229F1D982031229F12883031229F1A1
:103C90005183031229F1B083031229F1898403129D
:103CA00029F13F85031229F19D85031229F16386CD
:103CB000031229F1AD86031229F10487031229F1B9
:103CC0006F87031229F1AD87031229F103880312CC
:103CD00029F11F88031229F14A88031229F1598A10
:103CE000031229F19F8B031229F1CB8B031229F1C7
:103CF000FF8B031229F1208C031229F12F8C031260
:103D000029F13A8C031229F1EA8C031229F1598D19
:103D1000031229F1068E031229F1428E031229F1B2
:103D2000008F031229F10D90031229F15A9003120A
:103D300029F1E990031229F14391031229F18891A5
:103D4000031229F11794031229F17195031229F135
:103D5000BD98031229F19B99031229F1729A03125B
:103D600029F1869A031229F1AF9A031229F1209BB7
:103D7000031229F1B69B031229F1299C031229F1A0
:103D8000189D031229F13D9D031229F1A09E0312F3
:103D900029F1BE9E031229F1D19E031229F1359F0C
:103DA000031229F1449F031229F1CC9F031229F138
:103DB000E29F031229F1E6A0031229F1F3A00312F6
:103DC00029F1FCA0031229F1F6A2031229F126A47D
:103DD000031229F136A4031229F139A5031229F19E
:103DE000B5A5031229F1EEA5031229F126A70312A6
:103DF00029F16CA7031229F147A9031229F128AD73
:103E0000031229F13CAD031229F146AD031229F149
:103E100050AD031229F15AAD031229F164AD03121A
:103E200029F17DAD031229F187AD031229F101AE0D
:103E3000031229F10CAE031229F13BAE031229F152
:103E400063AE031229F16EAE031229F1BCAE031268
:103E500029F1C6AE031229F1D1AE031229F1F5AE54
:103E6000031229F119AF031229F176AF031229F1D8
:103E7000BCAF031229F1D8AF031229F15FB00312CE
:103E800029F196B0031229F1D5B0031229F122B11C
:103E9000031229F1A4B1031229F150B2031229F13E
:103EA0002CB4031229F19AB4031229F1C6B50312F6
:103EB00029F1ECB5031229F145B7031229F19DBA96
:103EC000031229F1D6BC031229F1B4BE031229F161
:103ED0004DBF031229F172C1031229F126C2031248
:103EE00029F15FC2031229F1C5C2031229F1CFC221
:103EF000031229F1F9C4031229F1DEC5031229F1D5
:103F000045C7031229F18DC7031229F141C80312D5
:103F100029F1E4C9031229F16BCB031229F18BCBF0
:103F2000031229F1DECB031229F1DECC031229F1B1
:103F300006CD031229F169CD031229F14CCE0312EB
:103F400029F1BECE031229F1D0CF031229F154D0AA
:103F5000031229F152D1031229F1E8D3031229F1F6
:103F600007D4031229F152D5031229F120D70312E5
:103F700029F174D7031229F12CD8031229F1DCD8C6
:103F8000031229F13FD9031229F104DA031229F1AE
:103F90009ADA031229F101DB031229F143DB031240
:103FA00029F174DB031229F1D4DC031229F100801A
:103FB000021229F13280021229F16B80021229F1DA
:103FC0006182021229F1A382021229F1878302126F
:103FD00029F1DF83021229F12285021229F16E856F
:103FE000021229F19A88021229F1188C021229F181
:103FF000608D021229F1F68D021229F1028E021251
:1040000029F1428E021229F1D78F021229F1CB90A9
:10401000021229F1F590021229F14C91021229F1B4
:10402000A591021229F11692021229F14B94021263
:1040300029F1E295021229F1B696021229F1FD97B3
:10404000021229F1559A021229F1269D021229F134
:10405000359D021229F1B99D021229F16E9E0212BC
:1040600029F1B19E021229F1FA9E021229F14E9F06
:10407000021229F1B39F021229F10FA0021229F1B5
:104080002BA0021229F15DA0021229F19CA00212BC
:1040900029F182A1021229F131A2021229F1B7A459
:1040A000021229F1EDA5021229F1D4A6021229F17A
:1040B00054A7021229F161AB021229F19FAB02123F
:1040C00029F106AC021229F139AC021229F1CCAC6B
:1040D000021229F1FFAC021229F15BAD021229F1A3
:1040E000A7AD021229F17AAE021229F141AF0212F4
:1040F00029F1DFAF021229F1E9B2021229F1FDB371
:10410000021229F1A8B7021229F1AAB8021229F164
:10411000ADB8021229F1DCB8021229F1DBBA0212A1
:1041200029F1B4BB021229F1D9BB021229F1F5BC65
:10413000021229F1ADBD021229F171BF021229F15B
:10414000D5BF021229F1FABF021229F134C00212BE
:1041500029F18FC0021229F163C1021229F151C263
:10416000021229F185C2021229F13BC3021229F180
:104170004CC5021229F1B7C5021229F1FFC502127E
:1041800029F138C6021229F1CAC6021229F123C840
:10419000021229F1ACCB021229F1A1CC021229F1B1
:1041A0009BCD021229F118CE021229F1EACE021299
:1041B00029F1C7D0021229F158D1021229F15CD29B
:1041C000021229F170D2021229F184D2021229F1CD
:1041D00098D2021229F1ACD2021229F1E2D20212D3
:1041E00029F112D3021229F19CD4021229F15AD5D5
:1041F000021229F1DED5021229F12FD6021229F17D
:10420000A8D6021229F1EED6021229F1D3D8021251
:1042100029F183D9021229F1B3D9021229F172DAF4
:10422000021229F10FDB021229F1BADC021229F184
:10423000A7DD021229F1E6DD021229F158DE021291
:1042400029F19DDF021229F150E0021229F184E0E8
:10425000021229F19CE0021229F13FE1021229F138
:104260002DE4021229F1F8E5021229F11CE60212EE
:1042700029F13AE6021229F109E7021229F136EB97
:10428000021229F1A7FA061229F1E7FA061229F11A
:10429000B3FC061229F1C2FC061229F1BBE6041296
:1042A00029F17FEB041229F1CDEB041229F10BEE79
:1042B000041229F1AFEF041229F13FF0041229F1A1
:1042C0009BF2041229F1A2F4041229F1F9F4041268
:1042D00029F1EDF6041229F13AF7041229F198F7C1
:1042E000041229F1BAF7041229F1C1F7041229F1D5
:1042F000D9F7041229F19DF8041229F17FF904126B
:1043000029F18481011229F1C681011229F11C874A
:10431000011229F16887011229F1AE87011229F1F2
:10432000FB88011229F16589011229F1AD89011279
:1043300029F11C8B011229F1618E011229F1868F5E
:10434000011229F13E9B011229F1C79B011229F1AB
:104350002F9F011229F18EA0011229F1E9A001126B
:1043600029F139A2011229F121A3011229F1C8A5CD
:10437000011229F149A7011229F1DAA7011229F145
:10438000DDA7011229F154A8011229F15EA801123A
:1043900029F16BA8011229F196A8011229F13CA973
:1043A000011229F12BAA011229F1E4AA011229F123
:1043B00067AB011229F185AB011229F19AAB011209
:1043C00029F1C3AB011229F1F0AB011229F12DAE95
:1043D000011229F10EAF011229F158AF011229F192
:1043E000E3AF011229F191B0011229F1C3B001121A
:1043F00029F10AB1011229F13DB1011229F191B15E
:10440000011229F1E2B1011229F1E7B1011229F1FA
:104410003BB2011229F1A4B2011229F172B30112C7
:1044200029F1BDB3011229F122B4011229F187B497
:10443000011229F123B5011229F17DB8011229F1E8
:10444000ABB9011229F14BBB011229F1A1BE011236
:1044500029F137BF011229F163C2011229F11EC3EC
:10446000011229F166C3011229F10DC5011229F1CA
:1044700021C5011229F12BC5011229F135C50112FF
:1044800029F141C5011229F160C5011229F1AEC718
:10449000011229F107C8011229F111C8011229F1ED
:1044A0001BC8011229F1A1C8011229F1F5C8011296
:1044B00029F102CA011229F172CA011229F17CCB39
:1044C000011229F1C5CB011229F16CCC011229F19D
:1044D0004CCD011229F119CE011229F14CCF011254
:1044E00029F189D0011229F18AD1011229F1A2D131
:1044F000011229F1D6D1011229F1E0D1011229F1DD
:10450000EAD1011229F1F5D1011229F113D20112D8
:1045100029F15BD2011229F1B9D2011229F1E0D2BD
:10452000011229F1F2D2011229F18DD3011229F1E0
:10453000C2D3011229F1C0D4011229F116D50112FA
:1045400029F105D6011229F13BD6011229F19ED697
:10455000011229F116D7011229F1BCD8011229F153
:10456000E4D9011229F1C2DA011229F1A1DB011209
:1045700029F122DC011229F1BDDC011229F1F2DD61
:10458000011229F184DE011229F1D8DE011229F18C
:1045900044DF011229F10AE0011229F15BE0011266
:1045A00029F1B3E0011229F184E1011229F1A7E117
:1045B000011229F156E2011229F178E2011229F1E2
:1045C000D9E2011229F127E5011229F12AE60112A7
:1045D00029F1EEE6011229F122E9011229F16CE933
:1045E000011229F1B7E9011229F112EA011229F1A8
:1045F0007FEA011229F1ADEA011229F1D1EA011293
:1046000029F106EB011229F133EB011229F179EBC3
:10461000011229F1D7EB011229F12BEC011229F13A
:1046200041ED011229F1EEEE011229F137EF0112ED
:1046300029F160EF011229F1F2EF011229F16AF07C
:10464000011229F178F0011229F19CF0011229F1EF
:10465000F9F0011229F114F1011229F1D5F1011239
:1046600029F101F2011229F144F2011229F1A7F214
:10467000011229F1A1F4011229F1CEF4011229F15C
:10468000C3F5011229F1C0F6011229F163F70112F5
:1046900029F1C399061229F1FB99061229F11C9AF6
:1046A000061229F1609A061229F1C49A061229F11C
:1046B000CE9A061229F1DE9A061229F1159B0612EE
:1046C00029F10D9F061229F11BA1061229F108A359
:1046D000061229F19FA3061229F141A4061229F11D
:1046E0007380041229F11C81041229F1F381041250
:1046F00029F1FB82041229F11B83041229F133846E
:10470000041229F1ED85041229F16086041229F1C1
:10471000FD86041229F11488041229F181880412FB
:1047200029F1BC88041229F11189041229F14C895C
:10473000041229F19989041229F1298A041229F114
:10474000B68A041229F18B8B041229F1648C0412AD
:1047500029F1F28C041229F1128D041229F13F8DF6
:10476000041229F1708D041229F1438E041229F1EB
:10477000538E041229F1A28E041229F1AF8E041275
:1047800029F1B88E041229F1288F041229F1888F9B
:10479000041229F1D38F041229F1EE8F041229F1AA
:1047A0001590041229F13290041229F13E9004125E
:1047B00029F1E991041229F10292041229F18B9254
:1047C000041229F19E92041229F1BD92041229F1DA
:1047D0005893041229F1C894041229F16F96041217
:1047E00029F1FE96041229F10197041229F171971B
:1047F000041229F18F97041229F13498041229F137
:104800007098041229F17398041229F1399904124D
:1048100029F19C99041229F1D599041229F14A9A97
:10482000041229F1689A041229F1B69A041229F1A6
:104830008B9B041229F1D99B041229F1279C0412A5
:1048400029F1B49C041229F1E99C041229F11E9D5E
:10485000041229F12C9D041229F18B9D041229F1D7
:10486000039E041229F1449E041229F1949E04121D
:1048700029F1BF9E041229F1D99E041229F1F39E59
:10488000041229F1CE9F041229F1D89F041229F1B4
:1048900013A0041229F123A0041229F12CA0041260
:1048A00029F184A0041229F198A0041229F1CEA1C3
:1048B000041229F1E1A1041229F1F8A1041229F14D
:1048C0000DA2041229F19BA2041229F103A30412E0
:1048D00029F1B6A3041229F1C1A3041229F111A5EB
:1048E000041229F12DA5041229F179A5041229F148
:1048F000E8A5041229F121A6041229F13BA604120D
:1049000029F19BA6041229F13AA7041229F185A7DF
:10491000041229F147AA041229F1FDAA041229F16F
:104920008DAB041229F1D5AD041229F1EDAD0412BD
:1049300029F1F0AD041229F1FCAD041229F110AEF9
:10494000041229F118AE041229F14BAE041229F118
:104950003EAF041229F1C9AF041229F15CB0041270
:1049600029F1D5B0041229F199B1041229F1BBB192
:10497000041229F154B2041229F1B1B2041229F13E
:10498000B4B2041229F1E1B2041229F1F6B2041210
:1049900029F170B3041229F1BCB4041229F1C7B58E
:1049A000041229F152B6041229F157B7041229F161
:1049B00017B8041229F148B8041229F16EB804128C
:1049C00029F177B8041229F1A5B8041229F13DB9EB
:1049D000041229F1F2B9041229F163BA041229F17F
:1049E0000ABB041229F191BB041229F1D0BB0412B5
:1049F00029F113BC041229F14DBC041229F116D17E
:104A0000051229F1B4D0051229F1F9CF051229F1C7
:104A10001ECE051229F162CD051229F132CD051203
:104A200029F1E2CC051229F17DCC051229F13CCC0B
:104A3000051229F11CCC051229F14ECB051229F1E2
:104A4000DACA051229F17DCA051229F119CA05121F
:104A500029F191C8051229F125C8051229F19FC72E
:104A6000051229F193C7051229F160C7051229F132
:104A7000C1C3051229F193C3051229F13DC30512E3
:104A800029F125C3051229F11AC3051229F109D606
:104A9000051229F1D7C2051229F1CBD5051229F14A
:104AA000A5D5051229F129D5051229F19AD40512A7
:104AB00029F14FD4051229F1E3D3051229F1EFC0F2
:104AC000051229F1D8C0051229F10EC0051229F1ED
:104AD00039BF051229F180D3051229F14DBD051208
:104AE00029F1B2BB051229F1A7BB051229F11EBBA2
:104AF000051229F16A83071229F1DABA051229F1A0
:104B000056D3051229F1B6BA051229F1E98C06121D
:104B100029F19E8C061229F1458C061229F1108C80
:104B2000061229F1DF8B061229F1AF8B061229F14B
:104B3000878B061229F10A8B061229F1EC8A0612DC
:104B400029F1BC8A061229F13C8A061229F15B86FA
:104B5000061229F13384061229F10282061229F184
:104B60007B81061229F12981061229F100800612A3
:104B700029F1B480061229F16D80061229F1B2F9EB
:104B80000600000080FBE4738F0001007C1E87009C
:104B900001007C1A35000400411E25000200451E5C
:104BA00026000200471E27000200491E28000100BF
:104BB000531E29000100541E84000400551A86006B
:104BC0000100EB1D2A000100551E2B000100561E9E
:104BD0002C0001005C1E2D000800621A2E0001004E
:104BE0005D1E2F0001005E1E300001005F1E3100BF
:104BF0000100601E320001006A1A330001006B1AC6
:104C000034000100611E360001006C1A38000100FA
:104C1000621E390001005B1E83000200791E6300E2
:104C20000100771A64000100571E65000100581E3C
:104C30006D000100781A710008005A1A6600010020
:104C4000781E43000100691E440002006A1E4500F0
:104C500001006C1E460002006D1E470008006F1A1E
:104C6000480001006F1E4B000100701E040001008F
:104C70007B1EA10001007F1E370001007E1E880000
:104C800001007D1E3C0001006D1A3D000100631E05
:104C900049000200711E67000100791A4D000200F0
:104CA000731E4E000100751E4F000200761E3E006E
:104CB0000100681E51000100641E52000100651EC3
:104CC00053000100671E540001006E1A000000002E
:104CD000000000013636010100010201000103015C
:104CE0000001040106060502000007010034080166
:104CF000000F090401010D0100FF0E08000017025A
:104D00000000190100FF1A0100011B0100FE1C0137
:104D100000081D0200001F01000120010001210206
:104D200000002301000F24020000260100012701DA
:104D30000008280200FF2A0100072B0102402C0175
:104D400000002D0100012E0100012F0100FF3001A4
:104D50000B1D310800003A0100083B01000F3C0127
:104D600000013D0100FF3E04000042040000460433
:104D700000004A0400004E040000520400005604E3
:104D800000005A0400000103710301030103010341
:104D900001030103220302030103100300030003C4
:104DA0000003000300030003000342030003240385
:104DB0000603000300030403120325032303250352
:104DC000230304030403000300030003440300035C
:104DD000000323030003650321003503810300035F
:104DE000050300030003000300032503230303025C
:104DF000710230016002110270020102020202021D
:104E00008002100261023A004100630273027202E2
:104E10006202430200021302380000020002040290
:104E20001202000200020002000204020402370023
:104E300037003C0244020002390000020002650211
:104E40000002350281020002050282028302000292
:104E50000300710030016000110070003102200376
:104E60005004800010006100000014006300730013
:104E70007200620043000000130006000000000002
:104E80000400120000000000000000000400040004
:104E9000370037003C024400000000000000000022
:104EA000650000003500810000000500000083005F
:104EB0000000010171010101010111010101310134
:104EC000010101018001100161013B001400630137
:104ED00073017201620143010001130106013D01EA
:104EE000350004011201000100010001000104016C
:104EF0000401330133013C01440132013600000159
:104F000000016501000135008101000105018201F8
:104F1000830100010304710402046004110470049D
:104F200002040204010402041004610400041404D5
:104F3000630473047204620443040004130406044B
:104F4000000400040404120400040004000400042B
:104F5000510464000004000400044404000400043C
:104F600000040004650400043504810464000504A1
:104F700000048304000436000100060000000F0056
:104F800000000000000000000000000003FFFF0020
:104F9000000403FFFF0000FFFF0FF4010005C4043D
:104FA0000320000100000B000000000000000003CF
:104FB000010F0000000000000000000000000000E1
:104FC00000000000000000000000000000000000E1
:104FD00000000000130067381F006D381F80733811
:104FE00000000F3901000F390200E9370280E33772
:104FF0000300EF370400F5370480FB370500013864
:1050000006000D3830002B38310025383200373893
:1050100033003D38350043383400493836004F38C6
:1050200011005B381400613815001F38FFFF0000C5
:105030000A00000002000000040000000800000058
:105040001000000020000000400000008000000070
:105050000001000000020000000400000008000041
:10506000001000000020000000400000014743063F
:1050700077430871430B9543105D3F0AA743024DE8
:10508000430565430753430C2F430D3B4364293DC0
:10509000FF000007ECFDFDFDECDCDCCCBCACAC9C07
:1050A0009C8C7C7C6C6C5C5C5C4C4C3C3C2C2C1C70
:1050B0001C03EAF5E5D5D5C5B5A595958585757526
:1050C0006565555545453535252515150500160FDA
:1050D00000000B150B020002220F3300000E0F0020
:1050E0000000000000000000000000000000005A66
:1050F0006967426565416C6C69616E63653039D082
:10510000D1D2D3D4D5D6D7D8D9DADBDCDDDEDF00F7
:105110000119161816161823030000034D4C4651AA
:10512000181A250502303016181920231A1C1E30B3
:10513000003C40423A3F3F392F4730303017181972
:1051400021301B1D1F300C0E020B040B0A07080038
:105150000F02040201010101090200BE040AE80372
:1051600000000E000000E8030C001E0000007F009D
:1051700005030004091E100A0C100803FF0C280088
:1051800004040209033C0C05080B081EC082C083FE
:105190009018CDE4F0A3F07CAB7D1B7AE77B17126F
:1051A0003501123D59123FAB123D5F02673474F274
:1051B00012245B74FE122AEDE9FF8A08EBFE8C09CB
:1051C000EF70357402650870167908123735E4F50A
:1051D0000AF50B780A122A46780A122A4A80557470
:1051E000016508600302531C79081237357B00EE15
:1051F000FAF9123DCB02531774016F600874026F05
:10520000600302531CEA60097403650860030252DC
:10521000B11241CDE9605374036508604D12334506
:105220008A0A8B0B780A122A46750A01780A122A12
:105230004A750A00780A122A4AE509F50A780A121C
:105240002A4AEEF50A780A122A4A90180112286DA5
:10525000901DEBE0F97C6F7D1A901E79127172122D
:105260003D83740A122A5902531779021237359076
:105270001DEBE0F9901801122CD0123D71E9F89065
:105280001811E0A2E34010E8700D9018D1E004F08E
:105290006404700312534474036508707C9018D240
:1052A000E0F9740129F0E9C39405406D125344807C
:1052B0006874016508706574016F790A703112377E
:1052C000357A007B04901C72E0F91234BFAA18AB47
:1052D000197950123B4985188285198312627C1214
:1052E000533E7900901C25127172123E13804412B5
:1052F0003735901E4F12286D7A007B20901806E0FB
:10530000F91234B37404122A59901DEBE0F9901885
:1053100001122CD0123DADE9F8E8601790817712A8
:10532000286D7A017B00901806E0F91234B37404FA
:10533000122A597402027C59F582E43FF583E8F0A1
:10534000A3E9F022901801E4F0A374F8F0A374FF2D
:10535000F0A37407F02274F612245BE9FFEAFE7AE8
:10536000D1F91233698A828B83E5824583702A7A68
:10537000027B0012334BEA4B700E7A107B009018C0
:1053800006E0F912338D80148A828B8374D1F0EF9A
:10539000A3F0EEF91233578003EFA3F00255A8747F
:1053A000F712245B89089004D1127C20901E37E00C
:1053B000F47003A3E0F4702C9009D1E0901E37F054
:1053C000A3E4F0801F8E828F831264F5600F8E82BB
:1053D0008F83A3A31264EFFAA9081237CB8E828FB2
:1053E00083127D2EEE4F70DD901E37E0F47003A324
:1053F000E0F4600A901E37E0FAA9081237CB124495
:105400006D9017D11260E31244677F010226E974A0
:10541000F012245B890B8C0C750900750800741060
:10542000122CFF1264EB7412122CFF125653804799
:105430001254D8F50EA3E0F50FAE08EE2EFEE433BD
:10544000FFEA2EF582EB126B3E650E7004A3E06559
:105450000F7019AE09EE2EFEE433FFEC2EF582ED4F
:105460003FF583E50EF0A3E50FF00509050AE50A0F
:10547000C3950C40BB0508E508C3950B5005750A9C
:105480000080EBA90980007F080226E974F4122449
:105490005B890B7D00740C122CFF1264EB80010DF4
:1054A000EDC3950B502E750A008002050AE50AC36C
:1054B0009C50ECED25E0FEE433FFEA2EF582EB3F55
:1054C0001277931254D865087004A3E0650970DB65
:1054D0007901800279008015AE0AEE2EFEE433FFDA
:1054E000E82EF582E93FF583E022122A597F040273
:1054F00026E90229EE74F612245B1255927003A37A
:10550000E06D701775080F7509187808122A46EEB5
:10551000FA1239157402122A59801F75080275098A
:10552000807808122A468C088D097808122A4612BB
:1055300055831239397404122A59806C74F6122476
:105540005B1255927003A3E06D701775081C750906
:10555000187808122A46EEFA12391B7402122A59D8
:10556000801F7508037509807808122A468C088DFB
:10557000097808122A461255831239397404122AFE
:10558000598025EE127C0F3FF583E0FD7C80126789
:10559000DF22EAFEEBFF1267F4FCE439FD9017D13D
:1055A000E06C227402122A597F020226E974F61274
:1055B000245B74FE122AED8A088B098518828519EE
:1055C00083E4F0A3F01260D812692BFBECFA888216
:1055D0008983A3A3E0F97F007E00600574FF6970F2
:1055E000047E8280459017D1E06A7003A3E06B705F
:1055F0001AAA18AB19124B33E9FA85188285198358
:1056000012672170027E83EAFF801F901A7CE0609F
:10561000046401700E123CE1E960047E89800B7E17
:10562000818007E0640270027E8012564DEEF9AA76
:1056300008AB09123921EF60118518828519831290
:105640006721600612716C1233F30255A38518822C
:10565000851983127953FD220229EE74F212245B1C
:10566000EAFEEBFF7508007509001267F0F50AE421
:1056700039F50B12446DEA650A7003EB650B701285
:10568000124B21E914F50879017A997B18124B1B0A
:105690008003750980EE240E126B3BF50C780C121A
:1056A0002A4A750C99750D18780C122A467808123A
:1056B0002A4A780A122A46E509F5087808122A4A81
:1056C00012656C126B3BF97A057B801239277407DF
:1056D000027C5974F612245BE9FF7E0080328A82D4
:1056E0008B83E0F508A3E0F8E4C8F9E50828E4397D
:1056F000F509EE25E0F8E433F9EC28F582ED39F50B
:1057000083E508F0A3E509F0EA2402FA50010B0E44
:10571000EEC39F40C90255A874E812245B74FE12C0
:105720002AED8A108B11750F00851882851983E484
:10573000F0A3F0F516F517125FE83511127C15127B
:105740007E0BFA8E828F83A3A3A3E0F9EAF508E427
:1057500039F509AA0AAB0B124509E9640170301248
:10576000758D122A4AE4F508F5097808122A467858
:1057700008122A4A780A122A467508807808122ADE
:105780004A125B091239277407122A59025AF3AADE
:105790000AAB0B124509E970469017D1E0650A7013
:1057A00004A3E0650B6038901A7CE06402702D124F
:1057B000758D122A4AE4F508F5097808122A467808
:1057C00008122A4A780A122A467508807808122A8E
:1057D0004A125B091239277407122A59025AF38EAA
:1057E000828F83A3A3A3A3E0F50BEE2405FE500153
:1057F0000FE50B602D127CBF1233ED8518828519E1
:1058000083EAF0A3EB126B4AE849601612564DEE9C
:10581000FAEFFBA90B1238078A0C8B0DAE0CAF0DFB
:105820008003750B00127CC6601E127CBF1233ED24
:105830008A168B17EA4517600FAC16AD17EEFAEF14
:10584000FBA90A1238078003750A009004D1805022
:105850008E828F83A3A3A3A3A3A3A3A3E4F0A3F0A7
:10586000EEFAEFFB851482851583A3A3E0F812649A
:10587000EFF9123357851282851383E0C0E0A80F39
:10588000749928F582E43418F583D0E0F0050FA26E
:10589000005007AA12AB131233F3851482851583C7
:1058A000E0F514A3E0F515E51445157003025A6FF1
:1058B0008514828515831264F560DF851482851551
:1058C00083A3A3A3A3A3A3A3A3E0A2E050CC851426
:1058D00082851583A3A3A3A312672185148285154E
:1058E00083A3A3601E1264F7FA79018514828515DB
:1058F00083A3A3A3A3125AFD124B868A128B13D241
:10590000008010125AFDA3A3A3A3E0F512A3E0F5B3
:1059100013C200E5124513700302588F8512828569
:105920001383A3E065087004A3E06509600F74FFAA
:105930006508700474FF6509600302588F85128240
:10594000851383A3A3A3A3A3A3A312287185128203
:10595000851383A3A3A3A3A3A3E0FC7402122CFFCB
:10596000127172A90B1237DD7402122A59E97038CC
:10597000851282851383A3A3A3A3A3A3A3A3A3A395
:10598000122871851282851383A3A3A3A3A3A3A3C3
:10599000A3A3E0FCAA16AB17A90A1237DD74021202
:1059A0002A59E9700302588FE50A250BC333240AEC
:1059B000FA7B0012334B8A0C8B0DAE0CAF0DEE4F01
:1059C00070030258758E828F8374D2F085108285A1
:1059D0001183A3A312779DE8127C32E50B127BEFB3
:1059E000A3A3A3E50AF0E50B6031125FE08E828F7E
:1059F000831260DE851882851983E0F50CA3E0F53B
:105A00000D750E00780C122A42AC0BEC2CFCE43322
:105A1000FD1233277403122A59800D8E828F83A3BF
:105A2000A3A3A3A3E4F0A3F0E50A7003025850A8CF
:105A30000BE828F8E433F9EE28F8EF39F9E8240AFE
:105A4000FAE439FB8E828F83A3A3A31260DE85164E
:105A50000C85170D750E00780C122A42AC0AEC2C3E
:105A6000FCE433FD1233277403122A59025860E50F
:105A70000F602512758D122A4A75089975091878D4
:105A800008122A46E50FF5087808122A4A9017D11D
:105A9000122871750800802DE510240BF582E4357D
:105AA00011F583E0702F12758D122A4A75089975C9
:105AB00009187808122A467508007808122A4A90B0
:105AC00017D11228717808122A4A125B0912392755
:105AD0007407122A59851882851983126721600676
:105AE00012716C1233F3E51645176007AA16AB174F
:105AF0001233F37402122A597F100226E9125B0155
:105B0000221270E3F583888222E5102402FCE4353A
:105B100011FDE5101264DF3511F583E0F97A067B9B
:105B2000802274F412245B74F4122AED8A088B0923
:105B3000ECFEEDFF740B122CFF7403F0122AAF126F
:105B400035011244678A0A8B0BAC0AAD0B74031241
:105B50002AAF1234FBE9600A125C536010E0640162
:105B6000600B8518828519837484025C178E828F7E
:105B700083A3A3A3A3A3A3A3A3E06010F4600D12C7
:105B80005C537013126B386003F4700B85188285B8
:105B900019837482025C17127958E064217002A3A1
:105BA000E0704D851882851983748C12628BE0F544
:105BB0000A780A122A4A125C5A1240B97401122A4F
:105BC00059E97054851882851983E4F0123711124F
:105BD0005C5370447401122AB712784F1240D7E90F
:105BE00070367D007C00790012784F1238DF8028F3
:105BF000126B38F50A780A122A4A125C5A1240BF10
:105C00007401122A59E98518828519837007E4F016
:105C100012371180037488F012755DF50A780A1244
:105C20002A4A7401122AA7880A890B780A122A467E
:105C3000E508126D7C35091262834480F50B780A01
:105C4000122A461266761238D37405122A59740C39
:105C50000254EA127968E0640322EE240BFCE43F6C
:105C6000FD8E828F83A3A3A3A3A3A3A3A3A31271D7
:105C7000AF8E828F83A3A3A3A3A3A3A3A3E0F92240
:105C8000C082C08374F3122AED851882851983E4DB
:105C9000F004122CFF1260E37403122CFFAA82ABF3
:105CA00083123C69AA18AB19123CA5740D122A592B
:105CB00002673474F612245BEAFEEBFF1279641279
:105CC0007BE712778B901817E058F508A3E059F599
:105CD00009E5084509601F7808122A469017D11275
:105CE0002871EE240E126B3BFD7C001267DB12392B
:105CF000337404122A590255A874EA12245B74DB27
:105D0000122AED8A148B15751200751300750A009E
:105D1000125FE83515F5831264F7F50EAC18AD196E
:105D20007A007B00799C123DE3901A7CE060046469
:105D30000170147A047900123CCFEAF50A851882C2
:105D4000851983E02A80088518828519837401F0FB
:105D5000E0F8E50EC3984003025F5DE0C3950EF5E1
:105D600009C394044003750903E50975F01AA4FA00
:105D7000ABF01233ED8A128B13EA45137003025F06
:105D800060750B00AE12AF13850E08025E107C0822
:105D90007D0079FF125FE0123333850C82850D831D
:105DA000A3A3A3A3E0702D850C82850D8312672128
:105DB000700912776B12600FE48010125FEDF090A3
:105DC0001C38E014C0E0125FC8D0E0F0125FCC12C3
:105DD000601E8032901C38E004C0E0125FC8D0E042
:105DE000126045C39403EE4003025E9D12783D7439
:105DF0000212604564017003025EAAEE2415125F70
:105E0000F01260007401F0EE241AFE50010F050B31
:105E1000E50BC395094003025F09E508C3950A40F5
:105E200003025EB3AA087B00123D118A0C8B0D059C
:105E300008901C25126031123501850C82850D8376
:105E4000125FF9F582E43FF583E8F0A3E9126023DD
:105E5000125FC874FF12604AA3A3A3A3A3A3E0C068
:105E6000E0125FBED0E0F07401122CFFE4F0850C6C
:105E700082850D831264EB7402122CFF12533E7460
:105E800001122AAF123C93E964016003025D8E7433
:105E900004122CFF125FDC123501025D9A125FEED4
:105EA00012604564036003025DFBEE241512776EF9
:105EB000025E01E50AC3950E40057508008051E5B4
:105EC0000EC3950AF5088048EE241512776E12600D
:105ED0001EF0901C38E014C0E0125FC8D0E01260E1
:105EE00023741D122CFFE0C0E0125FBED0E0F01260
:105EF0005FB612671F700512776B8003125FEDF0BB
:105F0000EE241AFE50010F050BE50BC39509505006
:105F1000740E122AB7AA087B007987123DE30508A0
:105F20007418122CFF1260311235017410122CFFFC
:105F3000125FDC123501740E122CFF125FF912533E
:105F400038901A7CE0600764016003025EC8125F4B
:105F5000CC126000740312600F74FF808175090019
:105F6000750A00780A122A4A7812122A467809120B
:105F70002A4AE50EF5097809122A4A7405122CFFFF
:105F8000E0FD7C00E514127AA43515FBE5141264DB
:105F9000DB3515F583E0F912396F7405122A59E5DE
:105FA0001245136007AA12AB131233F37425122A99
:105FB000597F0E0226E9EE2412F582E43F22EE24F8
:105FC00019F582E43FF5832212601422125FD27425
:105FD0000222EE2415F582E43FF58322AC82AD83E4
:105FE000EE240AFAE43FFB22EA127CAB22EE2414F0
:105FF000F582E43FF583740122126B55EE241222E0
:1060000012600422F0EE2416F582E43FF58322F0BC
:1060100012601422EE2418F582E43FF58322126008
:1060200004E422F0EE2417F582E43FF5837402F0D5
:10603000221277A3E8F0A3E9F07C397D1CEE24025C
:10604000FAE43FFB2212604AE022F0850C82850DC3
:1060500083A3A3A3A32274F612245B74F9122AED7E
:106060001260D4127E9C12333FEAF8EBF9ECFAEDA1
:10607000FB851882851983122CE88E828F83A3A357
:10608000A3A3E0C0E07404122CFFD0E0127BF3F86D
:106090007405122CFF7401F07406122CFF7401F0C9
:1060A0009017DBF09017E404127866FAA3E0FB90F7
:1060B00017DC1260E3E89017E5F0127C00E090171F
:1060C000DAF0AA18AB19123D77E96003123D7D742E
:1060D000070255A58A088B09127CAA350922A3A3B9
:1060E000A3A3A3EAF0A3EBF02274F212245B74FFE3
:1060F000122AED7508007E007F001243838A0A8B06
:106100000B1243838A0C8B0DA80CA90D8005050882
:106110001264E5E84970F7901A7CE060076401605A
:10612000030261F41243838A0C8B0DA80CA90D8025
:10613000031264E5E84960338882898312717290A2
:106140001C25E06A7003A3E06B600D12784839F5F6
:1061500083127172EA4B70D98882898312627CE063
:10616000687003A3E06970030261F47A167B001281
:1061700033ED8A0C8B0DAE0CAF0DEE4F6076901C9C
:10618000251264EB8E828F8312533E901C1A127775
:1061900076A3F01244F1E98E828F83A3A3A3A3A375
:1061A000F0901E55127776A3A3A3A3A3F07C397DAC
:1061B0001C12784F123501AA18AB197941123B49CC
:1061C000851882851983E060089017D11264EB80EE
:1061D0000478FE79FF8E828F83A3A3A3A3A3A3A336
:1061E000E8F0A3E912628BE50AF0A3E50BF08E0A52
:1061F0008F0B05089017E5E0F8E508C3985004797F
:10620000008027E508C398F9C39406400279057811
:1062100000800DE50A127849350B126283F50B08F0
:106220009017E5E0FAE8C39A40E975090078091289
:106230002A4A780A122A46E9F5097809122A4A9068
:1062400017E5E0F5097809122A4AAD087C007ADCE6
:106250007B179017DAE0F91239697405122A599000
:106260001A7CE060046401700BEE4F6007EEFAEFF9
:10627000FB1233F3123D7D7401027C59126B559071
:106280001C2522F583E0F50AA3E022F0EE12784106
:106290002274F012245B74FF122AED8A0A8B0B7EA3
:1062A000008E0E8E0F125FE8350BF5831264F7FF38
:1062B000AC18AD197A007B00799D123DE3851882F8
:1062C000851983E0F8EFC398400302636BE0C39F36
:1062D000FEC3940B40027E0AEE75F007A4FAABF001
:1062E0001233ED8A088B098A0E8B0FEA450F60790D
:1062F000750C00801A850882850983A3A3A3A3A334
:106300007403F0E5082407F50850020509050CE5BB
:106310000CC39E5056AC08AD09E50C2FFAE43400CE
:10632000FB798B123DE3850882850983A3A3A3A390
:10633000A3E014600814601314601F80B8850882FD
:10634000850983A3A3A3A3A3E480B7850882850955
:1063500083A3A3A3A3A3740180A8850882850983CE
:10636000A3A3A3A3A3740280997E007508007808F4
:10637000122A4A780E122A46EEF5087808122A4A9E
:10638000EFF5087808122A4A7405122CFFE0FD7C0C
:1063900000E50A127AA4350BFBE50A1264DB350B23
:1063A000F583E0F91239757405122A59E50E450F87
:1063B0006007AA0EAB0F1233F37401122A5902546C
:1063C0008774EE12245B74FE122AED8A0C8B0D7515
:1063D0001000751100125FE8350DF5831264F7F5B2
:1063E0000AAC18AD197A007B0079A31240C5851854
:1063F000828519831264EBC3E50A98E499502085DD
:106400001882851983A80AE0C398FEA3E09400FFD0
:10641000C3EE9404EF940040617E037F00805F7EB2
:1064200000750B00EEF97508007808122A4A7810FA
:10643000122A46E9F5087808122A4AE50AF508788A
:1064400008122A4A7405122CFFE0FDAC0BE50C1271
:106450007AA4350DFBE50C1264DB350DF583E0F90C
:1064600012397B7405122A59E51045116007AA10EC
:10647000AB111233F37402027C95EE4F60A3EEFA77
:10648000EFFBEA75F015A4FAA8F075F015EBA42857
:10649000FB1233ED8A088B098A108B11EA451160D3
:1064A00032750B00750E00C3E50E9EE49F4003029B
:1064B0006424AC08AD09A80AE50E28FAE43400FB10
:1064C00079A21240C5E5082415F508500205090512
:1064D0000E80D4750BB579000264261264DF222485
:1064E0000FF582E42212784839F583126B5522A306
:1064F000E0F5838882A3A3125B01E02274F61224E4
:106500005B74FF122AED126552127AE7A3A3A3A3CC
:10651000A3A3A3A3E0F9123D9BE985188285198303
:10652000F07508007808122A4A7401122AA7880810
:1065300089097808122A4675083575098078081285
:106540002A461265621238D37405122A5974010260
:1065500055A5EAFEEBFF12655A22EE2413F582E4FC
:106560003F22790112656CFAE43FFB22EE2402FC23
:10657000E43FFDEE240F2274F412245B74FA122A15
:10658000ED1260D4127C1EEEFAEFFB123C6FE96054
:10659000171244678A0A8B0BAC0AAD0BEEFAEFFBBD
:1065A0001234FBE964017013901A7CE070030266F8
:1065B000717401122CFFE4F0A380097401122CFF06
:1065C000EEF0A3EFF0901A7CE06402701785088269
:1065D000850983A3A3126B43E0687003A3E069609D
:1065E000030266718E828F83A3A3A3A3A3A3A3A395
:1065F000E0FEA2E650087403122CFF7401F0EEA234
:10660000E750087404122CFF7401F07405122CFF7B
:10661000E4126932F0F50A780A122A4A7401122A41
:10662000A7880A890B780A122A46750A34750B80E6
:10663000780A122A461266761238D37405122A593D
:10664000908103122CD012448B7A007B0012449765
:106650007A007B001244917401122AAF123DD1EEF0
:10666000A2E7400D7401122CFF1267217003124A39
:106670007F74060254EA7901E5082402FCE4350936
:10668000FDE508240FFAE43509FB2274F612245BB9
:1066900074FF122AEDEAFEEBFF901A7CE070119075
:1066A0001E5AE0700B8E828F83A3A312672170683D
:1066B0001279641264F7F50874FF650870037508B1
:1066C000FEA908123D89E9851882851983F01241D7
:1066D000CDE96005A908123A41901A7CE07005A93D
:1066E00008123A41EE240B126B3B702C75080078AF
:1066F00008122A4A7401122AA78808890978081200
:106700002A467508367509807808122A461265628D
:106710001238D37405122A5902654DF582E438F512
:1067200083126B55E84922C082C083901A7CE070C6
