:020000040000FA
:10000000021F54022003FFFFFFFFFF02200BFFFF30
:10001000FFFFFF022013FFFFFFFFFF02201BFFFF78
:10002000FFFFFF022023FFFFFFFFFF02202BFFFF48
:10003000FFFFFF022033FFFFFFFFFF02203BFFFF18
:10004000FFFFFF022043FFFFFFFFFF02204BFFFFE8
:10005000FFFFFF022053FFFFFFFFFF02205BFFFFB8
:10006000FFFFFF022063FFFFFFFFFF02206BFFFF88
:10007000FFFFFF022073FFFFFFFFFF02207BFFFF58
:10008000FFFFFF022083FFFFFFFFFF02208BFFFF28
:10009000FFFF70DFFFFF040000000002000000C847
:1000A000030002030369A5020269A532730000017F
:1000B00000000000000400FFFFFFFFFFFFFFFF0440
:1000C00003090424035400650078006100730020D4
:1000D0000049006E0073007400720075006D0065C9
:1000E000006E007400730024035400490020004394
:1000F000004300320035003300310020005500532A
:10010000004200200043004400430000035F005F02
:100110000030005800000000000000000000000057
:1001200000000000000000000000000000000000CF
:100130000000000000303132333435363738394171
:100140004243444546481C9D1C9D1C9D1C9D1CA56E
:100150001C74F8121BE2900391E060159003027486
:10016000FEF0900304744DF0A37405F07A011207B9
:10017000237F01021D8174F8121BE274FF121ECB53
:100180007E00801F851882851983E064FE700690CA
:1001900003877401F0851882851983E0F890038441
:1001A000E068F07901AA18AB191210FEE970030299
:1001B0000287851882851983E064EF70027E07E06C
:1001C000C0E0900387E0FA900385E0F8EA28F8E4BD
:1001D0003400F9740228F582740339F583D0E0F015
:1001E000900387E0609E14600E14602B14603B1433
:1001F0006051146067809E900384E4F085188285C6
:100200001983E0900386F0C394809003874003E451
:1002100080827402020194851882851983E090031C
:1002200082F09003877403020194851882851983F4
:10023000E0900383F0900386E060199003877404D4
:10024000020194900385E004F0F8900386E0686072
:10025000030201959003877405020194900385E4DD
:10026000F0900387F0900384E0F885188285198365
:10027000E0686003020195900382E0644D60030230
:1002800001951203BF8002EEF97401121E4C0201A7
:100290007174F7121BE274FB121ECBEAFEEBFF75C2
:1002A00008047509007808121EE57402121F4C7AC2
:1002B000907B0079041219007402121E4C1207156B
:1002C000121F9DE0687003A3E06970128518828593
:1002D0001983E0F47003A3E0F4600302039A74044A
:1002E000121F441207778A088B09A808A90974020B
:1002F000121F9DE8F0A3E9F07404121F9DE060084E
:1003000079011201510203B3851882851983E068CF
:100310007003A3E0697076851882851983E0F47014
:1003200003A3E0F470197402121F9D7410F0A374FB
:1003300020F08518828519837410F0A37420F0755D
:1003400008017509007808121EE57402121F4C7A24
:10035000247B081219847402121E4C750804780854
:10036000121EE57402121F4C7A907B007904121958
:10037000007402121E4C120715121F9DE0687003D4
:10038000A3E069700479028006790480027903127F
:1003900001518E828F83741E80058E828F83E4F0DC
:1003A000120715121F9DE0687003A3E069700479BD
:1003B00001800279007405121E4C7F02021D8174B7
:1003C000E9121BE274F8121ECB900307E0FA9003C7
:1003D00006E0F9FEEAFCE4CCFDEE2CED3408FF75F6
:1003E0001001750F00750E068E088F0974027808CB
:1003F000121F31C39508FCE49509FD74022CF51415
:1004000074033DF515E5142497F516E5153420F52C
:1004100017EE2410F508E43FF509EEF50CEF540152
:10042000F50D8E128F1374097812121F6385120A4C
:10043000900383E0146057147003020506147003E0
:1004400002057D14601024FE700302063814700348
:100450000206E80206F8750E03794E1213D29003D5
:100460000712070B7402F0A37440120709740812F4
:100470000709F0A3F07418C3940704F510AA10A993
:100480000F120723A90E7408121E4C0208DD750E08
:1004900004794E1213D2EE450D7005A90A1219EA1D
:1004A000C3EE9425EF9408503FC3E5089424E50972
:1004B00094084034E5142496F8E5153420F9888230
:1004C0008983E0701E851682851783E0701590037E
:1004D000887401F08882898374A5F0851682851757
:1004E000838004900388E4F075081075090078088B
:1004F000121EE57C087D03EEFAEFFB1219847402EC
:10050000121E4C02047D750E05C3E50A947995E030
:100510004006750F0102047D7510407511007810BA
:10052000121EE57C097D037402780C121F31AA0C9F
:10053000AB0DA90A1219007402121E4C900307E0B9
:10054000A3F0900306E0A3F0751043C3EE9425EFEB
:100550009408400302047DC3E5089424E509940847
:10056000500302047D900388E0700302047DA81606
:10057000A91788828983E4F0A3F002047D7508043A
:100580007509007808121EE57402121F4C7A907BE0
:100590000079041219007402121E4C7402121F9D7D
:1005A000E0F8A3E0F9851882851983E0687003A359
:1005B000E069851882851983700BE0F47003A3E06D
:1005C000F470578009E0F47003A3E0F4700D85180F
:1005D000828519837410F0A37420F0120715121F7E
:1005E0009DE8F0A3E9F07508017808121EE5740291
:1005F000121F4C7A247B081219847402121E4C7547
:1006000008047808121EE57402121F4C7A907B00D1
:1006100079041219007402121E4C120715121F9D44
:10062000E0687003A3E0697006750E0102047D7531
:100630000E02750F0702047D9003D6E06007640286
:10064000600302047DEAFF7A017900120723E0606B
:10065000030206DC800312119A121181E970F7740B
:1006600004121F9D1206FD7404121F9D7808121FAC
:100670008185080C85090D850A0E850B0F9003C234
:10068000780C121F0B7404121F9D780C121F72E558
:10069000084509450A450B70CE8EC2E5C554E04FAA
:1006A000F5C57404121F9D1206FD7404121F9D7877
:1006B00008121F8185080C85090D850A0E850B0F10
:1006C0009003C2780C121F0B7404121F9D780C1239
:1006D0001F72E5084509450A450B70CE7A0179007D
:1006E0001207237908020486E9900391F07003024F
:1006F000047D750E0902047D7906020486E4F0A3E8
:100700007426F0A3E4F0A3F022F0A3E4F0A3F0A396
:10071000F0A3F0A322851882851983E0F8A3E0F9FD
:1007200074022274F8121BE2EAFE900305E0D2E79D
:10073000F0E9A3F0EE900303F08E0874042AFE7C27
:10074000028004E062080CECFA3395E0FB74022AA4
:10075000F58274033BF583EEF8C3EA98EB9400A2AC
:10076000D265D03340DDE508F074012AF97A027BC6
:100770000312113C02017174E9121BE275820075CB
:1007800083FE121E2E8A168B177514007515008AAB
:10079000828B83E4F09003D6E07006D2AAD2AF80B9
:1007A00004640270057900120151750C00750D206A
:1007B000750E00750F009003D6E06004640270159A
:1007C00012119A120176E9F874096860030208B3FD
:1007D0007900120151E064027007A29240030208FE
:1007E0008E7508007509027808121EE57402121F42
:1007F0004C850C08850D09AA08E5095407FB850EF0
:100800000A850F0B740B7808121E9CA90812190098
:100810007402121E4C7E007F009003CAC0828E10AC
:10082000EFF5113395E0F512F513850C08850D09E8
:10083000850E0A850F0B78087910121F1E9003C6CB
:100840007808121F0B758303D0827808121E0F5090
:100850001D851882851983E5822EF582E5833FF593
:1008600083E0F9AA14AB151208E28A148B150EEE78
:1008700070010FC3EF940240A09003CE780C121FBA
:100880000B9003D2780C121E0F40030207B67900BA
:10089000AA14AB151208E279001208E28B15900336
:1008A000D6E07004C2AFC2AAEA451570277AA57BCC
:1008B000A58021E870030207D5740668700302075B
:1008C000D574076870030207D5851682851783746F
:1008D00001F080BA758200758302121E2E7F10020D
:1008E0001D81C008C0097C088A088B09740F78082C
:1008F000121F63E508F8EA25E0FAEB33FBE9A2E70B
:10090000500474014AFAE8A2E0500874216AFA74AB
:10091000106BFBE9C333F91CEC70CDD009D0082271
:10092000C082C083120F4860030209F2A3E0F8A35B
:10093000E060030209F2A3E064027002A3E0600336
:100940000209F29003B8E02480600914604C14603E
:10095000590209F2E860030209F29003B2E0900341
:10096000C060077401F0A3E48003E4F0A3F09003F7
:10097000B1E060079003C0E04402F09003A6E06499
:100980000460149003B374C0F0A37403F0A3E4F004
:10099000A37402120FAAF0020E8390039FE0640476
:1009A00070509003C0E4F0A380D0E8547FFA900325
:1009B0009FE06404703CEAC394065036749F2AF5A5
:1009C00082E43403F583E85480600EA3A3A3A3A3B9
:1009D000A3A3E0640370CB800FE582240CF5825062
:1009E000020583E0640370BA9003C07401F0A3E4CD
:1009F00080889003A67404809D74F8121BE2E9FEBF
:100A00009003BE120F4B6003020ADB90039FE06469
:100A100004600B9003BC120F4B6003020ADB9003CF
:100A2000B8E0541F6009146030146020020ADB90A3
:100A300003BAE064017022EE9003B1F0600479051E
:100A4000800279067A00121BE0020AE19003BCE002
:100A5000547FFA9003BAE060057900020AE3EAC322
:100A600094065077EA90620EF0749F2AF8E43403FB
:100A7000F99003BCE05480602EEE60047410800294
:100A80007440906211F0EE60047B0380027B00EB07
:100A900088828983A3A3A3A3A3A3A3F0EE60047910
:100AA00008802F7907802BEE60047B2080027B80FA
:100AB000EB906214F0EE60047B0380027B00E8247C
:100AC0000CF582E439F583EBF0EE6004790A8002DC
:100AD0007909121BE090620EE480059003A674046D
:100AE000F079017F01021D8179001209F9E9700393
:100AF000121BCF2279011209F9E97003121BDE22C1
:100B0000C082C0839003BC120F4B7015A3120F4B11
:100B1000700F9003BA120CEE5480FAE9FBEA4B60B6
:100B2000079003A67404801AE8906200F090039F77
:100B30006009E06402700C74038007E064037003D2
:100B40007402F0020E8374F1121BE29003BAE0FC0F
:100B5000A3E0FBE4CBFA14600814601014603B803F
:100B600059121769120CD5A37B808043ECFA7900E7
:100B700012178B120CD57B80E92402F9E43AFA12A1
:100B80001E82FC1919E0FAA3E92403F9E43AFA12E7
:100B90001E82F9ECA3F0A3E9801CECF91217F9907E
:100BA00003B3EAF0A3EBF0A3E4120CE4A37B00127E
:100BB0001E82A3F0A3E4F0020C8F9003B3E4F0A331
:100BC000F0A3F0750B009003BCE0F50CA3E0F50D6D
:100BD00090047DE0FEA3E0FF020C6A8B09740378A9
:100BE00008121F31EE2508F8EF3509F9880E8882C2
:100BF000F583E493F8EA687001E4706CA3E493F879
:100C0000EC687001E47061850E828983A3A3E4938C
:100C1000F508E50D65087001E4704D850E82898345
:100C2000A3A3A3E493F8E50C687001E4703A850E81
:100C3000828983A3A3A3A3E493F508740193F50920
:100C40009003B3E508F0A3E509F0A37480F0850EE6
:100C5000828983A3A3A3A3A3A3E493F8740193F9C4
:100C60009003B6E8F0A3E9F0050B850B0890047F2C
:100C7000120CEEC39EF50EE99FF50F7403780E1269
:100C80001F63C3E508950EE4950F5003020BDB903C
:100C900003B3E0FCA3E0FDA3E0FEEC4D4E9003A601
:100CA000700474048029E0640460259003BEE0FAB7
:100CB000A3E0FB9003B6E0F8A3E0F9C3EA98EB9950
:100CC00050089003B6EAF0A3EBF09003A67401F08D
:100CD0007F08021D819003B3EAF0A3EBF0A37480B8
:100CE000120CE422F09003B3E0F9A3E0FA22E0F85A
:100CF000A3E0F9E82274EE121BE2EA2404F8E43BD4
:100D0000F9880889098882F583E493602590048135
:100D1000120CEEFEE9FF8007EE2404FE50010F8E58
:100D2000828F83E493F8740193F9EA687002EB69A7
:100D300070E6750B00803F9062147490F07410128E
:100D40000E4A7003750A408E828F83A3A3A3E49397
:100D5000550E6006E50AD2E0F50AE50A906215F044
:100D6000EA906213F0EC240CF582E43DF583E4F0A4
:100D700090620EF0050B850882850983E493F8E5FF
:100D80000BC3984003020E457A0079051216FC8ABF
:100D90000C8B0DEA450D60DCEA2402F8E4350DF910
:100DA000881089118882F583E493540FF5129062BC
:100DB0000EF0750A008A828B83A3A3A3A3E4932475
:100DC00007F50EA3E4933400F50F7403780E121F99
:100DD00063AA0EA812749F28F8E43403F9E8FCE92A
:100DE000FD750E01750F00E512780E121F31E50E2C
:100DF000F50EE50C2403F8E4350DF9851082851114
:100E000083E493A2E74003020D379062117448F027
:100E10007408120E4A7003750A408E828F83A3A352
:100E2000E493550E6006E50AD2E0F50AE50A906201
:100E300012F0EA906210F08C828D83A3A3A3A3A387
:100E4000A3A3020D6E7F0B021D81F088828983E4CB
:100E5000935403640122C082C083120F487010A310
:100E6000120F4B700AA3E064017002A3E0600790C8
:100E700003A67404800C9003B374A0F0A37403124F
:100E80000FA0F0D083D0822274F3121BE290039F54
:100E9000E0640260149003BC120F4B700CA3120F9D
:100EA0004B70069003BBE060099003A67404F00247
:100EB0000F437A007901121BE09003BAE0606F7A69
:100EC00000F912178B8A0A8B0BEA450B60589003C6
:100ED0009F7404F09003BAE09003A0F075080085B9
:100EE0000A82850B83A3A3A3A3E493F8E508C39820
:100EF000504AA80874A128F8E43403F9E8FEE9FF91
:100F00008E828F83E4F07A0079041216FC8A828B39
:100F100083A3A3A3E493F88E828F83E06870E71223
:100F20000CF5050880B99003A67404F0800E9003B8
:100F3000A0F090039F7403F0F912167C7A007902F6
:100F4000121BE07F06021D819003BAE0F8A3E0F9CE
:100F5000E8492274F6121BE290039FE064047019C2
:100F60009003B8E064817011120F48700C9003BEBA
:100F7000E064017002A3E060079003A67404801A85
:100F80009003BCE024A1F508A3E03403F509900325
:100F9000B3E508F0A3E509120FA0F07F03021D815D
:100FA000F0A3E4F0A304120FAA22F0A3E4F090034C
:100FB000A6042274F7121BE290039FE0640470649D
:100FC0009003B8E06401705C9003BE120F4B705444
:100FD0009003BAE0FB9003BCE0FA9003A0E0F912A2
:100FE00017C38A088B09AE08AF09EE4F603690032D
:100FF000BCE0FA7903121BE09003BAE0C0E0900372
:10100000BCE024A1F8A3E03403F988828983D0E00E
:10101000F0EEFAEFFB120CF59003BCE0FA79041243
:101020001BE080069003A67404F07F02021D81C0BD
:1010300082C0838003121A46A2E840F9A823E8542C
:101040000460097823E654FBF6121423A823E8541D
:101050001060097823E654EFF6121444A823E8A29E
:10106000E05005782354FCF690620EE0FA7404F028
:10107000906214E0A2E05039A9A8C2AF906216E0D5
:10108000F8A3E0E8FBE9A2E792AF8017906228E0BE
:10109000C0E0900393E0F8121131D0E0F090039398
:1010A000E004F0EBFD74FF2DFB0470E0906214E4AB
:1010B000F0EA90620EF0E0FC7404F0906211E0A29D
:1010C000E04031900395E0F8900394E06860257A61
:1010D00040900394121174E0906228F0900394E021
:1010E00004F008900395E06860041AEA70E39062E7
:1010F000117401F0EC90620EF0D083D0822274F86B
:10110000121BE2E9FE79008012121131E08A828B13
:1011100083F0900392E00412116909900392E0F8C1
:10112000900393E0686005E9C39E40DD7F01021DE6
:1011300081748528F582E43404F58322C082C0835B
:10114000E9FC80188A828B83E0C0E090039512113D
:1011500074D0E0121169900395E004F0ECF874FF8C
:1011600028FC0470DF79018090F08A828B83A3AA27
:1011700082AB8322E0F8748528F582E43405F58398
:1011800022C082C083900395E0F8900394E06860E9
:10119000047901800279000210F902102F74FB1209
:1011A0001ECB7E009006857808121F81794A1213A3
:1011B000D29006857401F0A3F0A37469F0A374A51E
:1011C000F09003D77808121EF670047E0180159007
:1011D00003DB7808121EF66008E59D541864107051
:1011E00003022000EEF9121349C280D291EEA2E070
:1011F00050030212FCAA18AB19120291E970030203
:1012000012FCC291851882851983E0C3943C500E6C
:10121000E0F8743CC398F50895E0F5098006750878
:1012200000750900E4F50AF50B9003DF780C121F36
:10123000817808790C121AE6790612015112102FE2
:10124000120176E9F8740968700779061201518075
:10125000277407686016A2935012E8600874066845
:1012600060030212FCA292400F0212FC7508007586
:101270000900750A00750B0085080C85090D850AA3
:101280000E850B0F9003C27808121F0BE50C450D5D
:10129000450E450F70A7D2807907120151800312C5
:1012A000102F121181E970F77E007F007401121F68
:1012B0009DE4F0A37426F0A3E4F0A3F07401121FE0
:1012C0009D7808121F8185080C85090D850A0E85F9
:1012D0000B0F9003C2780C121F0B7401121F9D7824
:1012E0000C121F72E5084509450A450B70CEA29203
:1012F00050FCA29350F81213CD022000D280D2915C
:10130000794E1213D2750800750900750A00750B25
:1013100000790512015112102F120176E9F87409B3
:101320006860EE74016870EE12102F9003E3780885
:10133000121F0B9003E77808121E0F50EB1213CD0B
:101340000220007405121E4C2274F8121BE2E9FE02
:1013500053BEFBE59DA2E650FA0078F8790100E85B
:1013600024FF18E934FFF9E84970F375C6807480EA
:10137000659E70FA43BE049062707408F01213C246
:10138000EE700853F4FEC29043FE017403F5D57568
:10139000D489900396E4F0A374C2F0A37401F0A37F
:1013A000E4F0A3F0A3F0A37408F01213E87AFF7B33
:1013B000FF121A0153F4FED29043FE011213C2022F
:1013C000112CD28043FD01C29143FE0222D280C281
:1013D0009122781075B60FE5B4A2E750FAE5BBC3C9
:1013E0009940F118E870ED2274F7121BE27A007947
:1013F0000112178B8A828B83A3A3A3A3A3A3A3E4C5
:1014000093A2E69003B2500474018001E4F09003CB
:10141000B1E4F090620F7403F0E0A2E750FB7F02AA
:10142000021D81C082C08390039F7402F0A3E4F088
:101430009003A6F0790312167C752100752200D066
:1014400083D0822274F6121BE290620EE0FEE4F07A
:10145000906211E0FFA2E4501D7480F09003A67426
:1014600007F0E52145226009852182852283121F2C
:10147000AC9003A6E4F0EFA2E2500B906211E4F00E
:101480009003A6F080679003A6E0F87402687046A7
:10149000906216E0FF9003B3121DC1EFF97A207B32
:1014A000621216967403121E4CEFF89003B61216D1
:1014B0005A1216642F12166CA3E0F8A3E0F9E8495B
:1014C0006004744080027448906211F0E84960033F
:1014D00002165002162C7406687009852182852236
:1014E00083121FAC9003A6E060030215D7EFA2E0C1
:1014F00040030216507508B8750903750A0078088C
:10150000121EE179087A207B621216967403121E6D
:101510004C7521007522009003B8E054E0601D2452
:10152000E070030215B224E0607224C0604824E039
:1015300070030215BD24E0606E0215C8A3E01460BC
:101540002624FE601D24FE600A24FC601F24FE6029
:10155000208075120B009003A6E06404707278601E
:101560008070120AF480EF120AE880EA120E888076
:10157000E5120FB380E0A3E0600E24FA600F24FEB2
:10158000601024FE6011804012092080C9120B46B1
:1015900080C4120E5680BF120F5380BA7521CB75CE
:1015A000221B121BCB80AF7521CD75221B121BCDC8
:1015B00080A475216675221B121B66809975219681
:1015C00075221B121B96808E9003A67404F0808EE9
:1015D0007840E8906211F09003A6E0F8740168701A
:1015E000617F029003B6E0F8A3E0F9C3E89420E934
:1015F00094005007E8F5087F0A80037508209003DF
:10160000B3121DC1A9087A207B621216C17403129D
:101610001E4CAC081216642C12166CA808A31216E5
:101620005AEF906211F0E8C394205024E52145223E
:101630006009852182852283121FAC9003A6E4F005
:10164000800E7405687009852182852283121FAC83
:10165000EE90620EF07F03021D81C3E098F0A3E0DC
:101660009400F0229003B31216EEE922F9E43AFA5C
:101670009003B3E9F0A3EAF0A3EBF022C082C083A9
:10168000E99003A77805F0A3D8FC9003AC7805F0A7
:10169000A3D8FC02143F74F8121BE2EAFCEBFDE94C
:1016A000F87408121F9D1216E960118C828D83E078
:1016B000121EB5E9240109E43AFAD8EF7F01021DB0
:1016C0008174F8121BE2EAFCEBFDE9F87408121FC2
:1016D0009D1216E96011121E828C828D83F0E9241E
:1016E0000109E43AFAD8EF80D31216EEE822E0F9C5
:1016F000A3E0FAA3E0FB22D083D08222C082C08381
:10170000E9FCEAFD7A007B00800312174790039DF5
:10171000E0F8A3E0F990047BE0687003A3E069605F
:101720002490039EE0F5838882A3E493F8EC68702C
:101730000D90039DE0FAA3E0FB1217478007ED68C8
:1017400070C8ED60C580B090039DE0F8A3E0F5831C
:101750008882E493F890039DE028F8A3E03400F930
:1017600090039DE8F0A3E9F022C082C08312177AAB
:101770007A0079011216FC0216F7900479E0F8A3BA
:10178000E0F990039DE8F0A3E9F02274F7121BE260
:10179000E9FFEAFE12177A7A0079021216FCEA4B88
:1017A000601CEF60108A828B83A3A3A3A3A3E4939E
:1017B0006F70E48009EEF874FF28FE0470D97F0290
:1017C000021D8174F5121BE2EAFF8B087A001217E2
:1017D0008B7A0279041216FCEA4B60188A828B839A
:1017E000A3A3E4936F70EA8A828B83A3A3A3E493F9
:1017F000650870DD7F04021D8174F7121BE274F02E
:10180000121ECBE97A007B00600C14601014601487
:101810001460180218E97AF37B030218E97AF77B5F
:10182000030218E97A1B7B040218E990043FE06088
:10183000030218E59003EB7408121F4C7408121D84
:10184000EE750808F5097808121EE57402121F4C9F
:101850007AE87B07797F1219007402121E4C78080F
:10186000121EE5740A121F4C7402121F44121CA5AA
:101870007402121E4C8B09EA45097019750900782B
:1018800008121EE57C0C7D787402121F44121D3B69
:101890007402121E4C7C287D00EDF8851882851993
:1018A00083E58228F582E43583F583E0FFECF87464
:1018B0003F28F8E43404F9EF1218F188828983F0A4
:1018C000EFC41218F1C0E0E824FEF582E934FFF518
:1018D00083D0E0F00D74FC2CFCEDC3940840BA906A
:1018E000043F742AF07A3F7B047410121E4C0217D6
:1018F000BE540FFA74692AF582E43404F583E022B9
:1019000074F6121BE2890A740F550AF5087509006E
:10191000740B7808121F31EA2400F8EB3480F9E8E0
:101920002400E93509F985C709A2AFE433F508C2F7
:10193000AFE50AC4540FFAE5C754F84AF5C7740A6C
:10194000121F9DE0FAA3E0FB801C88828983E08C53
:10195000828D83F088828983A3A882A9838C828D5B
:1019600083A3AC82AD83EAFEEBFFEE24FF1AEF34D3
:10197000FFFBEE4F70D48509C7E508A2E092AF7F68
:1019800003021D8174F7121BE2ED900389F0ECA3B2
:10199000F0A37462F0A37473F0A3E0541FF0740911
:1019A000121F9DE0F508A3E0F509E508333354FC68
:1019B00090038EF074067808121F63E50890038D7B
:1019C000F090038F7412F0A37442F075D1FE75D6B7
:1019D00001EA906271F0EBA3F0906270E0D2E1F066
:1019E000E0A2E740FB7F02021D81C082C083E9C301
:1019F00033906272F0906270E0D2E0F0D083D082D7
:101A00002274F7121BE27523007524007525008AE5
:101A1000268B27EA90620BF08A088B0974047808F9
:101A2000121F63E508906207F08A088B0974097831
:101A300008121F63E508543E906209F0758B00C2DE
:101A4000E87F02021D8174F7121BE2E59DA2E650B9
:101A5000FA906206E0F9A2E25034AA26EA90620BFC
:101A6000F0F50885270974047808121F63E50890CB
:101A70006207F08A0885270974097808121F63E550
:101A800008543E906209F0906201E0D2E0F0E978FB
:101A90002346F6906202E0F50875090074047808A0
:101AA000121F317823E50846F608E50946F69062EC
:101AB00004E0F50875090074097808121F317824CC
:101AC000E50946F6E9A2E050037525017406596060
:101AD00003752500E58BA2E55006758BDF752500A3
:101AE000121BE1021A3C080808EAC0E0EBC0E086DD
:101AF000F0E7A4FA180986F0E7A42AFA180986F094
:101B0000E7A42AFA180986F0E7A42AFA1986F0E76A
:101B1000A4FBE5F02AFA190886F0E7A42BFBE5F010
:101B20003AFA190886F0E7A42BFBE5F03AFA181800
:101B30000986F0E7A4C5F02BFBE43AFA1908E7C5DB
:101B4000F0C6A426F6E5F03BFBE43AFA1886F0E787
:101B5000A4F6E5F00826F6E43B08F6E43A08F6D0E9
:101B6000E0FBD0E0FA22C082C0839003B9E0F874B1
:101B7000226870089003A6E0701A801174206890A3
:101B800003A6700DE0700D121BBD9003A6740280B9
:101B9000027404F08043C082C0839003B9E06421E2
:101BA0009003A67013E07013121BBDA37407F0A37B
:101BB000E4F09003A60480027404F0801C9003B348
:101BC0007496F0A37403F0A3E4F02280028000C0B6
:101BD00082C0839003A67404F0D083D0822280EF69
:101BE00022222518C582C0E0E51934FFC583C0E074
:101BF000E518C3958224F910AF08858319858218EA
:101C00008008858319858218D2AFCEF0A3E520F035
:101C1000A37808E608F0A3DEFAEFF0A3E58124FB41
:101C2000F8E608F0A3E608F0A30808E608F0A3E643
:101C300008F0A315811581D0E0FED0E0F8158115DC
:101C400081E8C0E0EEC0E0221201000202000020A4
:101C50005104A81609000102030109024300020110
:101C6000008019090400000102020100052400108F
:101C700001042402020524060001052401000107D5
:101C800005820340004009040100020A0000000729
:101C900005840240000007050402400000631C00A8
:101CA00000861C000074F8121BE27408121F9DE0ED
:101CB000FEA3E08015A3AA82AB838C828D83A3ACA4
:101CC00082AD83EE24FF1EEF34FFFFEE4F60198CD0
:101CD000828D83E0F88A828B83E0F9E86960D6E937
:101CE000C398FA95E0FB80047A007B007F01021D17
:101CF00081E479217807B800028004F709D8FCE470
:101D000090030278C179018002F0A3D8FCD9FA7A55
:101D1000C27B0390008E78C479018015E493A3AD53
:101D200082AE838A828B83F0A3AA82AB838D828E5C
:101D300083D8E9D9E712119D121FA774F7121BE28D
:101D4000EAF8EBF97409121F9DE0FEA3E0FF80188A
:101D50008C828D83E088828983F0A3A882A9838CFA
:101D6000828D83A3AC82AD838E088F09E50824FFA2
:101D70001EE50934FFFFE508450970D47F02021D06
:101D800081851983851882E0A3FEE0A3F5207808F9
:101D9000E0A3F608DFFAE0A3FFE0A3C0E0E0A3C001
:101DA000E0E0A3C0E0E0A3C0E010AF0885821885A2
:101DB00083198008858218858319D2AFD083D08299
:101DC0002274038000CCC0E0EDC0E0E518C39CCCD9
:101DD000AD1950011D10AF068C188D1980068C1896
:101DE0008D19D2AF121DEED0E0FDD0E0FC22CAC0AA
:101DF000E0E0A3C582CCC582C583CDC583F0A3C571
:101E000082CCC582C583CDC583DAE6D0E0CA22C0C4
:101E100008C3E096F50808A3E096420808A3E096F8
:101E2000420808A3E09645087001D3D00822C58275
:101E30002518C582C583351910AF07F51985821895
:101E40008007F519858218D2AFC5832200C0D0253E
:101E50001810AF08F518500C05198008F518500235
:101E60000519D2AFD0D0222518F58210AF08F51889
:101E7000400C15198008F51840021519D2AF8519C4
:101E80008322BB0102E722C082C08389828A83BB8E
:101E90000003E08002E493D083D082226016080819
:101EA00008C6C313C618C613C618C613C618C61369
:101EB000C6D5E0EA22BB000EC082C0838A83898235
:101EC000F0D083D08222BB0101F722251810AF0881
:101ED000F518400C15198008F51840021519D2AFF5
:101EE000227403800474028000C0E0F404121E67B0
:101EF000D0E0121F9022E066701008A3E066700A1E
:101F000008A3E066700408A3E06622E026F608A3B2
:101F1000E036F608A3E036F608A3E036F622E62718
:101F2000F60809E637F60809E637F60809E637F64F
:101F300022700422600D18C6C333C608C633C6D546
:101F4000E0F418222518FAE43519FB222518FCE4E0
:101F50003519FD2275D00075813F7518027519037A
:101F6000021CF1600C08C6C313C618C613C6D5E020
:101F7000F422E6F008A3E6F008A3E6F008A3E6F0F2
:101F800022E0F608A3E0F608A3E0F608A3E0F622B4
:101F9000CAC0E0E6F0A308DAFAD0E0FA222518F584
:101FA00082E43519F5832200000080FBE473FFFF13
:101FB000FFFFFFFFFFFFFFFFFFFFFFFFFFFFFFFF31
:101FC000FFFFFFFFFFFFFFFFFFFFFFFFFFFFFFFF21
:101FD000FFFFFFFFFFFFFFFFFFFFFFFFFFFFFFFF11
:101FE000FFFFFFFFFFFFFFFFFFFFFFFFFFFFFFFF01
:0A1FF600850609433886000000004C
:020000040003F7
:01FFF000F020
:020000040000FA
:10200000022DE002224FFFFFFFFFFFFFFFFFFFFF58
:10201000FFFFFFFFFFFFFFFFFFFFFFFFFFFFFFFFD0
:10202000FFFFFFFFFFFFFFFFFFFFFF022B56FFFF3A
:10203000FFFFFF022271FFFFFFFFFFFFFFFFFFFF18
:10204000FFFFFFFFFFFFFFFFFFFFFFFFFFFFFFFFA0
:10205000FFFFFF022189FFFFFFFFFFFFFFFFFFFFE1
:10206000FFFFFFFFFFFFFFFFFFFFFF022A70FFFFE1
:10207000FFFFFFFFFFFFFFFFFFFFFF0228C1FFFF82
:10208000FFFFFF0221E001FFFFFFFFFFFFFFFFFF58
:10209000102010200100F8FE0700000100FFFF00E3
:1020A00000030400000F0100000300010020FD00F8
:1020B000020000373300000000B332BB330733792E
:1020C000330000DD3200000000000000000000E9E5
:1020D0003200000000000000000000F53206FFFFA3
:1020E000FF00035F005F00300058000000000000A8
:1020F00000000000000000000000000000000000E0
:102100000000000000000000000000E12636273635
:1021100027362736273E2701040000581400000008
:10212000E8030000FFFF2815018813000003E803FF
:10213000000064006400B801A0BB0D00A0BB0D004E
:102140000202020704010101051E02051E020A0A1D
:1021500001010809080103B80B02803E0102FEFFDD
:10216000E8030A050001FFFF0A011401E00105036D
:102170000101FF0F10FEFF2650000000005C4F0021
:10218000000000FF000000FF00C0E074F212268291
:10219000A2AFE433F508D2AFAFA7AEA1EE5F541003
:1021A000600612303175A1EFEE5F540860081230FE
:1021B0003775A1F78023EEA2E092F0EFA2E082F063
:1021C0005017906198E0F8900561E0C398A2D2653D
:1021D000D0335002E8F075A1FE751A00E50880665C
:1021E000C0E074F2122682A2AFE433FED2AF906157
:1021F000A4E0F8759B00E59158540860087591F7C4
:102200001230858023E59158541060087591EF12C3
:10221000308B8014E591A2E092F0E8A2E082F050C9
:1022200007E0C2E0F01231E19061A3E0F8E5E9587F
:102230005404600E1231B775E9FB906193E0A2E699
:1022400040F2751A00EEA2E092AF7F0102273EC075
:10225000E074F2122682A2AFE433FED2AF9061A501
:10226000E0F8E5BF585404600675BFFB1231F980F1
:10227000D1C0E074F1122682E59DA2E650FA906288
:1022800006E0F9A2E25034AA2CEA90620BF0F508BD
:10229000852D0974047808122DF0E508906207F086
:1022A0008A08852D0974097808122DF0E508543E36
:1022B000906209F0906201E0D2E0F0E9782946F6F8
:1022C000906202E0F50875090074047808122D3058
:1022D0007829E50846F608E50946F6906204E0F537
:1022E0000875090074097808122D30782AE5094626
:1022F000F6E9A2E05003752B017406596003752BB3
:1023000000E58BA2E55006758BDF752B0012374573
:10231000758B00C2E87F0202273EC3E498F8E49977
:10232000F912235B8026C3E49AFAE49BFBE920E7D9
:10233000E912235BE498F8E499F922C3E498F8E4FD
:1023400099F912235BE498F8E499F9C3E49AFAE462
:102350009BFB22EB20E7CFE920E7E0B90010BB00B0
:1023600008E88AF084F8AAF022E4FBC8FA22EB70AD
:10237000227B10C833C8C933C9335007C39AC3DBA3
:10238000F280069A50012ADBEAC833F4C8C933F454
:10239000C9FA2275F008E4C833C8C933C933C99AE9
:1023A000C99B5004C92AC93BD5F0ECFBC833F4C81B
:1023B000E4C9FA2274F512261C74FA122C27750847
:1023C000047509007808122B967404122C077AF809
:1023D0007B077903122F0B7402122BA990814F787F
:1023E00008122E0E7402122E657808122C7E704987
:1023F0007508027509007808122B967402122C07D2
:102400007AF67B077903122F0B7402122BA9851819
:1024100082851983E0F47003A3E0F4601C851882C0
:10242000851983E0F8A3E0F9888289837402F0A318
:10243000F0A37469F0A374A5F0C2AF75D69F020033
:10244000007406122BA97F04022904080808EAC0B8
:10245000E0EBC0E086F0E7A4FA180986F0E7A42ACA
:10246000FA180986F0E7A42AFA180986F0E7A42AE0
:10247000FA1986F0E7A4FBE5F02AFA190886F0E7D6
:10248000A42BFBE5F03AFA190886F0E7A42BFBE54C
:10249000F03AFA18180986F0E7A4C5F02BFBE43AE5
:1024A000FA1908E7C5F0C6A426F6E5F03BFBE43AC6
:1024B000FA1886F0E7A4F6E5F00826F6E43B08F6FD
:1024C000E43A08F6D0E0FBD0E0FA22122E5AB90026
:1024D0000302252BE47921780DB800028004F70966
:1024E000D8FCE49004D1785F79158002F0A3D8FC81
:1024F000D9FA781A9020867A01BA00028007E4930C
:10250000A3F608DAF97A2F7B1990209478F67901EE
:102510008015E493A3AD82AE838A828B83F0A3AA55
:1025200082AB838D828E83D8E9D9E775829D7583CE
:102530009F7407122B3875825975834D7400122BC6
:1025400038E4CFC0E0E4CEC0E0E4CDC0E0E4CCC0ED
:10255000E075F020E626F608E633F608E633F608DE
:10256000E633F6181818EC33FCED33FDEE33FEEFCE
:1025700033FFC3EC9709ED9709EE9709EF97191907
:1025800019400FFFEC97FC09ED97FD09EE97FE1936
:102590001906D5F0BFECF709EDF709EEF709EFF7EB
:1025A000191919D0E0FCD0E0FDD0E0FED0E0FF2208
:1025B0002518C582C0E0E51934FFC583C0E0E518E1
:1025C000C3958224F810AF08858319858218800886
:1025D000858319858218D2AFCEF0A3E520F0A378C9
:1025E00008E608F0A3DEFAEFF0A3E58124FAF8E6A6
:1025F00008F0A3E608F0A3E608F0A30808E608F050
:10260000A3E608F0A315811581D0E0FED0E0F8150F
:102610008115811581E8C0E0EEC0E0222518C58251
:10262000C0E0E51934FFC583C0E0E518C3958224F6
:10263000F910AF088583198582188008858319856C
:102640008218D2AFCEF0A3E520F0A37808E608F018
:10265000A3DEFAEFF0A3E58124FBF8E608F0A3E699
:1026600008F0A30808E608F0A3E608F0A315811512
:1026700081D0E0FED0E0F815811581E8C0E0EEC021
:10268000E022C0D02518C582C0E0E51934FFC5831B
:10269000C0E0E518C3958224F310AF08858319853F
:1026A00082188008858319858218D2AFC8F0A3E903
:1026B000F0A3EAF0A3EBF0A37908E709F0A3D8FAB6
:1026C000ECF0A3EDF0A3EEF0A3EFF0A3D0E0F0A3C5
:1026D000D0E0F0A3D0E0F0A3E520F0A3E5F0F0A374
:1026E0002212010002020000205104A81609000174
:1026F00002030109024300020100801909040000DD
:102700000102020100052400100104240202052434
:10271000060001052401000107058203400040096D
:10272000040100020A0000000705840240000007BF
:10273000050402400000FC2600001F270000851948
:1027400083851882E0C0E0A3E0F9A3E0FAA3E0FBF0
:10275000A37808E0F608A3DFFAE0FCA3E0FDA3E01D
:10276000FEA3E0FFA3E0C0E0A3E0C0E0A3E0F5D05B
:10277000A3E0F520A3E0A3F5F010AF088583198549
:1027800082188008858319858218D2AFD082D083C1
:10279000D0E0F8D0E032E47375F0108E218F2285FE
:1027A0008226858325851882851983E0CEA3E0CF14
:1027B000852682852583EBC9EAC8EDCBECCAC3E840
:1027C00033C8E933C9EA33CAEB33CBC3EA9EF524F5
:1027D000EB9FF523B35004AB23AA24EC33CCED33A9
:1027E000CDD5F0DAAE21AF2222D083D082ECC0E08A
:1027F000EDC0E0E493A3FCE493A3FDED4C600D1267
:102800002944EC24FFFCED34FFFD80EFE493A3FCAE
:10281000E493A3FDED4C600D122A1BEC24FFFCEDAC
:1028200034FFFD80EFD0E0FDD0E0FCE493A3C0E0F6
:10283000E493C0E022851983851882E0A3FEE0A31B
:10284000F5207808E0A3F608DFFAE0A3FFE0A3C0D4
:10285000E0E0A3C0E0E0A3C0E0E0A3C0E0E0A3C0EC
:10286000E010AF0885821885831980088582188555
:102870008319D2AFD083D082022B3ED083D082E99D
:10288000C0E0E493A3C386F0C5F095F0F908E493A3
:10289000A386F0C5F095F0700BE493A3C3994005AF
:1028A000E9048002A3E475F002A42582F582E5F034
:1028B0003583F583D0E0F9E493A3C0E0E493C0E06E
:1028C00022C0E074F2122682A2AFE433FED2AFE55A
:1028D0008AA2E25007900522E0D2E0F0E58AA2E366
:1028E0005007900522E0D2E1F0758A00C2EB7A1021
:1028F0007B0090051EE0F91234E7EEA2E092AF7F74
:102900000102273E851983851882E0A3FEE0A3F526
:10291000207808E0A3F608DFFAE0A3FFE0A3C0E018
:10292000E0A3C0E0E0A3C0E0E0A3C0E010AF0885F2
:1029300082188583198008858218858319D2AFD0C3
:1029400083D08222C0E0C3E4939608740193961862
:10295000400FE49366700808740193661870007065
:1029600019A3A3C3E49396087401939618A3A340F4
:102970000DD0E0D0E0D0E0022825A3A3A3A3A3A319
:10298000D0E022D083D082C5F0E493A3C5F0C395F4
:10299000F0F5F0E493A3C395F04005E5F004800161
:1029A000E475F002A42582F582E5F03583F583E431
:1029B00093A3C0E0E493C0E0227404800874038011
:1029C0000474028000CCC0E0EDC0E0E518C39CCCEC
:1029D000AD1950011D10AF068C188D1980068C188A
:1029E0008D19D2AF122ABAD0E0FDD0E0FC227402D9
:1029F0008000CCC0E0EDC0E0E518C39CCCAD195020
:102A0000011D10AF068C188D1980068C188D19D2F7
:102A1000AF122A98D0E0FDD0E0FC22C0E0C0F088E0
:102A2000F0E4936670080874019366187000A8F0CB
:102A3000A3A3700BD0F0D0E0D0E0D0E0022825A313
:102A4000A3D0F0D0E022D083D082CCC0E0E493A326
:102A50006006122ADB1470FAE493A36006122C536A
:102A60001470FAD0E0FCE493A3C0E0E493C0E02249
:102A7000C0E074F2122682758900C2C59016DAE0B1
:102A8000700E7A007B109005F7E0F91234E78003AE
:102A9000123DFF7F0102273ECAC0E0E493A3C58236
:102AA000CCC582C583CDC583F0A3C582CCC582C504
:102AB00083CDC583DAE5D0E0CA22CAC0E0E0A3C571
:102AC00082CCC582C583CDC583F0A3C582CCC58227
:102AD000C583CDC583DAE6D0E0CA22C0E0E493A383
:102AE000D39C5010E493A3C39C400AD0E0D0E0D024
:102AF000E0022A63A3A3A3D0E022700908080822F9
:102B00006016181818C6C333C608C633C608C633BD
:102B1000C608C633C6D5E0EA22C008C3E096F50869
:102B200008A3E096420808A3E096420808A3E096AE
:102B300045087001D3D00822C09FF59FE473D09F51
:102B400022D083D082C09FE493C0E0740193C0E0A0
:102B5000740293F59F22C0E0C0D0E8C0E0A8A8D2DC
:102B6000AFC2C7751A00E8A2E792AFD0E0F8D0D0A4
:102B7000D0E0322518F58210AF08F518400C151971
:102B80008008F51840021519D2AF85198322740404
:102B9000800A74038006740280027401C0E0F404A9
:102BA000122B73D0E0122E1D2200C0D0251810AFBA
:102BB00008F518500C05198008F51850020519D2AF
:102BC000AFD0D022BB0102E722C082C08389828AB3
:102BD00083BB0003E08002E493D083D0822260169E
:102BE000080808C6C313C618C613C618C613C618E5
:102BF000C613C6D5E0EA222518F8E43519F92225CE
:102C000018FAE43519FB222518FCE43519FD22C316
:102C1000E0C696F608A3E0C696F608A3E0C696F6C8
:102C200008A3E0C696F622251810AF08F518400C48
:102C300015198008F51840021519D2AF22BB000EF5
:102C4000C082C0838A838982F0D083D08222BB0174
:102C500001F722C0E0E493A36C7009D0E0D0E0D08B
:102C6000E0022A63A3A3D0E022E76670100809E718
:102C700066700A0809E76670040809E76622E066DC
:102C8000701008A3E066700A08A3E066700408A349
:102C9000E06622C3E09608A3E09608A3E09608A3A6
:102CA000E096A2D265D03322C3E697F60809E697EC
:102CB000F60809E697F60809E697F622C3E4939624
:102CC00008740193960874029396087403939622ED
:102CD000C3E096F008A3E096F008A3E096F008A3FE
:102CE000E096F022E026F008A3E036F008A3E036F4
:102CF000F008A3E036F022E647F60809E647F608B2
:102D000009E647F60809E647F622E627F60809E647
:102D100037F60809E637F60809E637F622E056F6F0
:102D200008A3E056F608A3E056F608A3E056F622FC
:102D3000700422600D18C6C333C608C633C6D5E07A
:102D4000F41822E056F008A3E056F008A3E056F08D
:102D500008A3E056F022E493F608740193F6087491
:102D60000293F608740393F622E026F608A3E036F1
:102D7000F608A3E036F608A3E036F622E657F60892
:102D800009E657F60809E657F60809E657F622E479
:102D9000C396F608E496F608E496F608E496F6225A
:102DA000C3E09608A3E09608A3E09608A3E0962265
:102DB000C6F4C608C6F4C608C6F4C608C6F4C622D9
:102DC000600D08C6A2E713C618C613C6D5E0F322E5
:102DD000C3E7960809E7960809E7960809E79622E7
:102DE00075D00075813F7518D1751904000224CB88
:102DF000600C08C6C313C618C613C6D5E0F422E695
:102E0000F008A3E6F008A3E6F008A3E6F022E0F657
:102E100008A3E0F608A3E0F608A3E0F622CAC0E0A3
:102E2000E6F0A308DAFAD0E0FA22EAF0A3EBF0A386
:102E3000ECF0A3EDF022E0FAA3E0FBA3E0FCA3E0BA
:102E4000FD22E0F8A3E0F9A3E0FAA3E0FB22E8F01A
:102E5000A3E9F0A3EAF0A3EBF022E5C754F844019C
:102E6000F5C77901222518F582E43519F583221278
:102E70002B41F3E705122B41CFE805122B41B4E9B2
:102E800005122B41F9E905122B415AEA05122B4193
:102E9000DCEA05122B4116EB05122B416EEB0512F5
:102EA0002B4190EB05122B4128EC05122B41CFEC66
:102EB00005122B4122ED05122B414EED05122B413F
:102EC0008FED05122B413CEF05122B4120F005122E
:102ED0002B41D1F005122B4158AD07122B4169ADA2
:102EE00007122B4107AE07122B41EB7F00122B413B
:102EF000D87F00122B416FAC07122B417FAC071219
:102F00002B4197AC07122B414BAD07122B417DAAE9
:102F100007122B4101AB07122B4169AB07122B4162
:102F2000D5AE07122B41D8AE07122B4111AF0712B5
:102F30002B4161AF07122B4174AF07122B4177AFC2
:102F400007122B41A3F606122B41B1F606122B41B4
:102F50002AF706122B41FFF706122B41BEF9061283
:102F60002B4123FA06122B417EFA06122B41F87FE1
:102F700000122B41909D07122B41C89D07122B4137
:102F8000169F07122B419A9F07122B41C8930712D5
:102F90002B41729407122B41AB9407122B41F294F0
:102FA00007122B41B59507122B41DD9507122B41D6
:102FB000039607122B41179607122B412C960712E6
:102FC0002B41359607122B4149CB06122B4175CB6D
:102FD00006122B411DCE06122B4174CE06122B4138
:102FE000B0CE06122B41C4CE06122B41DDCE061206
:102FF0002B41CECF06122B41AAD006122B41BED0B8
:1030000006122B4129A307122B414DA307122B4176
:1030100066A307122B41A4A307122B41D4A30712C6
:103020002B4101A407122B410BA407122B4171A4C1
:1030300007122B4174A407122B417EA407122B41C7
:103040008BA407122B4150FD03122B4170FD03127C
:103050002B41AFFD03122B41CDFD03122B41E8FDA7
:1030600003122B414EFE03122B415AFE03122B4139
:10307000B7FE03122B41C6FE03122B41EAFE0312D8
:103080002B41ABFF03122B41B8FF03122B41C9FFA9
:1030900003122B4176FF05122B418EFF05122B41A7
:1030A000BAFF05122B413BD606122B4195D70612CB
:1030B0002B41A3D706122B41B6D706122B41CBD7F3
:1030C00006122B41E0D706122B41F3D706122B41F3
:1030D0006FD806122B41D4D806122B415CD90612A8
:1030E0002B41D4D906122B41ADDA06122B41BDDAA1
:1030F00006122B41CCDA06122B412EB007122B41BF
:1031000052B007122B417AB007122B41A2B007121E
:103110002B416C9607122B41939607122B41B296C6
:1031200007122B41169707122B41FE9007122B41D5
:10313000179107122B41239107122B413791071248
:103140002B41559107122B415F9107122B41699139
:1031500007122B417C9107122B41099207122B4138
:10316000789207122B41A79207122B41F592071272
:103170002B41449307122B415F9307122B41699314
:1031800007122B417A9307122B41BD9307122B4153
:103190006DB107122B41B8B107122B417DA3061266
:1031A0002B41A9A306122B41C6A306122B41D9A37A
:1031B00006122B41F4A306122B414EA406122B41FA
:1031C0007CA406122B4182A806122B41D3A9061219
:1031D0002B4105AA06122B4167AA06122B41E1AB2F
:1031E00006122B4109AC06122B411EAC06122B41D4
:1031F0002EAC06122B416EAC06122B41B0AC06125F
:103200002B41C0AC06122B41F0A507122B410AA698
:1032100007122B4132A607122B414BA607122B4156
:103220006FA607122B418DA607122B41A4A60712E9
:103230002B41D2A607122B41EDA607122B4121AE3E
:1032400007122B4167AE07122B41DB8307122B417C
:10325000EB8307122B41F28407122B4126850712BC
:103260002B41528507122B41758507122B419385FF
:1032700007122B41CD8507122B41368607122B41B1
:10328000788607122B41BF8607122B41EC86071266
:103290002B41178707122B419AF206122B41FCF2A1
:1032A00006122B41A3F306122B41DAF306122B412F
:1032B000BEF105122B416DF205122B41A0F405124F
:1032C0002B4177F705122B4109F905122B416BF9B8
:1032D00005122B41EBFC05122B4133FE05122B414D
:1032E00047A807122B4192A807122B416B7D0012B1
:1032F0002B418E7F00122B41AE8A07122B41D28ABE
:1033000007122B41498C07122B41D2D006122B41B8
:1033100091D306122B412ED406122B415AD40612F9
:103320002B4188D406122B41BDD406122B41E5D483
:1033300006122B4145D506122B41779806122B41D8
:103340007E9C06122B417C9E06122B41AA9F0612E0
:103350002B418AA006122B413FA206122B410BA340
:1033600006122B415FA306122B41159907122B4120
:103370001F9907122B41409907122B4129D505129D
:103380002B413FDA05122B41A4DB05122B4180DDD6
:1033900005122B4104DE05122B41A3DE05122B4141
:1033A0009CDF05122B41CEE005122B41E6E1051210
:1033B0002B4101E305122B41008005122B4138807F
:1033C00005122B41098B05122B41068C05122B414E
:1033D000588D05122B41B58E05122B418E8F05128B
:1033E0002B415C9005122B41439105122B413292E7
:1033F00005122B41DA9205122B410A9305122B413B
:10340000BC9405122B41329505122B414B950512A8
:103410002B41AC9605122B416A9705122B41099856
:1034200005122B41B29805122B41209905122B4110
:10343000BE9905122B41419A05122B41799A05122A
:103440002B41909B05122B415E9C05122B410F9D39
:1034500005122B416EFE06122B4198FE06122B41DF
:10346000ADFF06122B41B0FF06122B41C7B0071269
:103470002B4109B107122B414BB107122B415BB114
:1034800007122B41BBC406122B41F9C406122B4173
:1034900062C506122B4181C506122B419AC5061240
:1034A0002B414CC606122B4155C606122B41A6C60F
:1034B00006122B41DCC606122B41F3C606122B4125
:1034C0005FC706122B41EFC706122B4125C8061213
:1034D0002B4169C806122B41CAC806122B41FCC8F1
:1034E00006122B416FC906122B41C3C906122B418C
:1034F00000CA06122B4137CA06122B4149CA0612CE
:103500002B415BCA06122B4193CA06122B41DFCA1C
:1035100006122B411DCB06122B41FDDA06122B4160
:103520003DDC06122B4160DC06122B4171DC0612D9
:103530002B4189DE06122B41A9DE06122B41559B39
:1035400007122B41899B07122B41D19B07122B415C
:103550002D9D07122B4154EB02122B4192EC0212CB
:103560002B41CEEC02122B419DEE02122B41C7EEF5
:1035700002122B415EF102122B419EF102122B41ED
:1035800033F302122B41C8F302122B4126F402122C
:103590002B41B9F402122B41F3F402122B4135F501
:1035A00002122B41A8F602122B412CF802122B41D9
:1035B00051FA02122B417FFA02122B41ABFA02128E
:1035C0002B41B4FA02122B410AFB02122B419AFB47
:1035D00002122B419DFE02122B411FFF02122B41B2
:1035E00080AF07122B4196AF07122B41A0AF0712F5
:1035F0002B41FCAF07122B413DEE06122B4153EE3F
:1036000006122B41F8EE06122B4137EF06122B4122
:1036100054EF06122B4185EF06122B41D2EF061212
:103620002B4106F006122B4141F006122B411DF2F0
:1036300006122B4188F206122B4120A707122B41BC
:103640007FA707122B41D9A707122B416AA907129E
:103650002B41DCA907122B411AAA07122B415BAAA6
:1036600007122B416DB506122B4173B506122B4183
:10367000BBB506122B41C7B706122B41F7B706128E
:103680002B4163B806122B4120B906122B4161B9B8
:1036900006122B4193B906122B411DBA06122B417B
:1036A00034BA06122B4141BA06122B414BBA06120C
:1036B0002B41EBBB06122B41F8BC06122B4156BD29
:1036C00006122B41F0AC06122B4106AD06122B411F
:1036D000B8AD06122B41E2AE06122B41D7AF06124F
:1036E0002B4174B006122B41AFB006122B4121B111
:1036F00006122B417FB106122B418FB106122B41CE
:10370000B6B106122B4108B206122B4171B3061254
:103710002B4176B306122B4198B306122B417CFF46
:1037200002122B41AAFF02122B41DFFF02122B4192
:10373000E1FF02122B41E3FF02122B41F4FF0212C0
:103740002B41F6FF02122B41F9FF02122B419AA1E5
:1037500007122B4108A207122B412AA207122B4164
:1037600062A207122B4198A207122B41E68D071285
:103770002B412D8E07122B41508E07122B41839027
:1037800007122B419D9007122B41C89007122B4125
:10379000C4B107122B41A4F801122B417DF901128B
:1037A0002B4163FA01122B4174FA01122B4185FA65
:1037B00001122B41D1FA01122B41C5FC01122B4100
:1037C0001FFE01122B414FFE01122B4113FF01126C
:1037D0002B4171FF01122B4130DD03122B4162DDC1
:1037E00003122B41F4DD03122B4162DF03122B4144
:1037F0005AE003122B41CFE103122B41EBE10312FC
:103800002B413AE203122B41CCE203122B4127E376
:1038100003122B413AE303122B41A4E303122B4181
:1038200013E403122B41BCE403122B41B1E5031254
:103830002B410CE603122B4192E603122B41FEE8CA
:1038400003122B41D5E903122B4113EB03122B4139
:1038500094EB03122B41D8EB03122B41A8EC03127B
:103860002B412FED03122B4171ED03122B4190EDF3
:1038700003122B41DBED03122B41FBED03122B4115
:10388000BEEE03122B41E4EF03122B41EFEF0312C4
:103890002B4144F003122B4199F003122B41F3F01A
:1038A00003122B41FBF103122B41AAF403122B410B
:1038B000D0F403122B41D1F503122B41FEF5031274
:1038C0002B417DF603122B4155F703122B418CF748
:1038D00003122B410FF803122B4128F903122B413D
:1038E00058F903122B4162F903122B4165F90312B7
:1038F0002B416FF903122B418BF903122B41FEF977
:1039000003122B4137FA03122B4153FA03122B41B6
:103910007FFA03122B41A6FA03122B41CAFA0312B3
:103920002B416DFB03122B41E0FB03122B4123FCC7
:1039300003122B412DFC03122B4164FC03122B417B
:103940007EFC03122B419BFC03122B41CAFC031289
:103950002B41E9FC03122B4101FD03122B4113FD06
:1039600003122B4182AB07122B4193AB07122B4161
:103970001EAC07122B41FBE406122B4139E506125F
:103980002B41D2E506122B41DDE606122B4125E93B
:1039900006122B415AE906122B418FBD06122B410C
:1039A000DEBD06122B419CBF06122B416FC10612D1
:1039B0002B41ADC106122B4183C206122B418CC391
:1039C00006122B41AEC306122B410AC406122B412C
:1039D0008BC406122B41B2BC04122B41D4BC04127E
:1039E0002B417CBE04122B41C5BE04122B4135BFB6
:1039F00004122B41B2BF04122B4118C004122B41F8
:103A00001BC004122B4162C004122B41D3C004120C
:103A10002B417EC104122B4181C104122B41F9C1FB
:103A200004122B413EC204122B4148C604122B4102
:103A3000A6C704122B41D9C704122B411FC8041278
:103A40002B417CCB04122B410FCC04122B41B7CD60
:103A500004122B41E7CE04122B4122D004122B4139
:103A60009DD004122B41B1D104122B414DD204122E
:103A70002B4161D204122B412AD304122B4160D472
:103A800004122B4180D604122B41B2D804122B41D0
:103A90008ED904122B410EDC04122B41E4DC0412FB
:103AA0002B4107DE04122B416CE104122B417CE117
:103AB00004122B41E2E204122B4192E304122B4147
:103AC000AAE404122B4155E604122B41D5E6041258
:103AD0002B4120E804122B4166E804122B4143E9F4
:103AE00004122B41C29D05122B415D9E05122B41F4
:103AF000D09E05122B41EB9E05122B418A9F051289
:103B00002B41D29F05122B4101A105122B4140A14F
:103B100005122B41B7A105122B4108A205122B411A
:103B20006FA205122B417AA305122B419FA6051205
:103B30002B41B5A705122B4132A805122B412EAA05
:103B400005122B41D3AA05122B4188AB05122B413C
:103B5000EDAB05122B415CAC05122B4172AD051289
:103B60002B4171AE05122B41ACAE05122B41C3AEF9
:103B700005122B4182AF05122B41C1AF05122B411B
:103B80003CB005122B41B5B105122B4157B30512BC
:103B90002B41B7B405122B4124B605122B4136B781
:103BA00005122B41C3B705122B4133B805122B4127
:103BB00053B905122B41625300122B41C553001219
:103BC0002B410D5400122B41515400122B41C25471
:103BD00000122B411C5500122B41575500122B414E
:103BE000F15500122B414B5600122B41B2570012D7
:103BF0002B412B5800122B41525800122B41645973
:103C000000122B414F5A00122B419C5A00122B419B
:103C1000AA5B00122B41D25B00122B412E5D0012D9
:103C20002B413F5D00122B41575D00122B41435E3B
:103C300000122B41325F00122B41356000122B41E4
:103C40005F6000122B41776000122B4192600012DE
:103C50002B41D16000122B41F16000122B411A61FF
:103C600000122B41316100122B410B6200122B41DB
:103C7000656200122B41176500122B414766001246
:103C80002B417D6600122B41876600122B419E66F8
:103C900000122B410F6700122B41FF6700122B41CE
:103CA000356800122B41FF6800122B41AE690012EB
:103CB0002B41DC6900122B411E6B00122B413D6B26
:103CC00000122B41BC6B00122B41F86B00122B41F0
:103CD000366C00122B41BF6C00122B412E6D00126E
:103CE0002B410D6E00122B41EB6F00122B41C07067
:103CF00000122B41107100122B41787200122B41DF
:103D0000727400122B411E7700122B41F1780012C1
:103D10002B41E3D305122B412B7A00122B414D7A14
:103D200000122B415C7B00122B41597C00122B416D
:103D3000C87C00122B41DBE906122B4106EC06126F
:103D40002B41CEEC06122B4123ED06122B41A9ED9F
:103D500006122B4192FA06122B41B0FA06122B41A1
:103D6000F4FA06122B411AFB06122B4141FB0612F4
:103D70002B4159FB06122B4171FB06122B419BE78D
:103D800005122B415DFC06122B4172FC06122B41E1
:103D900079FD06122B4194FD06122B419DFD061262
:103DA0002B41A6FD06122B41AFFD06122B41B9FD9A
:103DB00006122B4136FE06122B41FDDF06122B4167
:103DC00073E406122B418FE406122B4194E4061291
:103DD0002B4119A007122B416F8707122B418587B2
:103DE00007122B41068907122B41308907122B41FC
:103DF000768907122B417F8A07122B4195A407125F
:103E00002B4132B207122B4157B207122B410080CF
:103E100003122B41338003122B419A8003122B4152
:103E2000268103122B41CD8103122B4115820312EF
:103E30002B413A8203122B41538203122B41798288
:103E400003122B419B8203122B41D98203122B4177
:103E5000288303122B41518303122B41B083031299
:103E60002B41898403122B413F8503122B419D85F1
:103E700003122B41638603122B41AD8603122B41A3
:103E8000048703122B416F8703122B41AD87031266
:103E90002B41038803122B411F8803122B414A88B0
:103EA00003122B41598A03122B419F8B03122B4182
:103EB000CB8B03122B41FF8B03122B41208C03125F
:103EC0002B412F8C03122B413A8C03122B41EA8C8D
:103ED00003122B41598D03122B41068E03122B41E5
:103EE000428E03122B41008F03122B410D900312BF
:103EF0002B415A9003122B41E99003122B4143911D
:103F000003122B41889103122B41179403122B416A
:103F1000719503122B41BD9803122B419B990312FB
:103F20002B41729A03122B41869A03122B41AF9AAE
:103F300003122B41209B03122B41B69B03122B41F2
:103F4000299C03122B41189D03122B413D9D031206
:103F50002B41A09E03122B41BE9E03122B41D19EEA
:103F600003122B41359F03122B41449F03122B4117
:103F7000CC9F03122B41E29F03122B41E6A00312B8
:103F80002B41F3A003122B41FCA003122B41F6A2FC
:103F900003122B4126A403122B4136A403122B41FA
:103FA00039A503122B41B5A503122B41EEA503122F
:103FB0002B4126A703122B416CA703122B4147A9C3
:103FC00003122B4128AD03122B413CAD03122B41B0
:103FD00046AD03122B4150AD03122B415AAD0312D3
:103FE0002B4164AD03122B417DAD03122B4187ADF4
:103FF00003122B4101AE03122B410CAE03122B41D5
:104000003BAE03122B4163AE03122B416EAE031283
:104010002B41BCAE03122B41C6AE03122B41D1AED5
:1040200003122B41F5AE03122B4119AF03122B41A2
:1040300076AF03122B41BCAF03122B41D8AF031252
:104040002B415FB003122B4196B003122B41D5B028
:1040500003122B4122B103122B41A4B103122B41B5
:1040600050B203122B412CB403122B419AB4031209
:104070002B41C6B503122B41ECB503122B4145B7BA
:1040800003122B419DBA03122B41D6BC03122B41C4
:10409000B4BE03122B414DBF03122B4172C1031258
:1040A0002B4126C203122B415FC203122B41C5C212
:1040B00003122B41CFC203122B41F9C403122B412F
:1040C000DEC503122B4145C703122B418DC70312D6
:1040D0002B4141C803122B41E4C903122B416BCB86
:1040E00003122B418BCB03122B41DECB03122B414E
:1040F000DECC03122B4106CD03122B4169CD0312F6
:104100002B414CCE03122B41BECE03122B41D0CFFC
:1041100003122B4154D003122B4152D103122B41D5
:10412000E8D303122B4107D403122B4152D50312BB
:104130002B4120D703122B4174D703122B412CD8CB
:1041400003122B41DCD803122B413FD903122B4120
:1041500004DA03122B419ADA03122B4101DB03121A
:104160002B4143DB03122B4174DB03122B41D4DCC4
:1041700003122B41008002122B41328002122B418C
:104180006B8002122B41618202122B41A382021228
:104190002B41878302122B41DF8302122B412285A0
:1041A00002122B416E8502122B419A8802122B417A
:1041B000188C02122B41608D02122B41F68D0212D7
:1041C0002B41028E02122B41428E02122B41D78FBD
:1041D00002122B41CB9002122B41F59002122B417F
:1041E0004C9102122B41A59102122B411692021200
:1041F0002B414B9402122B41E29502122B41B696B1
:1042000002122B41FD9702122B41559A02122B41AB
:10421000269D02122B41359D02122B41B99D02129F
:104220002B416E9E02122B41B19E02122B41FA9E2F
:1042300002122B414E9F02122B41B39F02122B41BF
:104240000FA002122B412BA002122B415DA00212E3
:104250002B419CA002122B4182A102122B4131A2C0
:1042600002122B41B7A402122B41EDA502122B41E1
:10427000D4A602122B4154A702122B4161AB0212A9
:104280002B419FAB02122B4106AC02122B4139ACE1
:1042900002122B41CCAC02122B41FFAC02122B417B
:1042A0005BAD02122B41A7AD02122B417AAE021276
:1042B0002B4141AF02122B41DFAF02122B41E9B279
:1042C00002122B41FDB302122B41A8B702122B415F
:1042D000AAB802122B41ADB802122B41DCB802126F
:1042E0002B41DBBA02122B41B4BB02122B41D9BBCA
:1042F00002122B41F5BC02122B41ADBD02122B4123
:1043000071BF02122B41D5BF02122B41FABF02121C
:104310002B4134C002122B418FC002122B4163C1CA
:1043200002122B4151C202122B4185C202122B41B3
:104330003BC302122B414CC502122B41B7C50212DE
:104340002B41FFC502122B4138C602122B41CAC6AF
:1043500002122B4123C802122B41ACCB02122B417B
:10436000A1CC02122B419BCD02122B4118CE02127E
:104370002B41EACE02122B41C7D002122B4158D159
:1043800002122B415CD202122B4170D202122B413D
:1043900084D202122B4198D202122B41ACD20212CB
:1043A0002B41E2D202122B4112D302122B419CD498
:1043B00002122B415AD502122B41DED502122B419B
:1043C0002FD602122B41A8D602122B41EED6021292
:1043D0002B41D3D802122B4183D902122B41B3D9DE
:1043E00002122B4172DA02122B410FDB02122B4117
:1043F000BADC02122B41A7DD02122B41E6DD0212CC
:104400002B4158DE02122B419DDF02122B4150E05E
:1044100002122B4184E002122B419CE002122B413C
:104420003FE102122B412DE402122B41F8E502126A
:104430002B411CE602122B413AE602122B4109E7FE
:1044400002122B4136EB02122B41008007122B4146
:10445000408007122B410C8207122B411B8207124E
:104460002B41FBE904122B41BFEE04122B410DEF4F
:1044700004122B414BF104122B41EFF204122B4199
:104480007FF304122B41DBF504122B41E2F70412F7
:104490002B4139F804122B412DFA04122B417AFAE0
:1044A00004122B41D8FA04122B41FAFA04122B41C0
:1044B00001FB04122B4119FB04122B41DDFB0412FA
:1044C0002B41BFFC04122B41E08101122B412282BF
:1044D00001122B41788701122B41C48701122B4115
:1044E0000A8801122B41578901122B41C1890112FF
:1044F0002B41098A01122B41788B01122B41BD8E71
:1045000001122B41E28F01122B419A9B01122B4188
:10451000239C01122B418B9F01122B41EAA0011217
:104520002B4145A101122B4195A201122B417DA3E4
:1045300001122B4124A601122B41A5A701122B41E8
:1045400036A801122B4139A801122B41B0A8011243
:104550002B41BAA801122B41C7A801122B41F2A886
:1045600001122B4198A901122B4187AA01122B415C
:1045700040AB01122B41C3AB01122B41E1AB011245
:104580002B41F6AB01122B411FAC01122B414CAC5D
:1045900001122B4189AE01122B416AAF01122B414E
:1045A000B4AF01122B413FB001122B41EDB001120B
:1045B0002B411FB101122B4166B101122B4199B160
:1045C00001122B41EDB101122B413EB201122B41E0
:1045D00043B201122B4197B201122B4100B30112D9
:1045E0002B41CEB301122B4119B401122B417EB4E1
:1045F00001122B41E3B401122B417FB501122B4173
:10460000D9B801122B4107BA01122B41A7BB0112E5
:104610002B41FDBE01122B4193BF01122B41BFC2A2
:1046200001122B417AC301122B41C2C301122B414B
:1046300069C501122B417DC501122B4187C50112AD
:104640002B4191C501122B419DC501122B41BCC5C7
:1046500001122B410AC801122B4163C801122B41E0
:104660006DC801122B4177C801122B41FDC8011200
:104670002B4151C901122B415ECA01122B41CECAF6
:1046800001122B41D8CB01122B4121CC01122B411D
:10469000C8CC01122B41A8CD01122B4175CE0112BD
:1046A0002B41A8CF01122B41E5D001122B41E6D1BD
:1046B00001122B41FED101122B4132D201122B41AA
:1046C0003CD201122B4146D201122B4151D2011290
:1046D0002B416FD201122B41B7D201122B4115D3BE
:1046E00001122B413CD301122B414ED301122B411D
:1046F000E9D301122B411ED401122B411CD501120A
:104700002B4172D501122B4161D601122B4197D654
:1047100001122B41FAD601122B4172D701122B4103
:1047200018D901122B4140DA01122B411EDB011274
:104730002B41FDDB01122B417EDC01122B4119DDE7
:1047400001122B414EDE01122B41E0DE01122B4102
:1047500034DF01122B41A0DF01122B4166E0011270
:104760002B41B7E001122B410FE101122B41E0E197
:1047700001122B4103E201122B41B2E201122B4143
:10478000D4E201122B4135E301122B4183E50112E2
:104790002B4186E601122B414AE701122B417EE9AB
:1047A00001122B41C8E901122B4113EA01122B41DE
:1047B0006EEA01122B41DBEA01122B4109EB0112D7
:1047C0002B412DEB01122B4162EB01122B418FEBA0
:1047D00001122B41D5EB01122B4133EC01122B417D
:1047E00087EC01122B419DED01122B414AEF011282
:1047F0002B4193EF01122B41BCEF01122B414EF0E4
:1048000001122B41C6F001122B41D4F001122B41B1
:10481000F8F001122B4155F101122B4170F10112F8
:104820002B4131F201122B415DF201122B41A0F21A
:1048300001122B4103F301122B41FDF401122B4114
:104840002AF501122B411FF601122B411CF7011210
:104850002B41BFF701122B41208D06122B41588DA1
:1048600006122B41798D06122B41BD8D06122B416C
:10487000218E06122B412B8E06122B413B8E0612E7
:104880002B41728E06122B416A9206122B417894AC
:1048900006122B41659606122B41FC9606122B41FF
:1048A0009E9706122B41738004122B411C81041227
:1048B0002B41F38104122B41FB8204122B411B83F9
:1048C00004122B41338404122B41ED8504122B4139
:1048D000608604122B41FD8604122B4114880412B9
:1048E0002B41818804122B41BC8804122B41118971
:1048F00004122B414C8904122B41998904122B413B
:10490000298A04122B41B68A04122B418B8B041284
:104910002B41648C04122B41F28C04122B41128D1A
:1049200004122B413F8D04122B41708D04122B4138
:10493000438E04122B41538E04122B41A28E04127B
:104940002B41AF8E04122B41B88E04122B41288FBD
:1049500004122B41888F04122B41D38F04122B4158
:10496000EE8F04122B41159004122B413290041249
:104970002B413E9004122B41E99104122B410292EB
:1049800004122B418B9204122B419E9204122B4154
:10499000BD9204122B41589304122B41C894041267
:1049A0002B416F9604122B41FE9604122B41019766
:1049B00004122B41719704122B418F9704122B4143
:1049C000349804122B41709804122B4173980412EE
:1049D0002B41399904122B419C9904122B41D599F2
:1049E00004122B414A9A04122B41689A04122B415B
:1049F000B69A04122B418B9B04122B41D99B0412B3
:104A00002B41279C04122B41B49C04122B41E99C9E
:104A100004122B411E9D04122B412C9D04122B418C
:104A20008B9D04122B41039E04122B41449E0412C1
:104A30002B41949E04122B41BF9E04122B41D99E00
:104A400004122B41F39E04122B41CE9F04122B41E2
:104A5000D89F04122B4113A004122B4123A004124F
:104A60002B412CA004122B4184A004122B4198A0AE
:104A700004122B41CEA104122B41E1A104122B41BF
:104A8000F8A104122B410DA204122B419BA2041287
:104A90002B4103A304122B41B6A304122B41C1A343
:104AA00004122B4111A504122B412DA504122B41F8
:104AB00079A504122B41E8A504122B4121A604126A
:104AC0002B413BA604122B419BA604122B413AA773
:104AD00004122B4185A704122B4147AA04122B4133
:104AE000FDAA04122B418DAB04122B41D5AD04124B
:104AF0002B41EDAD04122B41F0AD04122B41FCAD66
:104B000004122B4110AE04122B4118AE04122B419B
:104B10004BAE04122B413EAF04122B41C9AF04121D
:104B20002B415CB004122B41D5B004122B4199B13A
:104B300004122B41BBB104122B4154B204122B417D
:104B4000B1B204122B41B4B204122B41E1B20412EF
:104B50002B41F6B204122B4170B304122B41BCB4AA
:104B600004122B41C7B504122B4152B604122B413B
:104B700057B704122B4117B804122B4148B804123E
:104B80002B416EB804122B4177B804122B41A5B803
:104B900004122B413DB904122B41F2B904122B41EE
:104BA00063BA04122B410ABB04122B4191BB0412BD
:104BB0002B41D0BB04122B4113BC04122B414DBC22
:104BC00004122B4180D305122B4156D305122B41E1
:104BD000E5D205122B4116D105122B41B4D0051296
:104BE0002B41F9CF05122B411ECE05122B4162CD70
:104BF00005122B4132CD05122B41E2CC05122B417F
:104C00007DCC05122B413CCC05122B411CCC05124E
:104C10002B414ECB05122B41DACA05122B417DCA1E
:104C200005122B4119CA05122B4191C805122B41BF
:104C300025C805122B419FC705122B4193C70512AA
:104C40002B4160C705122B41C1C305122B4193C3F1
:104C500005122B413DC305122B4125C305122B41E3
:104C60000BE705122B411AC305122B41C6E60512AC
:104C70002B41AAE605122B41A6E405122B4168E45C
:104C800005122B4142E405122B41C6E305122B41CC
:104C9000D7C205122B41EFC005122B41D8C0051217
:104CA0002B410EC005122B419AD405122B4139BF5E
:104CB00005122B414DBD05122B41B2BB05122B41F4
:104CC000A7BB05122B411BFC06122B411EBB051274
:104CD0002B414FD405122B41DABA05122B41B6BA3B
:104CE00005122B41E98C06122B419E8C06122B419A
:104CF000458C06122B41108C06122B41DF8B0612BD
:104D00002B41AF8B06122B41878B06122B410A8B4E
:104D100006122B41EC8A06122B41BC8A06122B414B
:104D20003C8A06122B415B8606122B413384061205
:104D30002B41028206122B417B8106122B410080FF
:104D400006122B41298106122B41B48006122B41F9
:104D50006D8006122B41B7790000000080FB8F00A8
:104D60000100041A87000100CE1635000400C9199D
:104D700025000200CD1926000200CF1927000200ED
:104D8000D11928000100DB1929000100DC19840079
:104D90000400A716860001003D192A000100DD1954
:104DA0002B000100DE192C000100E4192D00080081
:104DB000B4162E000100E5192F000100E61930009D
:104DC0000100E71931000100E81932000100BC16AA
:104DD00033000100BD1634000100E919360001005E
:104DE000BE1638000100EA1939000100E3198300FA
:104DF0000200011A63000100C91664000100DF19F6
:104E000065000100E0196D000100CA16710008007C
:104E1000AC1666000100001A43000100F1194400BD
:104E20000200F21945000100F41946000200F519CC
:104E300047000800C11648000100F7194B000100A7
:104E4000F81904000100031AA1000100071A370035
:104E50000100061A88000100051A3C000100BF1677
:104E60003D000100EB1949000200F919670001003B
:104E7000CB164D000200FB194E000100FD194F003A
:104E80000200FE193E000100F01951000100EC196A
:104E900052000100ED1953000100EF195400010008
:104EA000C0160000000000000001363601010001BC
:104EB00002010001030100010401060605020000D1
:104EC000070100340801000F090401010D0100FF72
:104ED0000E08000017020000190100FF1A0100016E
:104EE0001B0100FE1C0100081D0200001F01000143
:104EF00020010001210200002301000F2402000014
:104F00002601000127010008280200FF2A010007EE
:104F10002B0102402C0100002D0100012E01000197
:104F20002F0100FF30010B1D310800003A0100087D
:104F30003B01000F3C0100013D0100FF3E04000069
:104F400042040000460400004A0400004E04000031
:104F500052040000560400005A04000001037103CB
:104F600001030103010301030103220302030103FF
:104F70001003000300030003000300030003000309
:104F80004203000324030603000300030403120387
:104F90002503230325032303040304030003000361
:104FA00000034403000300032303000365032100FF
:104FB000350381030003050300030003000300031E
:104FC0002503230303027102300160021102700203
:104FD0000102020202028002100261023A00410054
:104FE000630273027202620243020002130238007B
:104FF000000200020402120200020002000200028B
:1050000004020402370037003C0244020002390067
:105010000002000265020002350281020002050260
:10502000820283020002030071003001600011005F
:105030007000310220035004800010006100000065
:10504000140063007300720062004300000013004C
:105050000600000000000400120000000000000034
:10506000000004000400370037003C024400000048
:105070000000000000006500000035008100000015
:105080000500000083000000010171010101010120
:1050900011010101310101010101800110016101D2
:1050A0003B001400630173017201620143010001BE
:1050B000130106013D013500040112010001000148
:1050C0000001000104010401330133013C014401EA
:1050D0003201360000010001650100013500810147
:1050E000000105018201830100010304710402042F
:1050F0006004110470040204020401040204100498
:10510000610400041404630473047204620443041D
:105110000004130406040004000404041204000440
:1051200000040004000451046400000400040004AE
:105130004404000400040004000465040004350471
:1051400081046400050400048304000436000100A7
:10515000060000000F00000000000000000000003A
:10516000000003FFFF00000403FFFF0000FFFF0F2C
:10517000F4010005C4040320000100000B0000003E
:10518000000000000003010F00000000000000000C
:10519000000000000000000000000000000000000F
:1051A0000000000000000000000013007B3A1F0018
:1051B000813A1F80873A0000233B0100233B020015
:1051C000FD390280F7390300033A0400093A0480EC
:1051D0000F3A0500153A0600213A30003F3A3100F7
:1051E000393A32004B3A3300513A3500573A3400DD
:1051F0005D3A3600633A11006F3A1400753A1500B3
:10520000333AFFFF00000A00000002000000040023
:105210000000080000001000000020000000400016
:1052200000008000000000010000000200000004F7
:1052300000000008000000100000002000000040F6
:105240000000010D45063D450837450B5B45102321
:10525000410A6D45021345052B450719450CF544D8
:105260000D014564EF3EFF000007ECFDFDFDECDCA9
:10527000DCCCBCACAC9C9C8C7C7C6C6C5C5C5C4C7E
:105280004C3C3C2C2C1C1C03EAF5E5D5D5C5B5A53A
:10529000959585857575656555554545353525253E
:1052A00015150500160F00000B150B020002220F4A
:1052B0003300000E0F00000000000000000000009E
:1052C00000000000005A6967426565416C6C6961C5
:1052D0006E63653039D0D1D2D3D4D5D6D7D8D9DA08
:1052E000DBDCDDDEDF0001191618161618230300BB
:1052F00000034D4C4651181A250502303016181976
:1053000020231A1C1E30003C40423A3F3F392F47B1
:1053100030303017181921301B1D1F300C0E020BB6
:10532000040B0A0708000F0204020101010109022F
:1053300000BE040AE80300000E000000E8030C00B1
:105340001E0000007F0005030004091E100A0C1057
:105350000803FF0C280004040209033C0C05080B99
:10536000081E74F71225B074F3122C278518828555
:1053700019837402F014122E65125D13122E65AAA1
:1053800082AB83123E2F7416122E651253AB123E5F
:105390006BE96401700A740B122E651254B1800817
:1053A000740B122E651253B602663D125517FEE9B4
:1053B000FFAA18AB19221264FA8E828F83E8F0A339
:1053C000E9F079C82274F71225B074F3122C27EC97
:1053D000FEEDFF8518828519837402F0EAFCEBFD6F
:1053E0007403122E65AA82AB83123E2FAA18AB1942
:1053F000123E5FE96401700A740B122E651254B1FB
:105400008008740B122E651253B602663D74F712B3
:1054100025B074F1122C27AC18AD19123BB9E9FE76
:1054200070287402122E657402F085188285198323
:105430001264F6740D122E6512662E7402122BFF82
:10544000123E4DE9640160027E01EEF9740F0266BE
:105450003F74F71225B0E9FE90157A126506703494
:105460007A0F7B0012354790157AEAF0A3EB1255BC
:105470000E6027780079001255D38A828B8374FEE0
:10548000F0A30412602DE4F0A3F008E87001091203
:10549000550440E3EE7003123CDF026642E875F00B
:1054A00005A4F8AAF075F005E9A42AF990157AE0A8
:1054B00022E0F8A3E0F98E828F83E8F0A3E9F07987
:1054C000002274F71225B08C828D8312550B602F49
:1054D000780079001256247003A3E06B7017E8750A
:1054E000F005A41254A32EF8A3E039F98C828D8321
:1054F0001254BA800C08E870010912550440D5799D
:10550000C8026642C39403E9940022E4F0A3F09039
:10551000157A12551749221264FAE82274F71225F7
:10552000B074FE122C27ECFEEDFF8E828F83E4F028
:10553000A3F07508C8AC18AD19123BB9E97013EEA9
:10554000FCEFFD851882851983126511123BCBE9AA
:10555000F508A908025BCD74F71225B074FE122C71
:1055600027ECFEEDFFAC18AD19123BB9E9705F9066
:10557000157A126506605778007900E8FAE9FBEAC7
:1055800075F005A4FAACF075F005EBA42CFB9015B2
:105590007AE02AFCA3E03B8C82F583126511851822
:1055A00082851983E06A7003A3E06B70171255D3EC
:1055B0008E828F8312699E740B122E65126B1512E8
:1055C00054BA800C08E870010912550440AD79C83E
:1055D000025BCDE8FAE9FBEA75F005A4FAACF075D8
:1055E000F005EBA42CFB90157AE02AFAA3E03BFB34
:1055F0002274F71225B090157A12650660217800A2
:1056000079001256247003A3E06B70098C828D839D
:105610001254BA800C08E870010912550440E3796D
:10562000C8026642E8FEE9FFEE75F005A4FE85F0CB
:105630000875F005EFA42508FF90157AE02EF5080F
:10564000A3E03F850882F583E06A2274F01225B05A
:1056500074FC122C27EAFEEBFF7402122C078E82D8
:105660008F83126511123BDDE9F50A7A187B00126F
:1056700035478A0C8B0DEA450D60497C187D007911
:105680000012348DEE2402F8E43FF9880889097885
:105690000C122B96750E18750F00780E122B967C37
:1056A000007D0085088289831265111235CB740450
:1056B000122BA9850882850983E4F0A3F0AA0CAB1C
:1056C0000D12354D8E828F8374FEF0A304125B9C05
:1056D000E4F0E50A60030257AD7402122E65E0FEA5
:1056E000A3E0FF90157A1265066034EEF8EFF91228
:1056F000549D28F508A3E039F5097808122B967512
:1057000008057509007808122B96EEF8EFF9E87590
:10571000F005A4F8126DED1235CB7404122BA9A874
:1057200018A919880889097808122B967508027536
:1057300009007808122B967C007D007A4C7B0012C1
:1057400035D17404122BA9E97063EE75F005A4FE3F
:10575000A8F075F005EFA428FF126FDDE064FE707D
:1057600003A3E0F48518828519837015126506601D
:1057700014851882851983E024FFF0A3E034FF80AC
:1057800003126E04F0A818A919880889097808126C
:105790002B967508027509007808122B967C007DFF
:1057A000007A4C7B001235CB7404122BA9740402CE
:1057B000725474F71225B08A828B8312550B60667F
:1057C00078007900E8FCE9FDEC75F005A4FCAEF08A
:1057D00075F005EDA42EFD90157AE02CFEA3E03DBA
:1057E0008E82F583E064FE7003A3E0F4702EE8750A
:1057F000F005A4F8ACF075F005E9A42CF990157A41
:10580000E028FCA3E039FD8A828B83ECF0A3EDF065
:10581000126FCFA3A3A3A3E4F0F9800C08E87001F2
:1058200009125504409E79C8026642C082C0837442
:1058300004122E65126B0812651179101243ED9057
:1058400019C8E0C0E07406122E65126B08D0E002A1
:10585000611074F61225B074D9122C27EAFEEBFF02
:10586000AC18AD19EE2405FAE43FFB12429DE96441
:10587000016003025958740F122C0712650B124273
:1058800097E9640160030259587417122BF77406E4
:10589000122E6512662E7404122E65858208858389
:1058A000097808122B967408122E65858208858364
:1058B000097808122B96EE2405F508E43FF50978DF
:1058C00008122B967406122E651229C17417122C19
:1058D0000712650B123BEF7408122BA9E97079745B
:1058E0000C122E657401F0740B122E657401F074A5
:1058F0000D122E6512595D7402122E6512662EEE7F
:105900002405F8E43FF97408122E6512662E740A15
:10591000122E657401F004122BFF12435185188278
:105920008519831264F67402122E6512662E740FA6
:10593000122BF77408122E6512662E740A122E6549
:10594000E4F07402122BFF1243517C107D007900A9
:105950007417122BFF12348D7427026707E4F0A32B
:10596000125D232274F61225B074C5122C27EAFEAC
:10597000EBFF7401122C07EE2405FAE43FFB124200
:105980009DE9640160108E828F83A3A3A3A3E064CA
:10599000027003025A4A7410122C0712650B12424D
:1059A00097E964016003025A4A742B122BF77407BB
:1059B000122E6512662E7418122BF7880889097842
:1059C00008122B967402122C077412122BFF12432A
:1059D000577402122BA9851882851983E0606B74B5
:1059E00007122E65126CB9742A122E65E0F9742024
:1059F000122E65AA82AB83123C91740D122E65742F
:105A000001F0740C122E657401F0740E122E6512E2
:105A1000595D7403122E6512662E7410122BF774E2
:105A200009122E65125D0B122E657401F0740512B9
:105A30002E657404F014122BFF1243517C107D006C
:105A40007900742B122BFF12348D743B026707C050
:105A500082C08374FA122C278A828B83A3A31266D6
:105A60002BEA241DF582E43BF583E0C0E0740212CA
:105A70002E65D0E0F0EA2405F8E43BF97403122E19
:105A800065126023E0C0E07405122E65D0E0126953
:105A9000A812437B7406122BA902611374F6122517
:105AA000B074DE122C27EAFEEBFF8E828F83126425
:105AB000F67404122E65125D1B740A122E651266AE
:105AC0002E7406122E657401F075083A7509007877
