:020000040027D3
:10B0000038B50025DFF8C84320E0A078904204BF9F
:10B0100022784D2A03D1607800F096F80546002189
:10B02000E1700EE0E06A40F634029042F7D2636AC3
:10B030009DF800201A54401C8842E06201D105208E
:10B04000E070A0789DF800104840A070684600F0BD
:10B050002BFA00283BD0E3789DF80000A16A092B69
:10B060000246EED8DFE803F0080F141707061F2288
:10B07000272CE6E7C9E7D5E7FE2AE2D10120E070F8
:10B080000020E062DDE7A0620020A0700220D7E788
:10B0900020700320D4E700296070D0D0FF2914BFAE
:10B0A00004200620CCE7A0620720C9E701EB0221BB
:10B0B000A1620820C4E701EB0241A1620920BFE7B9
:10B0C00011EB0261A1620CBF05200420B8E7280043
:10B0D00018BF012032BDF8B5BE4DBF4C29680094A1
:10B0E0008868B0F1A53F26D10A69CB68BB4F022022
:10B0F0009A42B6414FF0000CF60FC7F800C0C7F8EF
:10B1000000C00BD1B64EB34204D3401E04E05B1C1A
:10B110000028F7D11E787E609342F8D178683A68AB
:10B120000B6842EA002292B2934204D10422083111
:10B13000684600F076FB2A689068A04201D10120A1
:10B14000F2BD0020F2BD00002DE9F14F82B0DFF822
:10B1500080929DF80830D9F8242000200190002723
:10B160005B1E8046032B16469E481DD8DFE803F081
:10B170001D89B602202109F1040000F06DFB0120B9
:10B1800030707770B770F770307177710820B071D8
:10B19000F77137727772B072F772377306F10D017B
:10B1A000D9F82400091A0191A9E01578547805EB23
:10B1B0000425947805EB0445D47805EB0465331D2C
:10B1C0001C7893F801A093F802C01E1D04EB0A241A
:10B1D000DB7804EB0C44891B04EB036402EB010AEB
:10B1E0006119491EB5F5001F00916BD3814269D2E8
:10B1F000544567D3A5F500104FEAD02B0DE009F1B7
:10B2000004004FEADB010122405C02FA04F409F178
:10B210000402044354540BF1010B0098A0F50010F4
:10B22000C00A584513D309F104004FEADB010BF0C3
:10B230000704405CE040C007EDD44FEACB2000F5A6
:10B24000001000F0E1FA0028D9D04FF00108CAF14F
:10B25000040414F0030405D0FF22214606EB0A0083
:10B2600000F0FEFAB8F1000FA24448D1BAF1000F85
:10B2700045D052462946304600F0D3FA00283ED049
:10B2800020E015785178947805EB0125D17805EB0D
:10B29000044505EB0165331D1C7859789A781E1D0D
:10B2A00004EB0124D97804EB0244B5F5001F04EB4C
:10B2B000016407D36119491E81423CBF40F6350045
:10B2C000844202D34FF0010819E00CB36119491E02
:10B2D0000978FF2908BF641EF7D019E03D4D3E4CA8
:10B2E0002868009400F108010422684600F099FAE9
:10B2F00028688168A1420CBF01274FF00708019A16
:10B300009DF80800414600F00EF83846BDE8FE8F73
:10B3100022462946304600F0D7FAD9F82400361ADA
:10B32000A6190196EBE77FB5144600228DF80020A0
:10B33000FE25631C8DF8045001AAFF2B32BF537009
:10B34000FF2555704D258DF8065040F08000FF2BED
:10B350008DF8070002AD0AD313711D0C8DF80A5049
:10B36000180A1B0E8DF809008DF80B3003AD05F897
:10B37000011B01A82D1A012006E09DF80010135CA6
:10B3800059408DF80010401CA842F6D30020104E02
:10B3900007E0726A9DF80010125C51408DF80010B1
:10B3A000401CA042F5D3294601A800F054F800281B
:10B3B000F9D02CB1706A214600F04DF80028F9D080
:10B3C0000121684600F047F80028F9D07FBD000051
:10B3D000004000203040002005A0A00514700D4062
:10B3E0001C01200000B0270038B5002000F0E4FA6E
:10B3F0004FF4007000F000FB3E4C3F4D204600F043
:10B4000069FB41F6FF71204600F096FB01212046C2
:10B4100000F099FB00220221284600F099FB02214E
:10B42000284600F03BFD354A0121284600F0C4FBC8
:10B430000121284600F030FD00F0A8FA0146602303
:10B440004FF4E132204600F00DFB2046BDE83240CB
:10B4500000F033BB35E0F8B50C4629490A684B6863
:10B4600040F63206934208BF354604D09A423ABFAE
:10B47000F51A5519D51AA54201D20020F2BD1A4677
:10B480000025204B06E0475D9F54521CB24228BF66
:10B4900000226D1CA542F6D34A6000F012F8204647
:10B4A000F2BD144800F027BB38B50446114D2846BC
:10B4B00000F021FB20B1284600F026FB207001207F
:10B4C00032BD38B50F4C0E4D08E02868401C28608E
:10B4D00040F63201884224BF00202860286869684D
:10B4E000884205D0215C034800F018FB0028ECD10D
:10B4F00031BD000000C0004000900D4000410D40F3
:08B500009C5000206848002067
:10B80000000800207DC0270038B5124A1468542370
:10B810004FF400611A689047FFE700F00CF82846E3
:10B8200032BD70B50B4B1C6858252E68B04700F030
:10B8300002F8284670BD054604F00C00FFE70549F4
:10B840000A681306FCD422F00C021043086070470B
:10B850000000000008300D40002200F005B8000094
:10B8600062F30F2262F31F42401810F0030308D066
:10B87000C91A1FD3DB0748BF00F8012D28BF20F8E5
:10B88000022D130030B414461546103928BF20E9A4
:10B890003C00FAD8490728BF20E90C0048BF40F80F
:10B8A000042D890028BF20F8022D48BF00F8012D83
:10B8B00030BC7047C91818BF00F8012DCB0728BF4E
:10B8C00000F8012D7047000062B38B0708D0521EAC
:10B8D00011F8013B00F8013B00F024808B07F6D102
:10B8E000830740F0208000BF103A07D330B4B1E89E
:10B8F0003810103AA0E83810F9D230BC530724BFF2
:10B90000B1E80810A0E8081044BF51F8043B40F823
:10B91000043BD20724BF31F8022B20F8022B44BF8E
:10B920000B7803707047083A07D3B1E80810083A5B
:10B9300040F8043B40F804CBF7D25307E4E700009B
:10B9400070B50B00354D03D12B6843F400132B6009
:10B950002C68334B1C4008B944F08074002914BF94
:10B960004FF480360026344322432A604FF6FF749A
:10B97000686800F48030864218BF002C05D0102083
:10B9800000F032F86868641EF3E770BD254801686E
:10B99000002001F0070107290DD8DFE801F00405B8
:10B9A000060708090A0B0FE010E011E012E013E0AF
:10B9B00014E015E01C48704718490A6822F4E06258
:10B9C00042EA00220A6070471848704718487047DA
:10B9D000184870471848704718487047184870470B
:10B9E00018487047000000000138FDD170477047CB
:10B9F000154908200860FEE710B50FF25001FFE777
:10BA0000C0F3032251F822200124136800F00F0034
:10BA100004FA00F01843106010BD000000200D4033
:10BA2000F8FFFEFE04200D4090D003000048E8011E
:10BA30000024F40000127A0000093D0080841E00FA
:10BA400040420F0020A1070074200D4008200D4047
:10BA500018200D4028200D4038200D4048200D4072
:10BA6000A8200D40F8B504460E4617461D4600F0C6
:10BA700031F8B6EB071F04F1300005D2016841F040
:10BA8000200101607F0803E0026822F020020260CA
:10BA9000F600B6FBF7F0401C400804F124028109CF
:10BAA000116000F03F0004F12801086004F12C004F
:10BAB0000560002044F8180FF1BD00F12C010A6860
:10BAC00042F010020A6040F2013150F8303F0B435F
:10BAD0000360704700F118010A681307FCD400F1F5
:10BAE0002C010A6822F010020A6050F8303F114918
:10BAF0000B4003607047183000680009FFE700F052
:10BB0000010080F00100704700F118010A68D306B7
:10BB100001D4006870474FF0FF30704710B500F156
:10BB2000180213689C0602D40160012010BD002099
:10BB300010BD0000FEFCFFFF50F8382FFFE722EA9F
:10BB400001010160704700F6C87001607047000095
:10BB5000F0B500230FF280240FF29C250FF2B826D7
:10BB60000FF2D42721FA03FC5FEACC7C20D5DFF862
:10BB7000D0E170450CD0DFF8CCE170450BD0DFF898
:10BB8000C8E170450AD0DFF8C4E1704509D00BE088
:10BB900054F823C00AE055F823C007E056F823C044
:10BBA00004E057F823C001E0DFF8A4C1CCF800207E
:10BBB0005B1C082BD6D3F0BD10B50023DFF8804105
:10BBC000A0420CD0DFF87C41A04224D0DFF87841BD
:10BBD000A04240D0DFF87441A0425CD07AE0022954
:10BBE00008BF012376D0042908BF022372D0082998
:10BBF00008BF03236ED0102908BF04236AD0202970
:10BC000008BF052366D0402908BF062362D08029DB
:10BC100060D107235EE0012908BF08235AD002291A
:10BC200008BF092356D0042908BF0A2352D0082987
:10BC300008BF0B234ED0102908BF0C234AD020295F
:10BC400008BF0D2346D0402908BF0E2342D08029CB
:10BC500040D10F233EE0012908BF10233AD002292A
:10BC600008BF112336D0042908BF122332D0082977
:10BC700008BF13232ED0102908BF14232AD020294F
:10BC800008BF152326D0402908BF162322D08029BB
:10BC900020D117231EE0012908BF18231AD002293A
:10BCA00008BF192316D0042908BF1A2312D0082967
:10BCB00008BF1B230ED0102908BF1C230AD020293F
:10BCC00008BF1D2306D0402908BF1E2302D08029AB
:10BCD00008BF1F23136010BDF0B500230FF27804D6
:10BCE0000FF294050FF2B0060FF2CC0721FA03FC15
:10BCF0005FEACC7C20D5DFF848E070450CD0DFF857
:10BD000044E070450BD0DFF840E070450AD0DFF822
:10BD10003CE0704509D00BE054F823C00AE055F828
:10BD200023C007E056F823C004E057F823C001E021
:10BD3000DFF820C0CCF800205B1C082BD6D3F0BD68
:10BD400000900D4000A00D4000B00D4000C00D401F
:10BD500000400D4080400D4080400D4084400D402B
:10BD600088400D408C400D4090400D4094400D4067
:10BD700098400D409C400D40A0400D40A4400D4017
:10BD8000A8400D40AC400D40B0400D40B4400D40C7
:10BD9000B8400D40BC400D40C0400D40C4400D4077
:10BDA000C8400D40CC400D40D0400D40D4400D4027
:10BDB000D8400D40DC400D40E0400D40E4400D40D7
:10BDC000E8400D40EC400D40F0400D40F4400D4087
:10BDD000F8400D40FC400D4000400D4004400D4037
:10BDE00008400D400C400D4010400D4014400D40E7
:10BDF00018400D401C400D4020400D4024400D4097
:10BE000028400D402C400D4030400D4034400D4046
:10BE100038400D403C400D4040400D4044400D40F6
:10BE200048400D404C400D4050400D4054400D40A6
:10BE300058400D405C400D4060400D4064400D4056
:10BE400068400D406C400D4070400D4074400D4006
:10BE500078400D407C400D4030B5CB4300F5806408
:10BE6000D50725684CBF0D431D40256000F5846053
:10BE7000920747BF0268114301681940016030BD55
:10BE800004460D460222FFF7E7FF29462046BDE89B
:10BE900038400022FFF720BF38B5F1E738B5044637
:10BEA0000D460222FFF7D8FF29462046BDE838405C
:10BEB0000822FFF711BF000010B56FF07F44204645
:10BEC000441E20B1FFF7EDFA0028F8D0012010BD84
:10BED00010B500F035F816490820086000F038F871
:10BEE000FFF782FAFFF7E8FF10B9FFF7F4F850B94F
:10BEF000FFF7B0FAFFF784F80028F9D00D4CFFF7F0
:10BF0000A9FA641EFBD10C480168486900F004F8E6
:10BF1000BDE81040FFF76CBD01B40849086001BCE2
:10BF2000D0F800D04FF0FF3E406800477047000057
:10BF300008300D40444404003040002008ED00E08B
:10BF400080B500F015F800B10120C0B202BD0000BC
:10BF500080B50122C0210548FFF7BEFEBDE80840BC
:10BF6000002200210120FFF7EBBC000000C00D40C3
:10BF7000EFF3108072B6704719E050F8042BD30726
:10BF800044BFA9F101039A18091F0023042942F8AC
:10BF9000043BF9D25FEA817C134604D54FF0000CD4
:10BFA000A2F800C09B1CC90744BF0021197050F8BB
:10BFB000041B0029E1D1704730B50168846842183C
:10BFC000416802EB5103C9070BD54C4409E012F953
:10BFD000011B12F8015B002904F8015B05D5491C1F
:10BFE000F9D19A42F3D10C3030BD491EF1D5F8E7B2
:10BFF00010B5074979441831064C7C44163404E0E6
:10C000000A68081D114488470146A142F8D110BDB5
:10C01000080000002400000061FFFFFF7010000016
:10C02000344000200000000091FFFFFF5C00000092
:10C030001C0000000040002000F00BF8002801D098
:10C04000FFF7D6FF0020AFF30080FFF741FF00F0BD
:10C0500002F80120704700F001B80000074638469A
:10C0600000F002F8FBE7000080B5AFF30080024A61
:10C0700011001820ABBEFBE726000200AFF30080E2
:10C08000AFF30080FFF7D8FFDC000334400020F856
:06C0900000031C0120006A
:0CFFD400000000000000000000B8270042
:020000040020DA
:10000000A06300206117220091172200951722009B
:10001000991722009917220099172200000000006A
:1000200000000000000000000000000099172200FE
:1000300099172200000000009917220005152200E0
:100040009917220099172200991722009917220068
:10005000000000009917220069C4200099172200AF
:1000600099172200000000000000000000000000BE
:1000700000000000000000009917220000000000AE
:1000800000000000000000009917220099172200CC
:100090009917220099172200991722009917220018
:1000A0009917220099172200314A2000974A200010
:1000B00099172200991722009917220099172200F8
:1000C00069182200EB492000991722009917220095
:1000D000991722000000000000000000000000004E
:1000E0000000000000000000000000000000000010
:1000F000991722000000000099172200000000005C
:10010000FFFFFFFFFFFFFFFFFFFFFFFFFFFFFFFFFF
:10011000FFFFFFFFFFFFFFFFFFFFFFFF7F58000014
:10012000FFFFFFFFA5A5A5A500002000FFAF27004A
:100130000000200010B5DFF8C00B0FF2B961DA4CF7
:1001400041650FF2F97181650FF27551E1620FF2AD
:10015000355121630FF6290161630FF65501A16343
:100160000FF2F971E1630FF2B93121640FF2B55169
:1001700041640FF20D6181640FF27551C1640FF695
:10018000B1010165206908B102F089FBDFF8BC0B01
:100190000B49A0600B22082020730020206181F809
:1001A00020002075002104F1150002F0C1FB04F1CC
:1001B0002000BDE810400B22002102F0B9BB000076
:1001C000284200203EB504460520E0820320207529
:1001D0006068401E6060411E616094F83A100170D2
:1001E00094F83A0010B14FF6FF7121876068411E04
:1001F0006160218F090A01706168208F087004F125
:100200002F01207AC01C2072684602F0CAFDDFF878
:10021000080AC38C03228DF8082003216A46204671
:1002200001F0E1FC050004BF204600F0B4FE2846C2
:100230003EBD70B50D46044661680498160A01F883
:10024000016D01F8020C01F8012CDFF8CC09428D98
:10025000120A01F8032C408D01F8040C180A01F869
:10026000050C01F8063D227A606861608218521A16
:100270002272287ADFF8301C03280CBF01200020EE
:10028000E0820B220920207504F1240002F038FBE3
:100290004FF6FF732A460321204601F0A4FC050017
:1002A00004BF204600F077FE284670BDDFF8FC1B37
:1002B000897A0829A8BF072101700078C006000EBE
:1002C000704700002DE9F04705460F46904602F0C2
:1002D0006FFD0026DFF8D49BD9F800A0441EA4418E
:1002E000E40F0AE0ED1F411D284602F05AFD1036CA
:1002F0005AF808AC6D1EF6B27F1EF8B280B10CE061
:100300009AF81900410606D5DAF804004178C1F3DD
:1003100081010329E6D05AF808ACBAF1000FEFD1F9
:100320000CB102F041FD02F043FD411E8941D9F8B4
:100330000000C90FF0B142685378C3F38103022B68
:1003400015D1437E5B060AD5927905F80129761C02
:100350004268537905F80139F6B27F1E07E0027E44
:10036000930604D5012388F80030FAB212B150F890
:10037000080CDFE709B102F017FD2E70681EBDE81A
:10038000F0872DE9F04385B08946002106468DF8B7
:10039000001090460DF10100FFF788FFDFF8785854
:1003A0000746287B3F184137FFB2384602F0F0FA83
:1003B00004004DD0E019606046EA09160020207262
:1003C0002A7B606851424718A968384602F098FABB
:1003D0009DF801106A46781EFFF774FF00217E4ADF
:1003E0000170137869789B0143EAC11343EA08134B
:1003F00043F00F0300F8013C00F8026D227A6168B7
:1004000060608A18121A00202272E08220758DF82E
:100410000C000B22DFF8F01B04F1240002F070FA4C
:100420009DF8000018B1E18A41F00801E1824FF621
:10043000FE71688D8842ACBF03210221002301AA0E
:10044000204601F0D0FB0028204602D002F0B2FA8C
:10045000002005B0BDE8F083F8B5074602F0A8FC1F
:10046000461EDFF8480A0468B641F60F00250EE084
:10047000617E080609D57968606801F063FB20B1E8
:10048000607E00F0BF006076254654F8084C002CD2
:10049000EED11DB1687E40F0400068761EB1BDE827
:1004A000F14002F081BCF1BDF86F00202DE9F84366
:1004B0008046894602F07CFC0026471EDFF8EC09E6
:1004C0000568BF41FF0F00240AE02C46617E207EB4
:1004D00041F0100140F080006176207655F8085C0C
:1004E0009DB1687E0106F9D56A684946404601F02B
:1004F00045FB0028F2D0002CE7D0207D012804D154
:100500006068017841F0100101700FB102F04CFCFD
:1005100014B100F0CDFC01263046BDE8F2830000A6
:100520002DE9F04182B00025009502F041FC00F079
:100530004BF80EE054F8088C2A462146384602F063
:1005400003FB2146684602F0BBFAB87A411E4446D6
:10055000B972CCB1607E010605D5608A401E60820A
:1005600080B20028E6D0254654F8084CF1E7FFF7A2
:1005700073FF607E410759BFF0206070E921617010
:10058000204600F0EAFB18E00EB102F00DFCB87A4C
:1005900098B1DFF88416487B0F281EBFDFF83C1B9C
:1005A00091F82000002808D1DFF8504C204602F0D6
:1005B000B8F83021204602F09BF8684602F09BFA1A
:1005C0000400D4D1BDE8F381DFF8147B3C68461EFB
:1005D000B641F60F70470000646F002070B5054605
:1005E000FFF73AFFDFF8C448DFF82C66A06C8047BD
:1005F0000128F08D08BF401C6882A07A002804BF43
:10060000717B0F2908D1DFF8F45B284602F089F8E6
:100610003021284602F06CF802F0CAFBA17A00F003
:100620002BF8A17218B1BDE8704002F0BDBB70BDDF
:1006300038B50446DFF87458607E00F0EF0060764D
:100640002046FFF709FF2146284602F06CFA02F027
:10065000AFFBA97A00F010F8A97208B102F0A4FB70
:10066000DFF8B405417B0F2904D1BDE832400820F2
:1006700001F080B831BD0000401E8041491CC00F10
:100680007047000010B5DFF890150446487886B032
:10069000A0B1012100208DF800108DF8010000F0BC
:1006A0003AF8616808788DF80A0004F10F010DF13D
:1006B0000B0001F0EFFB684602F086FC06B010BDAF
:1006C00010B50446FFF77EFDDC2818BFDD2808D0F2
:1006D000E42818BFF32804D0DE281CBFDF28DB285D
:1006E00005D101462046BDE8104001F07BB810BDA1
:1006F00010B586B0044606208DF8000000F00BF817
:1007000004F10F010DF10A0001F0C4FB684602F08C
:100710005BFC06B010BD04F11C010DF1020002F0FB
:1007200040BB000030B5044604F1380585B0A87818
:1007300020B304F12F0101A802F033FB6248017DD0
:100740000388009103228DF80C2001A92A882046F5
:10075000FFF76FFD0146DC2918BFDD290BD0E42926
:1007600018BFF32907D0DE2918BFDF2903D0E829F5
:1007700018BFDB2902D1204601F034F805B030BDA6
:100780002DE9F843804602F013FBE725DFF85079A6
:100790003C68461EB6414FF00009F60F02E0A14644
:1007A00054F8084C9CB1607E0106F8D5207D0128E4
:1007B00002BF94F83D1098F804008142EFD14A46F8
:1007C0002146384602F0C0F9B87A411EB9720EB11E
:1007D00002F0EAFA3CB12046FFF73EFEF021204647
:1007E00001F000F8002529464046BDE8F44300F03A
:1007F000F9BF000030B5054685B06878F32818BF0A
:10080000DF2822D0E82818BFDB281ED0284600F0B9
:1008100029F8040018D1287CB0B105F11101092094
:1008200000F08DF980B100F015F8A97A009101A9C6
:100830002B89FFF7FEFC0446F32C18BFDF2C03D0F6
:10084000E82C18BFDB2C03D16C70284600F076F83A
:1008500005B030BD02218DF80C104FF6FF72ADF8D7
:100860000420704738B504460025A07A0B381328B9
:10087000207B28BFE8251028A8BFE82501DA0F282B
:1008800005D0DFF874140A7A110758BFE825617B98
:10089000884202D20F2918BFE825DFF87C03418D7A
:1008A0004FF6FF72914208BFEC25242001F091FF22
:1008B000DFF8B01C086120B12422211D02F020F8CD
:1008C00000E01A25284632BD166D002070B504469A
:1008D000D14D207ADFF8946B6873607A85F82C002C
:1008E000E07AE870A07A307002F0BAFC307838B163
:1008F000211D502002F01CFEA11DE12002F018FE77
:10090000DFF8D817012081F8200004F10D01687B81
:10091000DFF8505C0F2814BF0120002028750B223F
:1009200005F1150001F0ECFF04F1180105F12000BC
:10093000BDE870400B2201F0E3BF000010B5044693
:10094000607820B9DFF81C1C0869FFF7BFFF2C2175
:1009500021702046BDE8104000F092BF10B5DFF8CE
:10096000041C0446086918B100220A6101F097FFCF
:10097000082020702046BDE8104002F025BB000092
:10098000DFF8581791F8200000B9704780B5DFF8FC
:100990006C18087D50B9A048C27890F82C10407BA4
:1009A000FFF7EFFC10B1BDE80240F4E201BD00002A
:1009B00030B5054689B0A87B0124410724D5E98ECE
:1009C00005F11C00FFF772FDF0B9DFF8641C4879EF
:1009D000012808BF002417D00B2205F10F0106A83B
:1009E00001F08EFF8C48418D4FF6FE729142ACBFF4
:1009F0000321022106A830220190009205F11C0279
:100A0000EB8E012001F0A2F910208DF8080005F10D
:100A10001C010DF10A0002F0ACF9E88EADF81400EB
:100A20008DF8164002A802F0CFFA09B030BD0000E0
:100A3000DFF8381A0878002818BF01F06EBB70473D
:100A4000AD4800F154010162DFF8441C416200F13D
:100A5000440181620FF220010164DFF8381C016655
:100A6000DFF8601C8167DFF8601CC167018941F015
:100A70000201018170470000030471040204600454
:100A8000110470040204020401040204100461044D
:100A90000004140463047304720462044304000435
:100AA00013040604000400040404120400040004F7
:100AB0000004000451046400000400040004440421
:100AC00000040004000400046504000435048104EB
:100AD000640005040004830400040000024611467B
:100AE000032000F014BF0146082000F0F1BE0FF211
:100AF000612010B5DFF8E845606482B00FF239205C
:100B0000A06404E0204601F0F6FF00F014F821682C
:100B10000029F7D1606828B1201D01F0ECFF00F03A
:100B20000AF8F7E72060A072E07220730FF2D1504C
:100B3000E06213BD00000090684600F0ABBF38B51E
:100B400004460FF2C050055D284601F021FF20B198
:100B5000411941600021017232BD022001F018FFED
:100B600058B10FF2C451095D01701A21417001465C
:100B7000DFF86C05007C01F02CFF002032BD831DE6
:100B8000C907DBB210D50A2193FBF1F10A2202FB5F
:100B90001131C9B241B10A335B1ADBB20529A4BFD6
:100BA0000A33DBB20B33DBB21328ACBF14200620B0
:100BB000C318DBB209330A2093FBF0F0C0B27047D0
:100BC00080B54D48017A880704D502F0FCFA10B1CF
:100BD000012002BD002002BD4748017A88070CD5DC
:100BE000B24A907A38B9DFF8F404C06F28B1407E79
:100BF00010F0800002D00120704700207047AB4900
:100C0000DFF82C3A0A7B99788A4238BF01F0C0BEDF
:100C10000020704700000000F06C002080B500F05C
:100C200039FF002002BD31B5017BA04C21B1012963
:100C300026D0032926D037E0DFF8905C687B0F28A8
:100C40001EBF2D498A7A032A02D00098E16B88479B
:100C5000009995F83A008873142000990870201DB7
:100C6000009901F02DFF02F0A3F8217BFFF704FDAE
:100C7000217308B102F098F8202000F07BFD31BD0F
:100C80001520EAE70146087A70B14868401C4860C0
:100C9000009910F8012D4A73009AD07D0028507BEE
:100CA00005D008B10A2812DBFFF746FF31BD48B175
:100CB0000A2807DA0FF25845137A291811F8011C8F
:100CC0008B4204D0082804BF117A0829ECD11046C1
:100CD000017A4A1E02720099487B0A300870009817
:100CE000417B491C4173BAE7DFF8F403C06C00286C
:100CF00018BF004770470000A842002038B50446DE
:100D00000120207504F13C004188638FE18204F1E9
:100D100030020179E17641792177C17984F8201098
:100D20000178204600F05FFF050004BF204600F078
:100D300032F9284632BD0000DFF84C0C817A0329D5
:100D400001D1202070470120704700007517200056
:100D5000417E41F001014176704710B5027D017E70
:100D6000012A03D10B0701D441787EE14C06DFF85C
:100D7000703304D54078196CBDE810400847012A4B
:100D800003D1090748BF30210BD441781B2908BF84
:100D9000222106D000290CBF0FF280310FF28831DA
:100DA000895C01700146BDE81040187C01F011BE5D
:100DB00070B5DFF828430646E06F002872D0310096
:100DC000DFF8C85B04D01B2E05D1017D052953D067
:100DD0000022427052E0E92E2ED1807E30B902F01E
:100DE000FBF918B1E06F817D48072ED5EE2002F0A7
:100DF000EFFCE16F887EE8B18A7D530705D4401E81
:100E00008876BDE8704002F0A2BD087E00F07F0049
:100E10000876E06F017D032903D1427E42F004028F
:100E20004276ED2002F0D4FCDFF85C1BE06FCA6F65
:100E3000904726E04E7021E0E12E15D102F0CCF96A
:100E4000D0B1E06F817D480716D4E16FA87C887629
:100E5000E16F4A68287890702878401C287001203B
:100E6000BDE8704002F0D1BC1C2E05D10F490A6DBF
:100E700090470020E06770BDE06F4670E06FFFF7BD
:100E80006CFFE06F817D080605D5287E02F034FAFC
:100E9000E87D02F0F8F90020E0671020BDE870401E
:100EA00000F068BC70BD00000D700020746E002062
:100EB0002DE9F04101F07CFF884E441EA441F06F03
:100EC000E40F00284FF000085FD1854FB86C8047D1
:100ED0003D6840F0100002E0A84655F8085C002D7F
:100EE00053D0697E01408142F6D1424629463846B8
:100EF00001F02AFEF567697E08062CD4F87A411EB7
:100F0000F9720CB101F050FFF46FE18A207AFFF71B
:100F100036FE3881A07D010606D5E07E02F0ECF9B0
:100F2000F06F007F02F0AFF9F26FD08AC10520D5D3
:100F3000398900291CBF92F82000002811D090FBAD
:100F4000F1F082F82100F06F10F8081F1329ACBFF0
:100F50000221002103E0B87A411EB972D1E78176FF
:100F600005E0012082F82100F16F81F822000320C2
:100F700005E0107E400800F0010080F00100BDE8AF
:100F8000F04102F042BCBDE8F081002CFBD0BDE88E
:100F9000F04101F009BF38B5044600F074FD217E30
:100FA000DFF88C060A0704D4217D012908BF0278E6
:100FB00000D042784A4D2146284601F0DEFDD8B1E6
:100FC000696C20468847A07D41070ED401F0F0FEF1
:100FD000E97AFFF751FBE97208B101F0E5FEE08A1A
:100FE000C1050FD4BDE8314062E7DFF89C198A6F74
:100FF0002046BDE832401047F12060702046BDE831
:101000003240AAE631BD00001870002050E710B54C
:101010000446DFF8740900890021820704F13803CF
:1010200003D4DA88520748BFE82110F0600F03D1DB
:10103000DA88900748BFE821DFF8F4058279207A42
:1010400082421A7938BFE821002A02BF18780028A6
:10105000F52107D0080003D12046FFF74FFE0146D7
:10106000080001D0204600E010BDBDE81040B9E303
:101070000D21017001F0A8BF38B504460020207092
:101080006070DFF8AC15E08F0978154D420707D482
:10109000EA7A8A4207D3F1212046BDE83440A1E331
:1010A000AA7A8A42F7D2C10510D594F842100529D0
:1010B00012DB10F0050F0FD105F1240001F031FB18
:1010C00094F8421005F1240001F012FB287C21461F
:1010D000BDE8344001F07DBCE821DDE72842002076
:1010E000746E002010B5044604F15C0080B201F07B
:1010F0004FFC18B100F15C010472416010BD0000AA
:10110000D6E6000000464A4C4449494339513A006A
:10111000020402010101010902000000303016182A
:101120001920231A1C1E3000303017181921301BCB
:101130001D1F3000DFF8040C0FF26911016000225E
:101140000FF2913141600FF2E11181600FF219212C
:10115000C1600FF2293101610FF2DD2141610FF20F
:10116000B52181610FF2C131C1610FF219410162F4
:101170000FF2694141620FF2A14181620FF21D211C
:10118000C1620FF2ED0101630FF2D10141630FF271
:10119000E12181630FF26941C163DFF8A41B01649F
:1011A0000FF2914141640FF2F1418164DFF8940B39
:1011B00000F15C010A70CA7002220FF2B95140F8C6
:1011C0003C1F0161027101210175704700B585B0B6
:1011D00002228DF800208DF8010008B14FF6FF7152
:1011E000ADF802100B22DFF8601B01A801F088FBAC
:1011F000684601F0E9FE05B000BD0000F86F002070
:1012000080B50A228DF801008DF800208DF80210BB
:10121000684601F0D9FE01BD3EB504460120E082DA
:1012200004F1320102202075684601F0A2FD6068D9
:10123000A38F94F83E10401E606001706A46207AC9
:10124000401C20728321204600F0CDFC050004BF25
:101250002046FFF7A0FE28463EBD0000DFF86C26C2
:1012600092F8351030204143DFF8680C01F040BAA5
:1012700030B5DFF85846607B0F2893B006D02E219A
:101280008DF80010684600F0FBFA09E000F0E8F87D
:10129000608E1421B0FBF1F105F1340001F028FA61
:1012A00013B030BD38B504466078010032D104F186
:1012B0003205297A02291CBF0329E82094F82F104F
:1012C0000B39132913D2010024D104F12F01E1209D
:1012D00002F02EF904F13C01502002F029F9297A9C
:1012E000DFF8E805022904D12A88028408E0E82012
:1012F00012E04FF6FE7101841630294601F051FDCF
:101300000B2204F12401DFF8400A01F0F9FA20462B
:10131000FFF782FF010006D0607017202070204682
:10132000BDE83240ACE231BD10B5DFF8184A94F8A0
:101330005F0086B0A8B9012184F85F10012002F097
:1013400026FC02A800F0EFFBDFF8802504F1540032
:101350000121019000910321D38C02AA052000F005
:10136000F5FC06B010BD000010B500F0FDF82178C6
:10137000202904BFEB20607000F0EEF844BF01F0BC
:10138000FB0180F85F1000F0E3F800D5F0E02A20C0
:1013900020702046BDE8104072E2000070B504469F
:1013A00082B0012002F004FC00F05AF805F144007C
:1013B00001F0B7F900F027F8ADF800106068867802
:1013C000300008D16946532002F0B2F804F11C0144
:1013D0004A2002F0ADF80B2204F10F0105F1540090
:1013E00001F08EFABDF800103046FFF7EFFE95F8D9
:1013F0005F00810703D560780021FFF701FF00201F
:1014000085F85F0073BD60680178407801EB0021CA
:101410007047000010B50446EB206070DFF8640BE5
:1014200090F85F20900703D50021EB20FFF7E8FE3E
:101430004FEA0400BDE8104038B500F095F800F020
:101440000FF805F1440001F06CF905F15C00002192
:101450000170C1704FF6FF716078BDE83440B5E6A9
:10146000DFF8205B05F1340001F05BB9646F002008
:1014700010B50446FFF7CEFFC8E0000010B500F03D
:1014800073F8207A002814BF0020EB20607000F071
:1014900063F844BF01F0FB0180F85F1000F058F8DA
:1014A0000BD501F0FD0180F85F1000F091F8ACBFA2
:1014B00001210021FFF7A4FE08E0C80706D52A2075
:1014C0002070EB206070204600F0DAF92046BDE87D
:1014D0001040CDE51CB50446DFF8680890F85F10B1
:1014E00041F0020180F85F10012002F050FB6078AB
:1014F00098B9DFF8D813488D4FF6FE729042ACBF12
:101500000321022104F11000012201900092221D0A
:10151000E389052000F01AFC6070607818B1BDE81E
:101520001C4000216CE613BD10B500F01DF82178B9
:10153000202904BFEB20607000F00EF844BF01F0DA
:10154000FB0180F85F1000F003F800D510E010BD3B
:1015500090F85F108A077047DFF8280A90F85F104C
:101560004A077047F86F00200446012002F020BBB4
:1015700001F0FD0180F85F1000216078BDE81040A7
:101580003EE6000038B5FFF7EFFFFFF769FF207A6E
:10159000002814BF0020EB20607095F85F00410721
:1015A00044BF00F0FB0085F85F0095F85F008107FD
:1015B0000AD500F0FD0085F85F0000F009F8ACBF27
:1015C00001210021FFF71CFE2046BDE832404FE517
:1015D000A07B00F0100001286078704710B5FFF77D
:1015E000C3FFEB216170FFF7B7FF44BF01F0FB01C0
:1015F00080F85F10FFF7ACFF00D5B9E710BD000021
:1016000010B500F010F82046FFF7E8FF2046BDE8CF
:10161000104000F011BD000010B500F004F82046A5
:10162000BDE81040DAE70446DFF8D40B01F079B8E2
:101630005818220010B5044686B004F11C01DFF8EA
:10164000C80B01F083FB08B3EF2009218DF80100DE
:101650008DF80010FFF7D7FEADF802106068017931
:101660008DF80410207A082804D16168C8798DF8B3
:10167000050002E000218DF8051004F10F010DF1C5
:10168000060000F007FC684601F09EFC06B010BDA5
:10169000247000203501200000F03FBDBA48DFF87B
:1016A0009C1681613831C1610FF2200141630FF254
:1016B000D0018163DFF8541BC165018941F001014C
:1016C00001817047DD052000310620000101710114
:1016D000010101011101010131010101010180013B
:1016E000100161013B00140063017301720162018A
:1016F00043010001130106013D01350004011201FF
:101700000001000100010001040104013301330163
:101710003C01440132013600000100016501000175
:1017200035008101000105018201830100010000F3
:10173000024611460220EAE001460620C8E010B544
:10174000914C206882B010B1204600F0A3F900212E
:10175000A172DFF8BC1A086858B102E0684600F0D0
:1017600099F9DFF8840B007C01F060F90028009003
:10177000F4D113BD0146DFF8700B007C01F01FBAF5
:1017800003027102300160021102700201020202C2
:1017900002028002100261023A00410063027302F9
:1017A00072026202430200021302380000020002C9
:1017B00004021202000200020002000204020402FB
:1017C000370037003C0244020002390000020002E8
:1017D00065020002350281020002050282028302D4
:1017E0000002000000B585B003780FF27C02D25CE5
:1017F0008DF800200B2A03D1417000F06DFB31E021
:1018000082B30C2A29D11A2902D10020019024E0A8
:10181000019090F83D208DF80220C2680292028A61
:10182000ADF80C20827DD30648BF002204D4274A9D
:1018300092F83430827E9A1A8DF80E20427F8DF80D
:101840000F20827F8DF81020C27F8DF81120C08A72
:10185000C20544BF11228DF800208DF801106846A2
:1018600001F0B2FB05B000BD0C0E020B040B0A0721
:1018700008000F009648817A481E8041C00F7047CB
:1018800038B5934A937A02F1300102F1300551F8EC
:101890002330017801F07F01017003EB41014C78A6
:1018A00055F8241001B19472047813F81430190912
:1018B00002EB8102D16811B9BDE83240EFE203F0DA
:1018C0000F0351F82310BDE834400847F06C0020A6
:1018D00070B505460FF2840082B0405D0E4601F0FF
:1018E00057F804000CD0257000210FF27C006170C5
:1018F0003146425D201D01F003F800F03BF873BD56
:101900008DF800501A216846FFF76CFF73BDF8B5DB
:1019100007460FF24800C65D0D46304601F038F824
:10192000040012D02770002060702946A019606062
:10193000002020720FF23000C25D04F1240000F09C
:10194000DFFF00F017F80020F2BD8DF800701A21BB
:101950006846FFF747FF1A20F2BD000000055957FF
:10196000515C1C202807020000011C181A18181CC2
:1019700024030000DFF87009007C214601F029B83B
:10198000DFF8641908747047A8420020126D002027
:10199000F8B50E46B0064E4DDFF84C7919D41DE06F
:1019A00001F006FA397B401E80414A1EC00F3A738F
:1019B00008B101F0F9F920788DF800006C6020463C
:1019C000FFF75EFF9DF8000015281CBF281D00F0E2
:1019D00061F8381D01F08FF80400E1D1300406D41D
:1019E0000AE06860FFF74CFF281D00F053F8387CD0
:1019F00001F01CF80028F4D1F00602D52D2000F0EB
:101A00003EF8F00702D5242000F039F8B00702D5DF
:101A1000252000F034F8700702D5262000F02FF8BA
:101A2000300702D5282000F02AF8700607D50020DC
:101A30008DF801002C218DF8001000F022F83006FE
:101A400007D500208DF801002F218DF8001000F03F
:101A500018F8286888B101F0ABF9401E2C68804165
:101A60000021C00F296008B101F09EF96C6020468A
:101A7000FFF706FF281D00F00DF80020F2BD8DF8DD
:101A800000006846FCE612494A68824204BF002012
:101A90004860704738B5040008BF02F027F901F02C
:101AA00087F9451EAD412168ED0F59B1084A5368C9
:101AB000A1F108008B4204BF002151600021216088
:101AC00000F0EDFE1DB1BDE8314001F06DB931BD52
:101AD000A8420020DFF8540B0FF2C13141600FF231
:101AE000CD3181600FF2C931C160DFF8441B016163
:101AF0000FF2E5314161DFF8681B8161DFF8641B9B
:101B0000C1610FF2017181630FF28D41C1630FF268
:101B1000E94101640FF27D5141640FF21D5181646E
:101B2000002101707047DFF8841B0A8C4FF6FE73AA
:101B30009A4204BF163101F01CB902220272098CCC
:101B40000180704742784B78C2F38102C3F381036E
:101B50009A4211D1022A09D142794B799A4202BFA5
:101B600080798979884207D101207047032A03D1FF
:101B7000491D401D01F007B90020704738B5547861
:101B8000057A0023C4F38104AC4218D1022C10D191
:101B900054799579008804EB0524A4B2A0420ED1B3
:101BA000D078127900EB022080B2814207D1012364
:101BB00005E0032C03D1511D01F0E5F8034618465A
:101BC00032BD017ADFF8E42A022907D1128C00889D
:101BD000824201D10120704700207047014602F186
:101BE000160001F0B3B82DE9F84F92469946002748
:101BF000DFF8B82A9AF8084002F114060B064CBF29
:101C00004FF6FF78B6F81280054601F07F018DF897
:101C10000010A87D81064CBF082000202876A87DF2
:101C200041074CBF80201020687602F13400A97D66
:101C3000CB064CBF00210178A976E98ACB0748BFC3
:101C40002027090769682B7D48BF47F01007491E08
:101C5000022B07DB0B2B1CBF5B1E01F8013947F081
:101C6000030700E01F43407D012804D12B7A672B36
:101C7000A8BF47F480579DF8000047EA8037022844
:101C8000BFB207D1F08A000A0870F28A01F8012C6D
:101C9000891E0AE0032808D1A1F1070B02F13C01DB
:101CA000584601F07EF8ABF101019DF8000058B1F3
:101CB00024B1C84508BF47F0400705D04FEA2820A7
:101CC000087001F8018C891E47EA8427022CBFB2F4
:101CD00009D1BAF80000000A01F80109BAF8002099
:101CE00001F8012909E0032C07D1A1F107085146A9
:101CF000404601F056F8A8F101012CB14FEA192035
:101D0000087001F8019C891E287D4A1E18B9307898
:101D1000431C337002E0B07B431CB3730870380A75
:101D2000107002F8017D297A68686A604118891A82
:101D3000297200206870BDE8F28F0000186F002043
:101D40007D242000BC6D0020106E00202DE9F0479E
:101D5000099F8A460546904699463946FEF7EFFEAA
:101D60001A2604001AD00898E08225750B223946FD
:101D700004F1240000F0C4FD4B4642465146204683
:101D8000FFF731FF060009D1ED1F012D03D8607E5A
:101D900040F0200060762046FFF7FDF83046BDE8B1
:101DA000F0873EB5044604F13C050121687800B196
:101DB00005210420E182207504F13001684600F01D
:101DC000D8FF6068638F401E60606A4629780170A2
:101DD0000321207A401C20722046FFF704FF0500F3
:101DE00004BF2046FFF7D7F828463EBD70B504462D
:101DF0000D460520207005F13A06F078A070606865
:101E0000296B416105F11C0100F0B3FF6068E98EA8
:101E1000418131784174002160680176C17305F118
:101E20000F016068193000F035F86168A87B88738D
:101E30006868626801789181437841EA0321918161
:101E40008178C01CCB0918BF0123137411F007025D
:101E500001F0070118BF012201EB41015118C9B27D
:101E6000084410F8011B2172E060217A4A004908F9
:101E700002F00E0201F03801891808446061297AE5
:101E80006A685318834227BF081A1018002020726E
:101E9000207470BD0B2200F033BD00007047017844
:101EA0000B29BCBF1821FFF79DBC7047192199E48D
:101EB00038B5DFF8A8580446286828B11921FFF77B
:101EC00091FC2846FFF7E6FD2046FFF7DCFD2C607D
:101ED00031BD0000006E002030B5044689B0207886
:101EE000DFF87C58032808D0052812D0182804D021
:101EF0001E2818BF1F280CD01CE000208DF81800E9
:101F000004F12F0103A800F04CFF03218DF81410F9
:101F10000AE001218DF8181003A804F12F0100F048
:101F200040FF03208DF8140000F02EF8E88CADF887
:101F3000160015E002218DF8181003A804F11C0109
:101F400000F02FFF03208DF8140000F01DF804F1BD
:101F50000F01E88CADF816000DF11900FFF79AFF9C
:101F60000B208DF800000DF1190061788DF801103B
:101F700004F10F01FFF78EFF684601F025F809B064
:101F800030BD0000BC6D00200221688DADF802005C
:101F90008DF80A107047000038B5044665782800AF
:101FA00014D1DFF80817608FCA8C904218BFE8255B
:101FB00004F13000FFF705FE90B1002184F83D10D8
:101FC000280003D12046FFF7ECFE0546280006D086
:101FD0006570192020702046BDE8324050E431BDC4
:101FE00094F83D000028EBD0DFF8781791F8200036
:101FF0000028E5D1E825EBE710B586B004218DF87F
:10200000041000F1300142788DF80520428FADF8C0
:1020100010200DF1060000F0ACFE0DF10600FFF7F8
:10202000D0FD20B100F02DF8DFF83407048401A8BA
:1020300000F0CAFF06B010BD10B588B004460320FA
:102040008DF8040004F11C010DF1060000F0A9FE5A
:10205000616808788DF80E0004F10F010DF10F0092
:10206000FFF718FF04F11C00FFF7ABFD20B100F0F3
:1020700008F8DFF8EC06048401A800F0A5FF08B01A
:1020800010BD4FF6FF74ADF800406946532001F0D3
:102090004FBA000030B5054691B06868DFF80C46CD
:1020A0004178480609D5E08CE98E884205D1DFF8F1
:1020B0007C150878D0B100F030F808A9039102A887
:1020C0002946FFF793FE2B208DF8080002A8FFF7A2
:1020D000D7FBA07810B19DF8180028B105218DF824
:1020E000081002A800F070FF11B030BD94F8300065
:1020F0000028E2D005F11C00FFF763FD0028DCD1C9
:1021000005F10F0001210190009104F11602E38C0A
:1021100003210620FFF71AFEE6E700B585B0092087
:102120008DF80000EE218DF80110684600F04CFF9C
:1021300005B000BDF8B5054600F03AFE441EA441C6
:10214000E40F0DB101F0B6F9DFF8605501F023FBA3
:1021500005F139060027707801F0CEF83078DFF805
:10216000CC6401F090F8307801F07AF8E88C01F056
:1021700082F8688D01F080F805F13C0001F07EF8EE
:10218000DFF8D80500EB8700C06D00B180477F1CE9
:10219000072FF5DB00F0E4F9FFF7D1FA00207070AB
:1021A000FEF7A5FCFFF796FC05F12901522001F08E
:1021B000BFF90CB100F0F8FD0020F2BDDFF86C04AF
:1021C0000FF26D010162021D0FF2393141620FF20F
:1021D0006D3181620FF21511C1620FF205210163A9
:1021E0000FF2B9114163DFF87415CA6000F13802CB
:1021F000203048610A610020088101F0BDBA00006A
:10220000F06D002070470000066D002035112000A1
:10221000EC730020072202700A7A82708A7AC270F8
:102220004A68426000220272C969C16070470000BA
:1022300038B50446DFF8305500206870207A06284B
:10224000A4BFE8216970607A0E2804DD217A032991
:1022500004D0E8206870207A032806D1DFF8FC1447
:10226000087AC1075CBFE821697021462846FFF75C
:10227000D1FF6068800A286205F12400617A01704C
:10228000E17A4170217B8170617BC170A17B01711A
:102290000A214171DFF8141491F83A2082710B225F
:1022A000DFF8C804A86104F10F010420287705F1C4
:1022B0002B0000F025FB6978002904BF6078002816
:1022C0000BD1A87808B1EA21697001F058F82620EE
:1022D0002070042001F045FC01E0292020702046F8
:1022E000BDE83240FFF7CCBA746E002070B5DFF85D
:1022F00078540446A87886B070B995F829100A2950
:102300000AD001F081F8E96895F82920114401F814
:102310000B0C287A401C2872286A95F8291040086E
:102320002862491CC00785F8291002D4C9B21E29A9
:10233000F2DBC9B21E292CD005F12901E12001F000
:10234000F7F802208DF810004FF6FF73A878ADF86B
:102350000830002818BF022803D1204600F01EF8DC
:1023600019E0012805F12B0207BF08208021072072
:10237000832101920026009602AAFFF7E7FCDB28E2
:1023800018BFE52804D0F3281CBFDF28E82802D1B5
:10239000687000F0B2F806B070BD000038B5DFF824
:1023A000C843606804F1240101254A7905FA02F264
:1023B000904360603022A078032804D1DFF8A03376
:1023C00093F8355002E009788D406D1C554308B9EB
:1023D00001F018F8294604F11000BDE8344087E107
:1023E000F0B5DFF884530446A87802281CBF012802
:1023F00005288FB03CD1002006A96870019168467D
:102400002146FFF7F3FC2E7A95F8250086421BD271
:10241000EF680BE07889BDF82210884204D106A944
:10242000384600F093FC78B9761E2437F0B20028C5
:10243000F0D12E7AEB682422564306A9981900F0B1
:102440005FFA297A491C2972DFF81423907828B1A1
:102450009DF8101011B995F8250010B9684600F0E4
:10246000B3FD95F8250038B1297A814204D101E005
:10247000E820687000F041F80FB0F0BD70B5044678
:1024800004F1240082B00178DFF8DC52032904BF94
:10249000827A032A2CD104F11C014A2001F048F869
:1024A00060680178427801EB0221ADF80010861CCB
:1024B0006946502001F03CF83078717800EB01203B
:1024C000ADF8000069464B2001F032F8B61C3146E9
:1024D000E12001F02DF8701C0178407801EB00211B
:1024E000ADF800105320694601F022F8002000E00A
:1024F000E820687000F001F873BD292020702046A4
:10250000FFF7BEB910B5DFF8604204F1100000F02B
:1025100008F900F051FF042001F04AFBA1780329DB
:1025200004BF6078002804D004F12A01E12000F003
:10253000FFFF2046BDE8104000F046BD00B585B065
:1025400001466846FFF766FEFC218DF801106846DB
:1025500000F03AFD05B000BD01460720FFF7B8B90D
:1025600083480021016041604FF47F018160C160B8
:1025700000210161704710B57D4C0020206120686A
:1025800068B14068A168884209DA01F0ECFB216873
:102590004A688242B8BF02464A60206820612069CA
:1025A000616831B118B14A684068824202DA21613B
:1025B00000E040B12069A1684068884203DABDE8C4
:1025C000104001F0F8BBBDE8104001F01ABCF8B5AE
:1025D00000F0EEFB664D441EA4412869E40F10B3E1
:1025E000A9684068814203DA01F080FB2869D0B114
:1025F00001F0B9FB29694968884214D3002948BF12
:1026000001F074FB2E69304600F08BF8377BB6681A
:102610000CB100F0C9FB3846B04700F0C9FB441EBE
:10262000A441E40FE2E704B194E0F1BD646F00203F
:102630000F10200038B505460C460EE04C49606886
:102640000A692818944202D1002848BF002060601F
:10265000002848BF01F04AFB2468002CEED131BDB0
:102660000D1020007110200070B5414E00F0A0FB4D
:1026700074683168451EB068AD414042FFF7DAFF2B
:10268000B168ED0F05E060688842A4BF401A606041
:102690002468002CF7D1F06881421CBFB06001F0C3
:1026A00049FBFFF768FF05B11EE070BDF06C00202C
:1026B00070B504460D4600F07BFB461EB641286807
:1026C000F60F294630B1626843689A42A4BF0146BA
:1026D0000068F7DA0C6020602868A04208BFFFF7A6
:1026E0004AFF06B100E070BDBDE8704000F05CBB81
:1026F00038B504460D4601F036FB451965602046A5
:10270000BDE834401A49D3E70A6801E011461A4689
:102710002AB113688242F9D10B6001207047002072
:10272000704770B5044600F043FB114E451E31461C
:102730002046AD41FFF7E8FFED0F18B9311D2046E7
:10274000FFF7E2FF3069844208BFFFF714FF05B1CD
:10275000CAE770BDBDE8F14000F026BBA8420020EA
:10276000F06C002028420020AC700020751720007B
:10277000284300205E4841F2FC72002181525D49ED
:1027800008604FF42771018000F5277048F20401BA
:10279000018041F25C518180704738B5012000F022
:1027A00018F8050008BF01F0A1FA00F001FB51493B
:1027B000441EA441281F0860E40F284600F06FF86B
:1027C0004D48012101701CB1BDE8314000F0ECBA68
:1027D00031BD2DE9F04200240025061D16F003004E
:1027E0001CBF311D0E1A00F0E3FA424FD7F800C0AB
:1027F000431E414800789B41DB0F10B1B6B2112E49
:1028000007D26246D2F800E0CEF3C03119B10025FC
:1028100023E03A4AF6E7B6B2CDB121684FEAD139A2
:102820007144C1F30E0141EAC9312160C1F30E01C7
:10283000B14212DB34B32268C2F30E05AD1BADB258
:10284000082D13D3A55346F40046268011E0CEF39D
:102850000E01B14221DA012514461168C1F30E01BF
:102860000A4411880029CDD100240BE042F4004233
:10287000226030B1A44504D12068C0F30E002118B5
:102880003960241D0BB100F08FFA14F0030018BF5B
:1028900001F02CFA2046BDE8F0821446CAE710B5D4
:1028A00013498842044603D301F5C051884201D33D
:1028B00001F01CFA54F8040CC0F3C03008B901F060
:1028C00015FA00F075FA54F8041C0A4A21F4004184
:1028D000401E44F8041C80411368C00F211F994218
:1028E00038BF116018B1BDE8104000F05DBA10BDEE
:1028F000A0430020A06300206B740020404600200D
:1029000003E011F8013B00F8013B13465A1E002B6F
:10291000F7D1704710B513465A1E3BB110F8013B72
:1029200011F8014BA342F6D0002010BD012010BDCC
:1029300010B5044610460A460146204601F076FAD4
:10294000204610BD01460878497800EB012080B28E
:10295000704702460229107803D1517800EB01201C
:102960007047032906D15178927800EB012000EBE3
:1029700002407047042908D15178937800EB012078
:10298000D17800EB034000EB0160704701F0C0BA62
:1029900010B5040001D1002010BD04F1080080B280
:1029A000FFF717FF28B1002101608480FF218171AA
:1029B000083010BD80B508B9052002BD10F8021C12
:1029C000FF2901D0042002BD0838FFF768FF00206E
:1029D00002BD0022FFE738B50446A1B1DFF8583345
:1029E0001D78A84204D30846FFF7E4FF032032BD58
:1029F000A1F108031868002804BF9D79FF2D04D0B9
:102A00000846FFF7D7FF052032BD012A9C71DFF889
:102A10002C0302D100F087F801E000F051F84FF4E8
:102A20000041204600F0CBF8002032BD2DE9F041F6
:102A3000804600F0BDF900260024DFF80053471E51
:102A4000BF412868FF0F58B110F8021C414502D061
:102A50001CB9064601E0A4B9044650F8080CF2E798
:102A60004FF40041404600F0C1F824B132462146FF
:102A7000284600F069F80FB100F096F92046BDE84D
:102A8000F0814FF40041404600F099F8EEE770B550
:102A900005460E4600F08CF9A8490C68401E80419E
:102AA000C00F44B114F8021CA94206BF2178B142FC
:102AB00054F8084CF5D108B100F076F9204670BD05
:102AC00038B500F014F8421E9241002045F8080C79
:102AD000D20F216811B9256006E0014651F8080CB3
:102AE0000028FAD141F8085C02B129E031BD044662
:102AF0000D4600F05DB938B5044600F059F90025DF
:102B0000411E89412068C90F40B10546A5F1080062
:102B10000268226000220260FF22827109B100F087
:102B200043F9284632BD38B5FFF7E1FF401E216862
:102B300045F8081C8041C00F256000D000E031BD81
:102B4000BDE8314000F030B970B500F033F8401EF8
:102B5000A5F10801804123680A68C00F9D420CBF9F
:102B6000226046F8082C00220A60FF228A7118B100
:102B7000BDE8704000F018B970BDF8B500F01AF863
:102B80000027421E92412168D20F21B925600BE037
:102B9000F1B251B1014651F8080C761E0028F7D168
:102BA000F6B216B141F8085C01270AB100F0FCF852
:102BB0003846F2BD04460D46164600F0F9B838B561
:102BC00000F02CF810D200F0F3F85D49096831F8F4
:102BD0001520401E8041144321F81540C00F08B154
:102BE00000F0E2F8002032BD032032BD38B500F01D
:102BF00015F811D200F0DCF85149096831F81520B8
:102C0000401E22EA0404804121F81540C00F18BF7D
:102C100000F0CAF8002032BD032032BD0C46464900
:102C20000A7890420546704780B5FF2803D100F02E
:102C3000BBF8002002BD072002BD80B5FF2803D1EC
:102C400000F0B6F8002002BD072002BD80B5FFF7F6
:102C500091FD3A490020086001F05CF901F050FA5A
:102C600001F058FAFFF799FD002002BD80B500F091
:102C700001F8FCE72DE9F04101F0BEFA2E48304D95
:102C8000017800242A68E4B232F8140018B9641CF0
:102C9000E0B28842F6D3E0B288422AD2E4B200F031
:102CA00087F82968264631F81680401E80410022A8
:102CB00021F81620C00F08B100F076F8214F224A03
:102CC0003C70414652F82620204690470446FF209B
:102CD000387000F06DF8296831F81620401E8041E8
:102CE000144321F81640C00F18B1BDE8F04100F0C0
:102CF0005BB8BDE8F08101700A0A42700A0C090E47
:102D00008270C170001D704701700A0A090C427080
:102D10008170C01C704710B548B1002300E05B1CF7
:102D2000DCB2944205D2DBB2C45C8C42F7D0002006
:102D300010BD012010BD0000F6372000E873002010
:102D4000EC7300206F43002078412000027A0B7A58
:102D50009A420CD15AB1022A05D1008809888842CA
:102D600005D101207047032A08BF00F00CB80020ED
:102D700070470A7A0272032A04BF0822FFF7C0BD17
:102D800009880180704710B5082210F8013B11F83E
:102D9000014BA34203D1521EF7D1012010BD0020E8
:102DA00010BD0822FFF7ACBD80B501F02BFA02E0A0
:102DB00080B501F023FA00B10120C0B202BD10B508
:102DC0000FF22412830852F823201368C00000F089
:102DD0001800FF248440A34381401943116010BDB3
:102DE00004283D4903D1086840F480300BE00528F1
:102DF00004D10A6842F400320A607047062804D100
:102E0000086840F48020086070470F2805D13348D7
:102E1000016841F00201016070470CD90FF26C1398
:102E2000A0F110011038400953F82000012201F0F0
:102E30001F018A40026070470428274903D10868AF
:102E400020F480300BE0052804D10A6822F4003217
:102E50000A607047062804D1086820F480200860C2
:102E600070470F2805D11D48016821F0020101605B
:102E700070470CD90FF22813A0F110011038400947
:102E800053F82000012201F01F018A4002607047C0
:102E90000E28134904D1086840F0006008607047AC
:102EA0000F2804D10A6842F000720A6070470CD9FA
:102EB0000FF20013A0F110021038400953F820005F
:102EC000012102F01F02914001607047054801682E
:102ED00041F001010160704724ED00E010E000E0E6
:102EE00004ED00E098200D400000000018ED00E027
:102EF0001CED00E020ED00E000E400E004E400E070
:102F000008E400E00CE400E010E400E014E400E079
:102F100018E400E01CE400E020E400E024E400E029
:102F200028E400E02CE400E030E400E034E400E0D9
:102F300038E400E03CE400E040E400E044E400E089
:102F400048E400E04CE400E050E400E054E400E039
:102F500058E400E05CE400E060E400E064E400E0E9
:102F600068E400E06CE400E070E400E074E400E099
:102F700078E400E07CE400E080E400E084E400E049
:102F800088E400E08CE400E090E400E000E100E090
:102F900004E100E008E100E00CE100E010E100E005
:102FA00080E100E084E100E088E100E08CE100E005
:102FB00090E100E080E200E084E200E088E200E0EE
:102FC0008CE200E090E200E02DE9F14382B0067867
:102FD0000FF25820855DADF80050002D4DD00D2E1C
:102FE0004FF6FF7911D16946532000F082FABDF8FF
:102FF00000004FF6FE7188421FBF48450299087ACB
:10300000002800F0B1800C4673E0052E4FF0240834
:1030100004D102990A7C243250190DE0072E0DD1FB
:103020000299887820B905F11B01ADF8001005E080
:103030000A7A284608FB0200ADF80000BDF800003F
:10304000FFF7A6FC04001CD10C2E16D1029948688B
:10305000002812D0FFF7ACFE471E0298BF41001DAA
:10306000FEF718FDBDF80000FFF792FCFF0F04000B
:1030700004D1002F01D0FFF797FE99E00FB1FFF7C1
:1030800093FE02992A462046FFF73AFC052E12D1FC
:103090006168242204F11800FFF732FC04F11800E3
:1030A0006060227C61692430FFF72AFC606800F1CF
:1030B000240161611DE0072E1BD155480568C5B18B
:1030C00000210160A07830B904F11001E1601B22F9
:1030D000E068294608E004F11000E0602946207A03
:1030E00008FB00F204F11000FFF70AFC2846FFF786
:1030F000D6FB4848016819B12046884700284DD1C1
:103100000D2E454834D1029949680A784978C2F3AE
:10311000830302F00302022A0ADA404A957CAB429A
:1031200001BF11F0C00F029991F82420022A09D0A2
:10313000032B19D1029A0121117000780299FFF72F
:1031400048FC35E094F83B0004F13A0100F046F801
:103150000298C18C49451CD141688879022818DB46
:10316000204601F05AFA18B302A8FEF793FC1FE0BC
:103170000C2E1FD1029841781A291CBF60680028C4
:1031800007D0807DC10704D5207C04F10F0100F039
:1031900025F8234800782146FFF71BFC0C2E18BFAA
:1031A000112E05D10299486810B1081DFEF772FC76
:1031B000BDE8F783112EECD1002121702146007863
:1031C000FFF707FCEEE717480078002814BF012836
:1031D00001F0A8B90020704700207047124A127809
:1031E000A2B10B783228B8BF322002DB6F28A8BF0B
:1031F0006E20012A05D1323858433C2290FBF2F36D
:103200009BB2B3F5807FA8BFFF230B70704700000F
:10321000A87300201874002010720020786C002021
:10322000BC730020DC4100207C74002000161000DC
:1032300000181510020002241440000010140000B1
:1032400063480B218170FF214170C170017070478C
:1032500080B500F0B1F8BDE80140D5E001F0F6BA64
:103260005C490A68030018BF012322F0020242EA07
:1032700043020A607047A4E05749A3E001460822D0
:10328000564801F081BC70B5554D2E78044640B2C9
:1032900071B28142B8BF344604DB69784AB29042C9
:1032A000B8BF0C46FFF784FD401E494A8041361BDB
:1032B000B61CF6B2C00FA95DD17008B1FFF774FD5E
:1032C00000F002F8204670BD38B5FFF771FD404AA6
:1032D000D378411E89411078C90F834209D0414CEF
:1032E000207830B9404D2C78200602D43F48137026
:1032F000036001B117E031BD38B50446A4F10B00FD
:10330000122828BF00F0F2FCFFF752FD3049364A80
:103310008C70451EAD411078ED0F08B900F007F82C
:1033200005B100E031BDBDE83140FFF73DBD10B54E
:103330002D49087808B100F0D9FCFFF739FD244C7D
:10334000A1786278401E8041C00F914211D0617017
:1033500008B1FFF729FD00F097FC6078244900EBE5
:1033600080002C38086001F074FCBDE8104000F0CB
:103370004CBC18B1BDE81040FFF716BD10BD38B504
:103380001C490446087808B100F0B0FC1A4D2878B2
:1033900008B100F0ABFC20000CBF0120032C09D0C9
:1033A000012C1CBF022C00F0A1FC1449FF220A6072
:1033B00002204A60287031BD0F4900200870104972
:1033C000C88C0E4900F0FF020A60000A486070478E
:1033D000DC73002000860840D0850840A88508409E
:1033E00014182200CE710020E071002040860840B1
:1033F0003C8608406C430020CD710020C885084001
:10340000F06C002001F06FBB80B501F076FBBDE8E9
:103410000240493840B210F1570FB8BF6FF0560064
:1034200002DB0B28A8BF0A205730C0EB0020612127
:1034300090FBF1F0C0B27047EDE7F0B403461868B6
:103440009D681A18586802EB5004C00721D54D44F6
:103450001FE0F0BC03F10C00704712F8017B05F887
:10346000017B491EF9D1A0B1B60812F8011B06F084
:103470000306032E08BF12F8016B01EB0621494237
:10348000801C294405D011F8016B05F8016B401E22
:10349000F9D1A242DDD012F8016B16F0030104BF8E
:1034A00012F8011BC91C30090F28DAD112F8010BE0
:1034B0000F30D6E710B5664C0FF29C1120466C22F7
:1034C00001F00EFF1434FFF7C9FEA073FFF7C6FE2C
:1034D000207010BDA0F140021E2A38BF403804D32E
:1034E000A0F1E0010F2902D23E30C0B270472D207A
:1034F000704770B50D46FFF7EDFF06462D2E01D142
:10350000F42070BDFFF754FC514B441E0FF2B41071
:1035100000EB860110F826004A78A44119182846C5
:10352000FFF7EEF9E40F0CB1FFF73EFC002070BD91
:103530002DE9F0410746F12F0D46DFF8148111D136
:10354000297801290AD1022000F032FB3846FFF722
:10355000C1FF2D28014612D1F42076E0022000F0B0
:1035600000FBF3E7F02F05D128783A490870FFF700
:1035700077FEEBE7452FE9D1C8F8085064E00FF279
:10358000441000EB8106B178002904BFF0780028D0
:1035900014D0F278914208BFFB2056D0582F05D1A5
:1035A00028888F3846F22241884205D22878B1789F
:1035B000884228BF824201D2E82046E0FFF7F8FBAC
:1035C0007278441E307829464044A441FFF798F9A8
:1035D000E40F0CB1FFF7E8FB502F08F12A0010D0E0
:1035E000522F17D0532F11D0E02F27D0E12F1CD00E
:1035F000E22F1ED0E52F25D0E62F04BF2978C17712
:1036000022E0B8F82600FFF736FE1DE00088FFF73D
:1036100033FE19E098F8290018B1022000F0A1FA51
:1036200012E0022000F0C4FA0EE0007CFFF764FE16
:103630000AE008F13C00FFF721FE05E0C07BFFF740
:1036400022FE01E0297881770020BDE8F0810000AA
:10365000F06C0020646F00203600010006000000BE
:1036600000000000000F000000000000000000004B
:103670000000000000000300FFFF00000403FFFF44
:103680000000FFFF0F00F4010005C4040320000147
:1036900000000B0000000000000000000300010F0C
:1036A000000000000000000000000000000000001A
:1036B000000000000000000000000000000000000A
:1036C0000000000000013636010100010201000186
:1036D0000301000104010606080400000C01003487
:1036E0000D01000F10040101140100FF1608000075
:1036F00020020000220100FF23010001240100FE3E
:10370000250100082602000028010001290100010E
:103710002A0200002C01000F2E02000030010001DF
:1037200031010008320200FF340100073501024078
:10373000360100003701000138010001390100FFA6
:103740003A010B1D3C080000460100084701000F2C
:1037500048010001490100FF4C0400005004000032
:1037600054040000580400005C04000060040000E1
:10377000640400006804000080B500F0C7FFFFF794
:103780005FFD00F0E9F901F035FA00F035F8BDE829
:10379000014000F0ADBA80B5FFF70AFB18B9FFF79A
:1037A00003FB00F0A3FA0849087818B901F047FABA
:1037B000FFF74EFD00F0B4FA01F0BEFD0349012011
:1037C00081F8480001BD00006C430020F06C00202F
:1037D00010B50446A4F1E700082882B00AD2694671
:1037E0002046FFF786FE0098401C00906946204660
:1037F000FFF79EFE13BD0C00DFF8340300210170BB
:10380000C1710FF2A9210161704738B5DFF820437B
:103810000546207808B100F069FA01212170C549F8
:10382000087818B1BDE832401D205AE1657028467D
:103830000228C14D02D101F048FE19E000281CBF4A
:10384000012800F053FA002020712968BB488A7DC6
:10385000510661784CBF90F8462090F8252021B998
:10386000C07810B1022AC8BF0222A27000F03BF853
:10387000E179B1B9286808B900F038FA2868B04B86
:103880004268117801F02001A17191786171017A8B
:10389000501E8A1C0270491CEE221A60C9B201F047
:1038A00087F9FFF785FAA7490A78451EA6480078E8
:1038B000AD41ED0F024307D1832020700DB1FFF71A
:1038C00073FABDE8314023E0202804D10E2104F131
:1038D0000800FEF70DFF022020701DB1BDE8314049
:1038E000FFF762BA31BD80B5FFF7B8FC904B93F992
:1038F000022001219140491E0840D870587818B91B
:10390000BDE8014001F093BDBDE8014001F080BD7C
:103910008E488D4A016849084900016000201070F6
:1039200083494878022808BF01F0D5BD10B5804C06
:10393000607840B9FDF7D8F9E178814203D3BDE85A
:1039400010401C20CDE0BDE8104001F093BD10B543
:10395000774C0120E071ED20FFF73AFF6078BDE879
:10396000104052E780B57749774B0A7818780243C0
:1039700018BF00F0BBF9FFF71BFA6D490A78401E2B
:103980008041C00F022A07D183230B7008B1FFF7D3
:103990000BFABDE80140BBE718B1BDE80140FFF7F5
:1039A00003BA01BD10B5624C607800281CBF012825
:1039B00000F09CF90420207000F039F92079644966
:1039C000401C2071C0B20A78824203D2BDE8104088
:1039D000E12086E0487BA1784A1C8242B8BF481C9F
:1039E000A070FFF780FF83202070BDE810409DE7A6
:1039F00010B5FFF7DDF94E490A78441EA441E40FE3
:103A0000832A0ED1887940B985220A700CB1FFF75C
:103A1000CBF9BDE81040002063E08620087001F07B
:103A2000B1FD04B13DE010BDF8B504460D46FFF709
:103A3000BFF93F4F461EB6413878F60F862812D19F
:103A40008721397001F00DFE0EB1FFF7ADF97879DD
:103A5000844204D1002D0CBF00201B2000E0E9208F
:103A6000BDE8F2403DE01EB1BDE8F140FFF79CB972
:103A7000F1BD10B5FFF79CF9441E2D480178A44113
:103A8000E40F86290AD18722027001F0EAFD0CB109
:103A9000FFF78AF9BDE81040E92022E004B100E018
:103AA00010BDBDE81040FFF77FB90000264810B5F3
:103AB00001781F4C20290ED124490A68520852006F
:103AC0000A60002101702178022901BF1D4A107887
:103AD0000028FFF747FF04F10800BDE81040FEF79B
:103AE00020BE10B50446124800211B2CC171017084
:103AF00004D01848017801F0FE01017000F097F839
:103B0000FFF7E2FBFFF713FC2046BDE81040FDF78E
:103B10004FB910B5084C206808B900F0E7F800F07C
:103B200036F92168C86000F0AAFE2268108210BD34
:103B3000E07100206C430020A4420020F06C0020C3
:103B400038880840CC710020CE7100209086084053
:103B5000146D00203F7200205E480021417001700A
:103B6000704738B5050008BF00F0C0F8FFF720F92E
:103B7000441E58484178A4410D43457000F070F848
:103B8000E40F1CB1BDE83140FFF70EB931BD10B5EF
:103B9000040008BF00F0AAF8FFF70AF94D494A7877
:103BA000401E80411443C00F4C7000B13BE010BD7B
:103BB00010B5040008BF00F099F8FFF7F9F845497F
:103BC0004A78401E84F0FF0480411440C00F4C70BE
:103BD00008B1FFF7E9F8BDE8104028E080B5FFF72D
:103BE000E7F83C49401E804100224A700A70EF22EB
:103BF00039490A60ED220A60C00F0A6008B1FFF778
:103C0000D3F8BDE8014001F024B810B5FFF7D0F8B3
:103C10003049441EA4414878E40F08B100F020F870
:103C200004B100E010BDBDE81040FFF7BDB810B50D
:103C3000FFF7BEF82749441EA4414878E40F60B955
:103C400026490A78100608D42549087828B9254A53
:103C50001178080658BF00F017F804B1E3E710BD6B
:103C600080B5FFF7A5F81B4A411E89411078C90F9E
:103C700020B901231370E3221748026019B1BDE88F
:103C80000140FFF791B801BD70B5FFF791F81149F8
:103C9000451EAD410878ED0FA8B10022124E0A7002
:103CA000EF207060ED2070607060FFF781F8441EB7
:103CB000A4412A20FFF7ECF86FF00400E40F306015
:103CC0000CB1FFF771F81DB1BDE87040FFF76CB89B
:103CD00070BD00003E72002038880840CC71002082
:103CE000CE710020E0710020348808407047000049
:103CF00080B5002000F003FE4FF47F0000F01AF8BA
:103D000047486FF0080141606FF01002016841F010
:103D1000080101604260016841F01001016001BDCD
:103D20003F48016821F010010160026822F008029A
:103D30000260DDE738B5054600F0B4FDA84228BFB3
:103D4000FFF7D4FFFFF734F8441E364805602846D5
:103D5000A44100F014FEE40F04B100E031BDBDE861
:103D60003140FFF721B838B5FFF722F8441EA441CF
:103D700000F098FDE40F05460CB1FFF715F829484F
:103D800001688D4201D3002032BD284632BD38B5CE
:103D9000FFF70EF8441EA44100F096FDE40F05461F
:103DA0000CB1FFF701F81F4801688D4201D30020D4
:103DB00032BD284632BD70B51A4D0446286884428B
:103DC00028BFFFF793FFFEF7F3FF6C60461E204607
:103DD000B64100F0B4FD00F065FDF60F84420AD153
:103DE00011496FF0100008600EB1FEF7DDFFBDE86D
:103DF0007040FEF7ECBB1EB1BDE87040FEF7D4BFCB
:103E000070BD7047FEF7E3BB80B500F07FFEBDE8F4
:103E10000140FEF729BC034800687047000000001D
:103E200008880840547300200C88084062F30F2271
:103E300062F31F42401810F0030308D0C91A1FD3C1
:103E4000DB0748BF00F8012D28BF20F8022D130022
:103E500030B414461546103928BF20E93C00FAD882
:103E6000490728BF20E90C0048BF40F8042D89000D
:103E700028BF20F8022D48BF00F8012D30BC704744
:103E8000C91818BF00F8012DCB0728BF00F8012D75
:103E90007047000080B568B9FF20FEF7CEFE002114
:103EA000002001F025FC1649164A00200870012167
:103EB000117001BD144A0FF2410100201070BDE8DD
:103EC000044001F015BC70B5104E0D463178FF2945
:103ED00004460DD00420FEF75BFD38B1C02101700F
:103EE0008570C47001463078FEF773FD002070BD08
:103EF000012070BD00000000810801F00101E2E72F
:103F0000887200207D7400206A7400206E430020B7
:103F100000F0A7BC794900204860704770B504469E
:103F20000D46164600F018F808B1466070BD102026
:103F3000FEF74FFC78B18472058146600021016074
:103F4000C1606E490A6812B9086070BD0A461168FE
:103F50000029FBD1106070BD02466848006828B196
:103F600003898B4204BF837A9342F7D17047F8B537
:103F700004460E461746FEF71BFF3A463146451EDD
:103F80002046AD41FFF7CAFFED0F04460DB1FEF725
:103F90000BFF0CB10020F2BD0820F2BDF8B50446BD
:103FA0000D461646FEF704FF471E324629462046B8
:103FB000BF41FFF7B3FFFF0F040018BFE6600FB16A
:103FC000FEF7F2FE0CB10020F2BD0820F2BD70B584
:103FD00004460D46FEF7ECFE461E29462046B64135
:103FE000FFF7BAFFF60F04001CBF002020810EB1BE
:103FF000FEF7DAFE0CB1002070BD062070BDF8B5EA
:1040000004460D46FEF7D4FE0026471E29462046EC
:10401000BF41FFF7A1FFFF0F00B146680FB1FEF7E8
:10402000C3FE3046F2BD2DE9F14181B0334FFEF7BA
:10403000BFFE7A680199401E80418A18C00F7A60DD
:1040400008B1FEF7B1FE3E68002E51D04FF00008D7
:10405000FEF7AEFE0024451EAD41BDF80600ED0F93
:10406000002804BF9DF80500002807D130799DF88D
:104070000420904202D3801A307106E070680199E2
:1040800081423ABF401A70607460B08860B9F188AC
:1040900061B9F06800281CBF318900290AD0B07AC4
:1040A000FEF78DFDF0687060B08808B9F18809B13D
:1040B000308940B93068B8F1000F0CBF3860C8F8DB
:1040C0000000344600E0B04636680DB1FEF76CFEE5
:1040D00064B1A188002904BFE088002803D12189A8
:1040E000A07AFEF76CFD2046FEF7D9FB002EAFD17B
:1040F000BDE8F381014840687047000084730020E8
:10410000034800218171018070470149887170471F
:104110007C73002080B51820FEF75BFB1549086012
:1041200018220021FEF704FC002001F0E3FA012030
:10413000FDF726FC022001F029FC032003F02AFDF4
:10414000042003F087FE052004F08CFA062004F01A
:1041500075FD072006F096F8082006F095FA09206C
:1041600006F0C6FC0A2007F091FFBDE802400B20D4
:1041700000F01AB8EC730020FF56200091192000BF
:10418000D9592000A17B2000857E20006F8B200064
:10419000E38C2000BBA220009BA62000BDB720001E
:1041A000F9BE2000BD41200012490870704780B55B
:1041B00007F0A8FFBDE8014008F078B938B50C4613
:1041C00020040BD50B4D01E0FEF7F4FB2878FEF739
:1041D0002DFC0028F8D184F4004032BDA00602D5A1
:1041E00084F0200032BDE00602D584F0100032BD1C
:1041F000002032BD6374002008F05AB9EFF310803C
:1042000072B67047EFF3108062B67047DFF8D014D3
:1042100000200860704780B503F059F860B90022AB
:10422000012100F03DF900281CBF0168002903D0DE
:10423000BDE8024001F0B3BD01BD80B5042000F02F
:1042400020F9DFF8A0140A78824207D3FF2000F09B
:1042500018F9DFF894140A78824201D2012002BDD5
:10426000002002BD2DE9F04107468846387B00F06A
:1042700029F900250446012624BB7A89397B386850
:1042800000F0B9F8040062D025810125387C207443
:10429000788A608207F1100009F011F96061388BAB
:1042A00061892083B87EA0764FF67F40014061810E
:1042B00048074FBF41F08001DFF83004027841EA3F
:1042C000C21161816289D009B8F1000F00F00700C6
:1042D00012D00221617321688B7B590703D5DFF867
:1042E00010140B8A238120B34FF67F410A40401EF1
:1042F00042EAC01262811CE008B9002619E090066B
:1043000005D5FEF743FB00F07F005F3008E0D006E4
:1043100005D5FEF73BFB00F00F000A3000E001205E
:104320002081202104206073DFF8C8030078FEF7A5
:1043300046FC6DB12289617B204600F06FF838B1F0
:10434000606908B1FEF7ABFA2046FEF7A8FA00262E
:104350003046BDE8F0813EB500F0B4F800240028F6
:1043600033D0417B062930D1016844890A7A8DF81F
:10437000082001680A88ADF8002000F0E7F8200561
:1043800022D5BDF80010002000F021F8E0B9DFF8D8
:104390006053A98C68460AF070FC002100200CE0F4
:1043A000206801884FF6FF7291420DD0A98C0AF067
:1043B00062FC1A2808D00021204600F008F804000A
:1043C000EED100200AF05BFC012420463EBD58B12E
:1043D000406868B142891305FAD50A001EBF026819
:1043E00013888B4204D0F3E7DFF8F4020068F0E7AB
:1043F00070470120704770B504460D4616461C20D4
:10440000FEF7E7F948B10021417305734681018148
:104410008173C17304604161416070BD70B5040077
:104420000D4616462BD0012D284606D100F029F85E
:10443000B1490A7882420CD207E0042D07D100F07E
:1044400020F8A8490A78824203D2112070BD022DBB
:1044500015D10020606065732681A148016831B1E3
:1044600000E0014648680028FBD14C6000E0046091
:10447000A04800782021FEF7A2FB002070BDC120DB
:1044800070BD974909680246002005E04B7B4968EA
:10449000934214BFFF2A401C0029F7D1C0B27047D5
:1044A00010B558B1406860B1437B8B42FAD113001C
:1044B00007D003689C7B630703D5F3E7884800684F
:1044C000F1E710BD01468648006800E0406800281A
:1044D0001CBF027B8A42F9D17047014680480068C0
:1044E00000E0406850B1026813888B42F9D1126A2B
:1044F0001378527803EB0223DB05F2D47047F8B54A
:104500000546002728000E460AD07548046800E0DA
:1045100064682CB131462046A8470128F8D12746C7
:104520003846F2BD0020704710B56D4A1368194631
:10453000002401E00C46496839B18142FAD148684B
:10454000994201D1106010BD606010BD10B504002B
:1045500011D0FFF7E9FF2068006AFEF7A0F9206894
:10456000FEF79DF9606908B1FEF799F92046BDE8AC
:104570001040FEF794B910BD70B50168584B0A8819
:1045800019680023002409E04D7B052D01BF641C40
:104590000E6835889542496808BF5B1C0029F3D135
:1045A000564A53491578DBB2AB423FBF544B1D7896
:1045B000E4B2AC422CBF01220A8A02814FF6FF739B
:1045C00005224273428942F40062428100680288F7
:1045D0009A4204D0898C0AF04EFB1A2804D1BDE817
:1045E000704001200AF04BBB70BD70B53C4D2C688B
:1045F000002C0EE021686668086AFEF750F9206812
:10460000FEF74DF96069FEF74AF92046FEF747F9D3
:104610003400EFD10020286070BD10B501000AD031
:10462000A1F108021068002804BF9379FF2B04D081
:104630000846FEF7BFF9052010BD2E4C207890717A
:10464000304802783048FEF798FA012806D12078E1
:104650004FF40051FEF7B3FA002010BD042010BD46
:1046600070B5FEF7A5FB284E3468451EAD41ED0F31
:104670008CB1204854F8081C007800294FF40051F0
:1046800002D0FEF79CFA01E0FEF7B0FA00222146C4
:104690003046FEF759FA0DB1FEF786FB204670BD95
:1046A00070B505460E480468002614E021680A88A3
:1046B000AA420FD100202081A07A410744BF207B6D
:1046C0000BF07AFC06216173F0212068407B01F039
:1046D000C8FB761C6468002CE8D1F0B270BD000005
:1046E00048740020F6152200F715220077430020B9
:1046F000786C0020BC730020F5152200F91522000B
:10470000FA152200051622004C740020F0B5DFF8DF
:10471000300489B0142101603F2181605521C160BE
:10472000FC21DFF82044DFF82054DFF82074DFF8A4
:104730000C6461638521E1670121416115214162BA
:104740000021A967102101630E21416303218163C8
:104750000920786504210B200860FF2139602A2098
:104760008021FEF72CFB80212B20FEF728FB2A203E
:10477000FEF736FB2B20FEF733FB80213120FEF7BE
:104780001EFBDFF8CC030168090C3160FEF710FB5B
:10479000401E80410221F9670022DFF8B8130A6049
:1047A0002822C00F4A6008B1FEF7FEFADFF8A8031E
:1047B00001680A03FAD5386F40F003003867386F94
:1047C0004107FCD5386F40F00A0038673120FEF70A
:1047D00007FB48202060FFF743FA206CC107FCD597
:1047E00000211020A26F53084941401E89B2F9D11F
:1047F000002914BFB1F5607F4BF6BE21DFF85C03E2
:1048000001F0FF02026009120160716869B10022C3
:1048100000230820A66F77085B41401EFAD1684646
:104820008354521C202AF3DB8847FFF72DFA4020DF
:1048300020600021206840F020002060296069602D
:10484000A960E9602961696109B0F0BDDFF8100372
:10485000016821F00C0141F0040101608069C0B2DF
:104860007047DFF8FC02016821F00C0141F00401FF
:1048700001608169406900EB012080B2704710B58A
:10488000FEF796FADFF8DC12401E804101220A6032
:10489000C00F8A684C6844EA022408B1FEF784FA23
:1048A000A0B210BD80B5FEF783FA00F005F84A68A3
:1048B0004B698DF8003014E0DFF8A812401E8041EB
:1048C00000220A60C00F704780B5FEF771FADFF86A
:1048D0009412401E804110220A60C00F4A698DF870
:1048E00000200A698DF801200022C9688DF80210A5
:1048F0008DF8032008B1FEF757FA009802BD01B504
:10490000000E18BFFFF7F2F9FFF7CCFF964AD16807
:1049100040180099401AD060FEF74AFAFFF7CCFF22
:104920009DF800204A619DF801200A619DF802204F
:10493000CA6018B1BDE80140FEF736BA01BD11B535
:10494000002481B0000E18BFFFF7D0F9FEF730FA4F
:1049500000F036F8D30604D50A6822F010020124CC
:104960000A60302300F032F86FF010024A601CB188
:104970000A6842F010020A6000B132E013BD11B5BE
:10498000002481B0000E18BFFFF7B0F9FEF710FA4F
:1049900000F016F8130704D50A6822F00802012473
:1049A0000A60202300F012F84A6822F008024A60E8
:1049B0001CB10A6842F008020A6000B111E013BDA0
:1049C0006A490A68401E8041C00F70478B609DF89D
:1049D0000420CA619DF805208A619DF806204A617D
:1049E0007047BDE81340FEF7DFB938B55F4C256866
:1049F00060680540E80604D5FFF704FA6FF0100080
:104A00006060280704D5FFF7FFF96FF008000DE09C
:104A1000E8070CD556485749006891F9002043B281
:104A20009A42B8BF1A460A706FF00100606031BD4B
:104A300070B5514C514D666C2A20FEF729FA296851
:104A40003140080705D56FF00800286000F014FE1B
:104A500013E028683040C00605D56FF010002860CC
:104A600000F011FE09E028680640F00705D5606CEB
:104A700040084000606400F09FFB206C69680840BB
:104A8000400707D500F025F96FF004006860206842
:104A90004106F7D470BD10B539490C682B20FEF7DC
:104AA000F7F9384801682140490603D56FF0400105
:104AB000016010BD01682140C90708D56FF00101F0
:104AC0000160FFF78BF8BDE81040FFF7C9B8016837
:104AD0000C40610706D56FF004010160BDE810408D
:104AE00000F0B3BB10BD23496FF07F0008701F4872
:104AF000016841F00101016070471C4801684908E4
:104B0000490001601B4890F90000704738B5FEF776
:104B10004FF9154D441EA4412878E40F28B9FFF73A
:104B20007AF9E9684018E86001E0002028701CB1BB
:104B3000BDE83140FEF738B931BD00005C7300209C
:104B4000A486084024860840908508409487084041
:104B5000F80F28001488084004200D4014700D4000
:104B600000700D40108808406872002008880840D6
:104B700060860840677400204C86084030880840F2
:104B8000948608402C88084004E011F8013B40F866
:104B9000043B521ED3B2002BF7D1704704E050F80B
:104BA000043B01F8013B521ED3B2002BF7D17047F2
:104BB00038B504460D0008BFFFF798F814F8010B4C
:104BC0000B4908606D1EE8B20028F7D131BD38B539
:104BD00004460D0008BFFFF789F80548016804F88E
:104BE000011B6D1EE8B20028F7D131BD00000000A6
:104BF00028880840DFF888060021C1724161818061
:104C00000FF2F5010161002181718181817370478B
:104C100038B5DFF8705605202860FEF7C9F800F0B7
:104C200053F8DFF864166FF00400E40F08600CB16D
:104C3000FEF7BAF8E86B40F00400E86331BD80B5D8
:104C4000FEF7CCFFDFF8381600204871BDE80240BF
:104C500000E310B5DFF8284601206073207B18B907
:104C600000F003F80021617310BD38B5DFF81406B9
:104C7000DFF81456016C49084900016405220260FE
:104C8000ED2068606860FEF793F800F01DF86FF0A3
:104C90000400E40F28600CB1FEF786F8DFF8E04569
:104CA000606918B104F11400FBF7B8FF0FF2490076
:104CB00021792061A079014305D000212171A171E2
:104CC000BDE8314085E231BD441EA4412A20FEF7F3
:104CD000DFB810B5DFF8A845607B58B90121217312
:104CE0002069804700202073607B18B1FFF7BDFF6B
:104CF0000021617310BD00002DE9F84FDFF88075C9
:104D00003879002508B1FEF7F1FF81213971DFF80C
:104D10007C15087838B1DFF87845606A010606D45A
